{
	"contracts/Linkshield.sol": {
		"LinkShield": {
			"abi": [
				{
					"inputs": [],
					"stateMutability": "nonpayable",
					"type": "constructor"
				},
				{
					"inputs": [
						{
							"internalType": "string",
							"name": "url",
							"type": "string"
						},
						{
							"internalType": "string",
							"name": "linkId",
							"type": "string"
						},
						{
							"internalType": "uint256",
							"name": "fee",
							"type": "uint256"
						}
					],
					"name": "addLink",
					"outputs": [],
					"stateMutability": "nonpayable",
					"type": "function"
				},
				{
					"inputs": [],
					"name": "admin",
					"outputs": [
						{
							"internalType": "address",
							"name": "",
							"type": "address"
						}
					],
					"stateMutability": "view",
					"type": "function"
				},
				{
					"inputs": [],
					"name": "commission",
					"outputs": [
						{
							"internalType": "uint256",
							"name": "",
							"type": "uint256"
						}
					],
					"stateMutability": "view",
					"type": "function"
				},
				{
					"inputs": [
						{
							"internalType": "string",
							"name": "linkId",
							"type": "string"
						}
					],
					"name": "getLink",
					"outputs": [
						{
							"components": [
								{
									"internalType": "string",
									"name": "url",
									"type": "string"
								},
								{
									"internalType": "address",
									"name": "owner",
									"type": "address"
								},
								{
									"internalType": "uint256",
									"name": "fee",
									"type": "uint256"
								}
							],
							"internalType": "struct LinkShield.Link",
							"name": "",
							"type": "tuple"
						}
					],
					"stateMutability": "view",
					"type": "function"
				},
				{
					"inputs": [
						{
							"internalType": "string",
							"name": "",
							"type": "string"
						},
						{
							"internalType": "address",
							"name": "",
							"type": "address"
						}
					],
					"name": "hasAccess",
					"outputs": [
						{
							"internalType": "bool",
							"name": "",
							"type": "bool"
						}
					],
					"stateMutability": "view",
					"type": "function"
				},
				{
					"inputs": [
						{
							"internalType": "string",
							"name": "linkId",
							"type": "string"
						}
					],
					"name": "payLink",
					"outputs": [],
					"stateMutability": "payable",
					"type": "function"
				},
				{
					"inputs": [],
					"name": "withdraw",
					"outputs": [],
					"stateMutability": "nonpayable",
					"type": "function"
				}
			],
			"devdoc": {
				"kind": "dev",
				"methods": {},
				"version": 1
			},
			"evm": {
				"assembly": "    /* \"contracts/Linkshield.sol\":61:1930  contract LinkShield {... */\n  mstore(0x40, 0xa0)\n    /* \"contracts/Linkshield.sol\":230:231  1 */\n  0x01\n    /* \"contracts/Linkshield.sol\":202:231  uint256 public commission = 1 */\n  0x00\n  sstore\n    /* \"contracts/Linkshield.sol\":390:443  constructor() {... */\n  callvalue\n  dup1\n  iszero\n  tag_1\n  jumpi\n  revert(0x00, 0x00)\ntag_1:\n  pop\n    /* \"contracts/Linkshield.sol\":425:435  msg.sender */\n  caller\n    /* \"contracts/Linkshield.sol\":417:435  admin = msg.sender */\n  0xffffffffffffffffffffffffffffffffffffffff\n  and\n  0x80\n  dup2\n  0xffffffffffffffffffffffffffffffffffffffff\n  and\n  dup2\n  mstore\n  pop\n  pop\n    /* \"contracts/Linkshield.sol\":61:1930  contract LinkShield {... */\n  mload(0x80)\n  codecopy(0x00, dataOffset(sub_0), dataSize(sub_0))\n  0x00\n  assignImmutable(\"0x6585423cb6456b1d4957f6454d2f004f0c4f58d53a00082412d5c2ef4b1b31fd\")\n  return(0x00, dataSize(sub_0))\nstop\n\nsub_0: assembly {\n        /* \"contracts/Linkshield.sol\":61:1930  contract LinkShield {... */\n      mstore(0x40, 0x80)\n      jumpi(tag_1, lt(calldatasize, 0x04))\n      shr(0xe0, calldataload(0x00))\n      dup1\n      0x7476452a\n      gt\n      tag_9\n      jumpi\n      dup1\n      0x7476452a\n      eq\n      tag_5\n      jumpi\n      dup1\n      0xe1489191\n      eq\n      tag_6\n      jumpi\n      dup1\n      0xf851a440\n      eq\n      tag_7\n      jumpi\n      dup1\n      0xfc5f2b78\n      eq\n      tag_8\n      jumpi\n      jump(tag_1)\n    tag_9:\n      dup1\n      0x13bd20e2\n      eq\n      tag_2\n      jumpi\n      dup1\n      0x3ccfd60b\n      eq\n      tag_3\n      jumpi\n      dup1\n      0x429cad86\n      eq\n      tag_4\n      jumpi\n    tag_1:\n      revert(0x00, 0x00)\n        /* \"contracts/Linkshield.sol\":282:344  mapping (string => mapping (address => bool) )public hasAccess */\n    tag_2:\n      callvalue\n      dup1\n      iszero\n      tag_10\n      jumpi\n      revert(0x00, 0x00)\n    tag_10:\n      pop\n      tag_11\n      0x04\n      dup1\n      calldatasize\n      sub\n      dup2\n      add\n      swap1\n      tag_12\n      swap2\n      swap1\n      tag_13\n      jump\t// in\n    tag_12:\n      tag_14\n      jump\t// in\n    tag_11:\n      mload(0x40)\n      tag_15\n      swap2\n      swap1\n      tag_16\n      jump\t// in\n    tag_15:\n      mload(0x40)\n      dup1\n      swap2\n      sub\n      swap1\n      return\n        /* \"contracts/Linkshield.sol\":1704:1925  function withdraw () public  {... */\n    tag_3:\n      callvalue\n      dup1\n      iszero\n      tag_17\n      jumpi\n      revert(0x00, 0x00)\n    tag_17:\n      pop\n      tag_18\n      tag_19\n      jump\t// in\n    tag_18:\n      stop\n        /* \"contracts/Linkshield.sol\":942:1416  function payLink (string calldata linkId) public payable {... */\n    tag_4:\n      tag_20\n      0x04\n      dup1\n      calldatasize\n      sub\n      dup2\n      add\n      swap1\n      tag_21\n      swap2\n      swap1\n      tag_22\n      jump\t// in\n    tag_21:\n      tag_23\n      jump\t// in\n    tag_20:\n      stop\n        /* \"contracts/Linkshield.sol\":1424:1696  function getLink (string calldata linkId) public view returns (Link memory) {... */\n    tag_5:\n      callvalue\n      dup1\n      iszero\n      tag_24\n      jumpi\n      revert(0x00, 0x00)\n    tag_24:\n      pop\n      tag_25\n      0x04\n      dup1\n      calldatasize\n      sub\n      dup2\n      add\n      swap1\n      tag_26\n      swap2\n      swap1\n      tag_22\n      jump\t// in\n    tag_26:\n      tag_27\n      jump\t// in\n    tag_25:\n      mload(0x40)\n      tag_28\n      swap2\n      swap1\n      tag_29\n      jump\t// in\n    tag_28:\n      mload(0x40)\n      dup1\n      swap2\n      sub\n      swap1\n      return\n        /* \"contracts/Linkshield.sol\":202:231  uint256 public commission = 1 */\n    tag_6:\n      callvalue\n      dup1\n      iszero\n      tag_30\n      jumpi\n      revert(0x00, 0x00)\n    tag_30:\n      pop\n      tag_31\n      tag_32\n      jump\t// in\n    tag_31:\n      mload(0x40)\n      tag_33\n      swap2\n      swap1\n      tag_34\n      jump\t// in\n    tag_33:\n      mload(0x40)\n      dup1\n      swap2\n      sub\n      swap1\n      return\n        /* \"contracts/Linkshield.sol\":351:381  address public immutable admin */\n    tag_7:\n      callvalue\n      dup1\n      iszero\n      tag_35\n      jumpi\n      revert(0x00, 0x00)\n    tag_35:\n      pop\n      tag_36\n      tag_37\n      jump\t// in\n    tag_36:\n      mload(0x40)\n      tag_38\n      swap2\n      swap1\n      tag_39\n      jump\t// in\n    tag_38:\n      mload(0x40)\n      dup1\n      swap2\n      sub\n      swap1\n      return\n        /* \"contracts/Linkshield.sol\":451:930  function addLink (string calldata url, string calldata linkId, uint256 fee) public {... */\n    tag_8:\n      callvalue\n      dup1\n      iszero\n      tag_40\n      jumpi\n      revert(0x00, 0x00)\n    tag_40:\n      pop\n      tag_41\n      0x04\n      dup1\n      calldatasize\n      sub\n      dup2\n      add\n      swap1\n      tag_42\n      swap2\n      swap1\n      tag_43\n      jump\t// in\n    tag_42:\n      tag_44\n      jump\t// in\n    tag_41:\n      stop\n        /* \"contracts/Linkshield.sol\":282:344  mapping (string => mapping (address => bool) )public hasAccess */\n    tag_14:\n      0x02\n      dup3\n      dup1\n      mload\n      0x20\n      dup2\n      add\n      dup3\n      add\n      dup1\n      mload\n      dup5\n      dup3\n      mstore\n      0x20\n      dup4\n      add\n      0x20\n      dup6\n      add\n      keccak256\n      dup2\n      dup4\n      mstore\n      dup1\n      swap6\n      pop\n      pop\n      pop\n      pop\n      pop\n      pop\n      0x20\n      mstore\n      dup1\n      0x00\n      mstore\n      keccak256(0x00, 0x40)\n      0x00\n      swap2\n      pop\n      swap2\n      pop\n      swap1\n      sload\n      swap1\n      0x0100\n      exp\n      swap1\n      div\n      0xff\n      and\n      dup2\n      jump\t// out\n        /* \"contracts/Linkshield.sol\":1704:1925  function withdraw () public  {... */\n    tag_19:\n        /* \"contracts/Linkshield.sol\":1762:1767  admin */\n      immutable(\"0x6585423cb6456b1d4957f6454d2f004f0c4f58d53a00082412d5c2ef4b1b31fd\")\n        /* \"contracts/Linkshield.sol\":1748:1767  msg.sender == admin */\n      0xffffffffffffffffffffffffffffffffffffffff\n      and\n        /* \"contracts/Linkshield.sol\":1748:1758  msg.sender */\n      caller\n        /* \"contracts/Linkshield.sol\":1748:1767  msg.sender == admin */\n      0xffffffffffffffffffffffffffffffffffffffff\n      and\n      eq\n        /* \"contracts/Linkshield.sol\":1740:1803  require(msg.sender == admin, \"Only admin can withdraw funds!!\") */\n      tag_46\n      jumpi\n      mload(0x40)\n      0x08c379a000000000000000000000000000000000000000000000000000000000\n      dup2\n      mstore\n      0x04\n      add\n      tag_47\n      swap1\n      tag_48\n      jump\t// in\n    tag_47:\n      mload(0x40)\n      dup1\n      swap2\n      sub\n      swap1\n      revert\n    tag_46:\n        /* \"contracts/Linkshield.sol\":1827:1841  uint256 amount */\n      0x00\n        /* \"contracts/Linkshield.sol\":1844:1865  address(this).balance */\n      selfbalance\n        /* \"contracts/Linkshield.sol\":1827:1865  uint256 amount = address(this).balance */\n      swap1\n      pop\n        /* \"contracts/Linkshield.sol\":1884:1889  admin */\n      immutable(\"0x6585423cb6456b1d4957f6454d2f004f0c4f58d53a00082412d5c2ef4b1b31fd\")\n        /* \"contracts/Linkshield.sol\":1876:1899  payable(admin).transfer */\n      0xffffffffffffffffffffffffffffffffffffffff\n      and\n        /* \"contracts/Linkshield.sol\":1876:1907  payable(admin).transfer(amount) */\n      0x08fc\n        /* \"contracts/Linkshield.sol\":1900:1906  amount */\n      dup3\n        /* \"contracts/Linkshield.sol\":1876:1907  payable(admin).transfer(amount) */\n      swap1\n      dup2\n      iszero\n      mul\n      swap1\n      mload(0x40)\n      0x00\n      mload(0x40)\n      dup1\n      dup4\n      sub\n      dup2\n      dup6\n      dup9\n      dup9\n      call\n      swap4\n      pop\n      pop\n      pop\n      pop\n      iszero\n      dup1\n      iszero\n      tag_50\n      jumpi\n      returndatacopy(0x00, 0x00, returndatasize)\n      revert(0x00, returndatasize)\n    tag_50:\n      pop\n        /* \"contracts/Linkshield.sol\":1733:1925  {... */\n      pop\n        /* \"contracts/Linkshield.sol\":1704:1925  function withdraw () public  {... */\n      jump\t// out\n        /* \"contracts/Linkshield.sol\":942:1416  function payLink (string calldata linkId) public payable {... */\n    tag_23:\n        /* \"contracts/Linkshield.sol\":1010:1026  Link memory link */\n      0x00\n        /* \"contracts/Linkshield.sol\":1029:1034  links */\n      0x01\n        /* \"contracts/Linkshield.sol\":1035:1041  linkId */\n      dup4\n      dup4\n        /* \"contracts/Linkshield.sol\":1029:1042  links[linkId] */\n      mload(0x40)\n      tag_52\n      swap3\n      swap2\n      swap1\n      tag_53\n      jump\t// in\n    tag_52:\n      swap1\n      dup2\n      mstore\n      0x20\n      add\n      mload(0x40)\n      dup1\n      swap2\n      sub\n      swap1\n      keccak256\n        /* \"contracts/Linkshield.sol\":1010:1042  Link memory link = links[linkId] */\n      mload(0x40)\n      dup1\n      0x60\n      add\n      0x40\n      mstore\n      swap1\n      dup2\n      0x00\n      dup3\n      add\n      dup1\n      sload\n      tag_54\n      swap1\n      tag_55\n      jump\t// in\n    tag_54:\n      dup1\n      0x1f\n      add\n      0x20\n      dup1\n      swap2\n      div\n      mul\n      0x20\n      add\n      mload(0x40)\n      swap1\n      dup2\n      add\n      0x40\n      mstore\n      dup1\n      swap3\n      swap2\n      swap1\n      dup2\n      dup2\n      mstore\n      0x20\n      add\n      dup3\n      dup1\n      sload\n      tag_56\n      swap1\n      tag_55\n      jump\t// in\n    tag_56:\n      dup1\n      iszero\n      tag_57\n      jumpi\n      dup1\n      0x1f\n      lt\n      tag_58\n      jumpi\n      0x0100\n      dup1\n      dup4\n      sload\n      div\n      mul\n      dup4\n      mstore\n      swap2\n      0x20\n      add\n      swap2\n      jump(tag_57)\n    tag_58:\n      dup3\n      add\n      swap2\n      swap1\n      0x00\n      mstore\n      keccak256(0x00, 0x20)\n      swap1\n    tag_59:\n      dup2\n      sload\n      dup2\n      mstore\n      swap1\n      0x01\n      add\n      swap1\n      0x20\n      add\n      dup1\n      dup4\n      gt\n      tag_59\n      jumpi\n      dup3\n      swap1\n      sub\n      0x1f\n      and\n      dup3\n      add\n      swap2\n    tag_57:\n      pop\n      pop\n      pop\n      pop\n      pop\n      dup2\n      mstore\n      0x20\n      add\n      0x01\n      dup3\n      add\n      0x00\n      swap1\n      sload\n      swap1\n      0x0100\n      exp\n      swap1\n      div\n      0xffffffffffffffffffffffffffffffffffffffff\n      and\n      0xffffffffffffffffffffffffffffffffffffffff\n      and\n      0xffffffffffffffffffffffffffffffffffffffff\n      and\n      dup2\n      mstore\n      0x20\n      add\n      0x02\n      dup3\n      add\n      sload\n      dup2\n      mstore\n      pop\n      pop\n      swap1\n      pop\n        /* \"contracts/Linkshield.sol\":1094:1095  0 */\n      0x00\n        /* \"contracts/Linkshield.sol\":1071:1096  link.owner != address (0) */\n      0xffffffffffffffffffffffffffffffffffffffff\n      and\n        /* \"contracts/Linkshield.sol\":1071:1075  link */\n      dup2\n        /* \"contracts/Linkshield.sol\":1071:1081  link.owner */\n      0x20\n      add\n      mload\n        /* \"contracts/Linkshield.sol\":1071:1096  link.owner != address (0) */\n      0xffffffffffffffffffffffffffffffffffffffff\n      and\n      sub\n        /* \"contracts/Linkshield.sol\":1063:1118  require(link.owner != address (0) , \"Link not found!!\") */\n      tag_60\n      jumpi\n      mload(0x40)\n      0x08c379a000000000000000000000000000000000000000000000000000000000\n      dup2\n      mstore\n      0x04\n      add\n      tag_61\n      swap1\n      tag_62\n      jump\t// in\n    tag_61:\n      mload(0x40)\n      dup1\n      swap2\n      sub\n      swap1\n      revert\n    tag_60:\n        /* \"contracts/Linkshield.sol\":1170:1175  false */\n      0x00\n        /* \"contracts/Linkshield.sol\":1137:1175  hasAccess[linkId][msg.sender] == false */\n      iszero\n      iszero\n        /* \"contracts/Linkshield.sol\":1137:1146  hasAccess */\n      0x02\n        /* \"contracts/Linkshield.sol\":1147:1153  linkId */\n      dup5\n      dup5\n        /* \"contracts/Linkshield.sol\":1137:1154  hasAccess[linkId] */\n      mload(0x40)\n      tag_63\n      swap3\n      swap2\n      swap1\n      tag_53\n      jump\t// in\n    tag_63:\n      swap1\n      dup2\n      mstore\n      0x20\n      add\n      mload(0x40)\n      dup1\n      swap2\n      sub\n      swap1\n      keccak256\n        /* \"contracts/Linkshield.sol\":1137:1166  hasAccess[linkId][msg.sender] */\n      0x00\n        /* \"contracts/Linkshield.sol\":1155:1165  msg.sender */\n      caller\n        /* \"contracts/Linkshield.sol\":1137:1166  hasAccess[linkId][msg.sender] */\n      0xffffffffffffffffffffffffffffffffffffffff\n      and\n      0xffffffffffffffffffffffffffffffffffffffff\n      and\n      dup2\n      mstore\n      0x20\n      add\n      swap1\n      dup2\n      mstore\n      0x20\n      add\n      0x00\n      keccak256\n      0x00\n      swap1\n      sload\n      swap1\n      0x0100\n      exp\n      swap1\n      div\n      0xff\n      and\n        /* \"contracts/Linkshield.sol\":1137:1175  hasAccess[linkId][msg.sender] == false */\n      iszero\n      iszero\n      eq\n        /* \"contracts/Linkshield.sol\":1129:1218  require(hasAccess[linkId][msg.sender] == false, \"You already have access to this link!!\") */\n      tag_64\n      jumpi\n      mload(0x40)\n      0x08c379a000000000000000000000000000000000000000000000000000000000\n      dup2\n      mstore\n      0x04\n      add\n      tag_65\n      swap1\n      tag_66\n      jump\t// in\n    tag_65:\n      mload(0x40)\n      dup1\n      swap2\n      sub\n      swap1\n      revert\n    tag_64:\n        /* \"contracts/Linkshield.sol\":1250:1254  link */\n      dup1\n        /* \"contracts/Linkshield.sol\":1250:1258  link.fee */\n      0x40\n      add\n      mload\n        /* \"contracts/Linkshield.sol\":1237:1246  msg.value */\n      callvalue\n        /* \"contracts/Linkshield.sol\":1237:1258  msg.value >= link.fee */\n      lt\n      iszero\n        /* \"contracts/Linkshield.sol\":1229:1286  require(msg.value >= link.fee, \"Insufficient payment!!\" ) */\n      tag_67\n      jumpi\n      mload(0x40)\n      0x08c379a000000000000000000000000000000000000000000000000000000000\n      dup2\n      mstore\n      0x04\n      add\n      tag_68\n      swap1\n      tag_69\n      jump\t// in\n    tag_68:\n      mload(0x40)\n      dup1\n      swap2\n      sub\n      swap1\n      revert\n    tag_67:\n        /* \"contracts/Linkshield.sol\":1339:1343  true */\n      0x01\n        /* \"contracts/Linkshield.sol\":1307:1316  hasAccess */\n      0x02\n        /* \"contracts/Linkshield.sol\":1317:1323  linkId */\n      dup5\n      dup5\n        /* \"contracts/Linkshield.sol\":1307:1324  hasAccess[linkId] */\n      mload(0x40)\n      tag_70\n      swap3\n      swap2\n      swap1\n      tag_53\n      jump\t// in\n    tag_70:\n      swap1\n      dup2\n      mstore\n      0x20\n      add\n      mload(0x40)\n      dup1\n      swap2\n      sub\n      swap1\n      keccak256\n        /* \"contracts/Linkshield.sol\":1307:1336  hasAccess[linkId][msg.sender] */\n      0x00\n        /* \"contracts/Linkshield.sol\":1325:1335  msg.sender */\n      caller\n        /* \"contracts/Linkshield.sol\":1307:1336  hasAccess[linkId][msg.sender] */\n      0xffffffffffffffffffffffffffffffffffffffff\n      and\n      0xffffffffffffffffffffffffffffffffffffffff\n      and\n      dup2\n      mstore\n      0x20\n      add\n      swap1\n      dup2\n      mstore\n      0x20\n      add\n      0x00\n      keccak256\n      0x00\n        /* \"contracts/Linkshield.sol\":1307:1343  hasAccess[linkId][msg.sender] = true */\n      0x0100\n      exp\n      dup2\n      sload\n      dup2\n      0xff\n      mul\n      not\n      and\n      swap1\n      dup4\n      iszero\n      iszero\n      mul\n      or\n      swap1\n      sstore\n      pop\n        /* \"contracts/Linkshield.sol\":1362:1366  link */\n      dup1\n        /* \"contracts/Linkshield.sol\":1362:1372  link.owner */\n      0x20\n      add\n      mload\n        /* \"contracts/Linkshield.sol\":1354:1382  payable(link.owner).transfer */\n      0xffffffffffffffffffffffffffffffffffffffff\n      and\n        /* \"contracts/Linkshield.sol\":1354:1406  payable(link.owner).transfer(msg.value - commission) */\n      0x08fc\n        /* \"contracts/Linkshield.sol\":1395:1405  commission */\n      sload(0x00)\n        /* \"contracts/Linkshield.sol\":1383:1392  msg.value */\n      callvalue\n        /* \"contracts/Linkshield.sol\":1383:1405  msg.value - commission */\n      tag_71\n      swap2\n      swap1\n      tag_72\n      jump\t// in\n    tag_71:\n        /* \"contracts/Linkshield.sol\":1354:1406  payable(link.owner).transfer(msg.value - commission) */\n      swap1\n      dup2\n      iszero\n      mul\n      swap1\n      mload(0x40)\n      0x00\n      mload(0x40)\n      dup1\n      dup4\n      sub\n      dup2\n      dup6\n      dup9\n      dup9\n      call\n      swap4\n      pop\n      pop\n      pop\n      pop\n      iszero\n      dup1\n      iszero\n      tag_74\n      jumpi\n      returndatacopy(0x00, 0x00, returndatasize)\n      revert(0x00, returndatasize)\n    tag_74:\n      pop\n        /* \"contracts/Linkshield.sol\":999:1416  {... */\n      pop\n        /* \"contracts/Linkshield.sol\":942:1416  function payLink (string calldata linkId) public payable {... */\n      pop\n      pop\n      jump\t// out\n        /* \"contracts/Linkshield.sol\":1424:1696  function getLink (string calldata linkId) public view returns (Link memory) {... */\n    tag_27:\n        /* \"contracts/Linkshield.sol\":1487:1498  Link memory */\n      tag_75\n      tag_76\n      jump\t// in\n    tag_75:\n        /* \"contracts/Linkshield.sol\":1511:1527  Link memory link */\n      0x00\n        /* \"contracts/Linkshield.sol\":1530:1535  links */\n      0x01\n        /* \"contracts/Linkshield.sol\":1536:1542  linkId */\n      dup5\n      dup5\n        /* \"contracts/Linkshield.sol\":1530:1543  links[linkId] */\n      mload(0x40)\n      tag_78\n      swap3\n      swap2\n      swap1\n      tag_53\n      jump\t// in\n    tag_78:\n      swap1\n      dup2\n      mstore\n      0x20\n      add\n      mload(0x40)\n      dup1\n      swap2\n      sub\n      swap1\n      keccak256\n        /* \"contracts/Linkshield.sol\":1511:1543  Link memory link = links[linkId] */\n      mload(0x40)\n      dup1\n      0x60\n      add\n      0x40\n      mstore\n      swap1\n      dup2\n      0x00\n      dup3\n      add\n      dup1\n      sload\n      tag_79\n      swap1\n      tag_55\n      jump\t// in\n    tag_79:\n      dup1\n      0x1f\n      add\n      0x20\n      dup1\n      swap2\n      div\n      mul\n      0x20\n      add\n      mload(0x40)\n      swap1\n      dup2\n      add\n      0x40\n      mstore\n      dup1\n      swap3\n      swap2\n      swap1\n      dup2\n      dup2\n      mstore\n      0x20\n      add\n      dup3\n      dup1\n      sload\n      tag_80\n      swap1\n      tag_55\n      jump\t// in\n    tag_80:\n      dup1\n      iszero\n      tag_81\n      jumpi\n      dup1\n      0x1f\n      lt\n      tag_82\n      jumpi\n      0x0100\n      dup1\n      dup4\n      sload\n      div\n      mul\n      dup4\n      mstore\n      swap2\n      0x20\n      add\n      swap2\n      jump(tag_81)\n    tag_82:\n      dup3\n      add\n      swap2\n      swap1\n      0x00\n      mstore\n      keccak256(0x00, 0x20)\n      swap1\n    tag_83:\n      dup2\n      sload\n      dup2\n      mstore\n      swap1\n      0x01\n      add\n      swap1\n      0x20\n      add\n      dup1\n      dup4\n      gt\n      tag_83\n      jumpi\n      dup3\n      swap1\n      sub\n      0x1f\n      and\n      dup3\n      add\n      swap2\n    tag_81:\n      pop\n      pop\n      pop\n      pop\n      pop\n      dup2\n      mstore\n      0x20\n      add\n      0x01\n      dup3\n      add\n      0x00\n      swap1\n      sload\n      swap1\n      0x0100\n      exp\n      swap1\n      div\n      0xffffffffffffffffffffffffffffffffffffffff\n      and\n      0xffffffffffffffffffffffffffffffffffffffff\n      and\n      0xffffffffffffffffffffffffffffffffffffffff\n      and\n      dup2\n      mstore\n      0x20\n      add\n      0x02\n      dup3\n      add\n      sload\n      dup2\n      mstore\n      pop\n      pop\n      swap1\n      pop\n        /* \"contracts/Linkshield.sol\":1572:1573  0 */\n      0x00\n        /* \"contracts/Linkshield.sol\":1560:1564  link */\n      dup2\n        /* \"contracts/Linkshield.sol\":1560:1568  link.fee */\n      0x40\n      add\n      mload\n        /* \"contracts/Linkshield.sol\":1560:1573  link.fee == 0 */\n      sub\n        /* \"contracts/Linkshield.sol\":1556:1586  if (link.fee == 0) return link */\n      tag_84\n      jumpi\n        /* \"contracts/Linkshield.sol\":1582:1586  link */\n      dup1\n        /* \"contracts/Linkshield.sol\":1575:1586  return link */\n      swap2\n      pop\n      pop\n      jump(tag_77)\n        /* \"contracts/Linkshield.sol\":1556:1586  if (link.fee == 0) return link */\n    tag_84:\n        /* \"contracts/Linkshield.sol\":1635:1640  false */\n      0x00\n        /* \"contracts/Linkshield.sol\":1600:1640  hasAccess [linkId] [msg.sender] == false */\n      iszero\n      iszero\n        /* \"contracts/Linkshield.sol\":1600:1609  hasAccess */\n      0x02\n        /* \"contracts/Linkshield.sol\":1611:1617  linkId */\n      dup6\n      dup6\n        /* \"contracts/Linkshield.sol\":1600:1618  hasAccess [linkId] */\n      mload(0x40)\n      tag_85\n      swap3\n      swap2\n      swap1\n      tag_53\n      jump\t// in\n    tag_85:\n      swap1\n      dup2\n      mstore\n      0x20\n      add\n      mload(0x40)\n      dup1\n      swap2\n      sub\n      swap1\n      keccak256\n        /* \"contracts/Linkshield.sol\":1600:1631  hasAccess [linkId] [msg.sender] */\n      0x00\n        /* \"contracts/Linkshield.sol\":1620:1630  msg.sender */\n      caller\n        /* \"contracts/Linkshield.sol\":1600:1631  hasAccess [linkId] [msg.sender] */\n      0xffffffffffffffffffffffffffffffffffffffff\n      and\n      0xffffffffffffffffffffffffffffffffffffffff\n      and\n      dup2\n      mstore\n      0x20\n      add\n      swap1\n      dup2\n      mstore\n      0x20\n      add\n      0x00\n      keccak256\n      0x00\n      swap1\n      sload\n      swap1\n      0x0100\n      exp\n      swap1\n      div\n      0xff\n      and\n        /* \"contracts/Linkshield.sol\":1600:1640  hasAccess [linkId] [msg.sender] == false */\n      iszero\n      iszero\n      sub\n        /* \"contracts/Linkshield.sol\":1597:1664  if(hasAccess [linkId] [msg.sender] == false) ... */\n      tag_86\n      jumpi\n        /* \"contracts/Linkshield.sol\":1652:1664  link.url =\"\" */\n      mload(0x40)\n      dup1\n      0x20\n      add\n      0x40\n      mstore\n      dup1\n      0x00\n      dup2\n      mstore\n      pop\n        /* \"contracts/Linkshield.sol\":1652:1656  link */\n      dup2\n        /* \"contracts/Linkshield.sol\":1652:1660  link.url */\n      0x00\n      add\n        /* \"contracts/Linkshield.sol\":1652:1664  link.url =\"\" */\n      dup2\n      swap1\n      mstore\n      pop\n        /* \"contracts/Linkshield.sol\":1597:1664  if(hasAccess [linkId] [msg.sender] == false) ... */\n    tag_86:\n        /* \"contracts/Linkshield.sol\":1684:1688  link */\n      dup1\n        /* \"contracts/Linkshield.sol\":1677:1688  return link */\n      swap2\n      pop\n      pop\n        /* \"contracts/Linkshield.sol\":1424:1696  function getLink (string calldata linkId) public view returns (Link memory) {... */\n    tag_77:\n      swap3\n      swap2\n      pop\n      pop\n      jump\t// out\n        /* \"contracts/Linkshield.sol\":202:231  uint256 public commission = 1 */\n    tag_32:\n      sload(0x00)\n      dup2\n      jump\t// out\n        /* \"contracts/Linkshield.sol\":351:381  address public immutable admin */\n    tag_37:\n      immutable(\"0x6585423cb6456b1d4957f6454d2f004f0c4f58d53a00082412d5c2ef4b1b31fd\")\n      dup2\n      jump\t// out\n        /* \"contracts/Linkshield.sol\":451:930  function addLink (string calldata url, string calldata linkId, uint256 fee) public {... */\n    tag_44:\n        /* \"contracts/Linkshield.sol\":547:563  Link memory link */\n      0x00\n        /* \"contracts/Linkshield.sol\":566:571  links */\n      0x01\n        /* \"contracts/Linkshield.sol\":572:578  linkId */\n      dup5\n      dup5\n        /* \"contracts/Linkshield.sol\":566:579  links[linkId] */\n      mload(0x40)\n      tag_88\n      swap3\n      swap2\n      swap1\n      tag_53\n      jump\t// in\n    tag_88:\n      swap1\n      dup2\n      mstore\n      0x20\n      add\n      mload(0x40)\n      dup1\n      swap2\n      sub\n      swap1\n      keccak256\n        /* \"contracts/Linkshield.sol\":547:579  Link memory link = links[linkId] */\n      mload(0x40)\n      dup1\n      0x60\n      add\n      0x40\n      mstore\n      swap1\n      dup2\n      0x00\n      dup3\n      add\n      dup1\n      sload\n      tag_89\n      swap1\n      tag_55\n      jump\t// in\n    tag_89:\n      dup1\n      0x1f\n      add\n      0x20\n      dup1\n      swap2\n      div\n      mul\n      0x20\n      add\n      mload(0x40)\n      swap1\n      dup2\n      add\n      0x40\n      mstore\n      dup1\n      swap3\n      swap2\n      swap1\n      dup2\n      dup2\n      mstore\n      0x20\n      add\n      dup3\n      dup1\n      sload\n      tag_90\n      swap1\n      tag_55\n      jump\t// in\n    tag_90:\n      dup1\n      iszero\n      tag_91\n      jumpi\n      dup1\n      0x1f\n      lt\n      tag_92\n      jumpi\n      0x0100\n      dup1\n      dup4\n      sload\n      div\n      mul\n      dup4\n      mstore\n      swap2\n      0x20\n      add\n      swap2\n      jump(tag_91)\n    tag_92:\n      dup3\n      add\n      swap2\n      swap1\n      0x00\n      mstore\n      keccak256(0x00, 0x20)\n      swap1\n    tag_93:\n      dup2\n      sload\n      dup2\n      mstore\n      swap1\n      0x01\n      add\n      swap1\n      0x20\n      add\n      dup1\n      dup4\n      gt\n      tag_93\n      jumpi\n      dup3\n      swap1\n      sub\n      0x1f\n      and\n      dup3\n      add\n      swap2\n    tag_91:\n      pop\n      pop\n      pop\n      pop\n      pop\n      dup2\n      mstore\n      0x20\n      add\n      0x01\n      dup3\n      add\n      0x00\n      swap1\n      sload\n      swap1\n      0x0100\n      exp\n      swap1\n      div\n      0xffffffffffffffffffffffffffffffffffffffff\n      and\n      0xffffffffffffffffffffffffffffffffffffffff\n      and\n      0xffffffffffffffffffffffffffffffffffffffff\n      and\n      dup2\n      mstore\n      0x20\n      add\n      0x02\n      dup3\n      add\n      sload\n      dup2\n      mstore\n      pop\n      pop\n      swap1\n      pop\n        /* \"contracts/Linkshield.sol\":622:623  0 */\n      0x00\n        /* \"contracts/Linkshield.sol\":599:624  link.owner == address (0) */\n      0xffffffffffffffffffffffffffffffffffffffff\n      and\n        /* \"contracts/Linkshield.sol\":599:603  link */\n      dup2\n        /* \"contracts/Linkshield.sol\":599:609  link.owner */\n      0x20\n      add\n      mload\n        /* \"contracts/Linkshield.sol\":599:624  link.owner == address (0) */\n      0xffffffffffffffffffffffffffffffffffffffff\n      and\n      eq\n        /* \"contracts/Linkshield.sol\":599:652  link.owner == address (0) || link.owner == msg.sender */\n      dup1\n      tag_94\n      jumpi\n      pop\n        /* \"contracts/Linkshield.sol\":642:652  msg.sender */\n      caller\n        /* \"contracts/Linkshield.sol\":628:652  link.owner == msg.sender */\n      0xffffffffffffffffffffffffffffffffffffffff\n      and\n        /* \"contracts/Linkshield.sol\":628:632  link */\n      dup2\n        /* \"contracts/Linkshield.sol\":628:638  link.owner */\n      0x20\n      add\n      mload\n        /* \"contracts/Linkshield.sol\":628:652  link.owner == msg.sender */\n      0xffffffffffffffffffffffffffffffffffffffff\n      and\n      eq\n        /* \"contracts/Linkshield.sol\":599:652  link.owner == address (0) || link.owner == msg.sender */\n    tag_94:\n        /* \"contracts/Linkshield.sol\":590:691  require( link.owner == address (0) || link.owner == msg.sender, \"This linkId already has an owner!!\") */\n      tag_95\n      jumpi\n      mload(0x40)\n      0x08c379a000000000000000000000000000000000000000000000000000000000\n      dup2\n      mstore\n      0x04\n      add\n      tag_96\n      swap1\n      tag_97\n      jump\t// in\n    tag_96:\n      mload(0x40)\n      dup1\n      swap2\n      sub\n      swap1\n      revert\n    tag_95:\n        /* \"contracts/Linkshield.sol\":717:718  0 */\n      0x00\n        /* \"contracts/Linkshield.sol\":710:713  fee */\n      dup3\n        /* \"contracts/Linkshield.sol\":710:718  fee == 0 */\n      eq\n        /* \"contracts/Linkshield.sol\":710:738  fee == 0 || fee > commission */\n      dup1\n      tag_98\n      jumpi\n      pop\n        /* \"contracts/Linkshield.sol\":728:738  commission */\n      sload(0x00)\n        /* \"contracts/Linkshield.sol\":722:725  fee */\n      dup3\n        /* \"contracts/Linkshield.sol\":722:738  fee > commission */\n      gt\n        /* \"contracts/Linkshield.sol\":710:738  fee == 0 || fee > commission */\n    tag_98:\n        /* \"contracts/Linkshield.sol\":702:756  require(fee == 0 || fee > commission, \"Fee too low!!\") */\n      tag_99\n      jumpi\n      mload(0x40)\n      0x08c379a000000000000000000000000000000000000000000000000000000000\n      dup2\n      mstore\n      0x04\n      add\n      tag_100\n      swap1\n      tag_101\n      jump\t// in\n    tag_100:\n      mload(0x40)\n      dup1\n      swap2\n      sub\n      swap1\n      revert\n    tag_99:\n        /* \"contracts/Linkshield.sol\":780:783  url */\n      dup6\n      dup6\n        /* \"contracts/Linkshield.sol\":769:783  link.url = url */\n      dup1\n      dup1\n      0x1f\n      add\n      0x20\n      dup1\n      swap2\n      div\n      mul\n      0x20\n      add\n      mload(0x40)\n      swap1\n      dup2\n      add\n      0x40\n      mstore\n      dup1\n      swap4\n      swap3\n      swap2\n      swap1\n      dup2\n      dup2\n      mstore\n      0x20\n      add\n      dup4\n      dup4\n      dup1\n      dup3\n      dup5\n      calldatacopy\n      0x00\n      dup2\n      dup5\n      add\n      mstore\n      not(0x1f)\n      0x1f\n      dup3\n      add\n      and\n      swap1\n      pop\n      dup1\n      dup4\n      add\n      swap3\n      pop\n      pop\n      pop\n      pop\n      pop\n      pop\n      pop\n        /* \"contracts/Linkshield.sol\":769:773  link */\n      dup2\n        /* \"contracts/Linkshield.sol\":769:777  link.url */\n      0x00\n      add\n        /* \"contracts/Linkshield.sol\":769:783  link.url = url */\n      dup2\n      swap1\n      mstore\n      pop\n        /* \"contracts/Linkshield.sol\":807:817  msg.sender */\n      caller\n        /* \"contracts/Linkshield.sol\":794:798  link */\n      dup2\n        /* \"contracts/Linkshield.sol\":794:804  link.owner */\n      0x20\n      add\n        /* \"contracts/Linkshield.sol\":794:817  link.owner = msg.sender */\n      swap1\n      0xffffffffffffffffffffffffffffffffffffffff\n      and\n      swap1\n      dup2\n      0xffffffffffffffffffffffffffffffffffffffff\n      and\n      dup2\n      mstore\n      pop\n      pop\n        /* \"contracts/Linkshield.sol\":839:842  fee */\n      dup2\n        /* \"contracts/Linkshield.sol\":828:832  link */\n      dup2\n        /* \"contracts/Linkshield.sol\":828:836  link.fee */\n      0x40\n      add\n        /* \"contracts/Linkshield.sol\":828:842  link.fee = fee */\n      dup2\n      dup2\n      mstore\n      pop\n      pop\n        /* \"contracts/Linkshield.sol\":871:875  link */\n      dup1\n        /* \"contracts/Linkshield.sol\":855:860  links */\n      0x01\n        /* \"contracts/Linkshield.sol\":861:867  linkId */\n      dup6\n      dup6\n        /* \"contracts/Linkshield.sol\":855:868  links[linkId] */\n      mload(0x40)\n      tag_102\n      swap3\n      swap2\n      swap1\n      tag_53\n      jump\t// in\n    tag_102:\n      swap1\n      dup2\n      mstore\n      0x20\n      add\n      mload(0x40)\n      dup1\n      swap2\n      sub\n      swap1\n      keccak256\n        /* \"contracts/Linkshield.sol\":855:875  links[linkId] = link */\n      0x00\n      dup3\n      add\n      mload\n      dup2\n      0x00\n      add\n      swap1\n      dup2\n      tag_103\n      swap2\n      swap1\n      tag_104\n      jump\t// in\n    tag_103:\n      pop\n      0x20\n      dup3\n      add\n      mload\n      dup2\n      0x01\n      add\n      exp(0x0100, 0x00)\n      dup2\n      sload\n      dup2\n      0xffffffffffffffffffffffffffffffffffffffff\n      mul\n      not\n      and\n      swap1\n      dup4\n      0xffffffffffffffffffffffffffffffffffffffff\n      and\n      mul\n      or\n      swap1\n      sstore\n      pop\n      0x40\n      dup3\n      add\n      mload\n      dup2\n      0x02\n      add\n      sstore\n      swap1\n      pop\n      pop\n        /* \"contracts/Linkshield.sol\":918:922  true */\n      0x01\n        /* \"contracts/Linkshield.sol\":886:895  hasAccess */\n      0x02\n        /* \"contracts/Linkshield.sol\":896:902  linkId */\n      dup6\n      dup6\n        /* \"contracts/Linkshield.sol\":886:903  hasAccess[linkId] */\n      mload(0x40)\n      tag_105\n      swap3\n      swap2\n      swap1\n      tag_53\n      jump\t// in\n    tag_105:\n      swap1\n      dup2\n      mstore\n      0x20\n      add\n      mload(0x40)\n      dup1\n      swap2\n      sub\n      swap1\n      keccak256\n        /* \"contracts/Linkshield.sol\":886:915  hasAccess[linkId][msg.sender] */\n      0x00\n        /* \"contracts/Linkshield.sol\":904:914  msg.sender */\n      caller\n        /* \"contracts/Linkshield.sol\":886:915  hasAccess[linkId][msg.sender] */\n      0xffffffffffffffffffffffffffffffffffffffff\n      and\n      0xffffffffffffffffffffffffffffffffffffffff\n      and\n      dup2\n      mstore\n      0x20\n      add\n      swap1\n      dup2\n      mstore\n      0x20\n      add\n      0x00\n      keccak256\n      0x00\n        /* \"contracts/Linkshield.sol\":886:922  hasAccess[linkId][msg.sender] = true */\n      0x0100\n      exp\n      dup2\n      sload\n      dup2\n      0xff\n      mul\n      not\n      and\n      swap1\n      dup4\n      iszero\n      iszero\n      mul\n      or\n      swap1\n      sstore\n      pop\n        /* \"contracts/Linkshield.sol\":534:930  {... */\n      pop\n        /* \"contracts/Linkshield.sol\":451:930  function addLink (string calldata url, string calldata linkId, uint256 fee) public {... */\n      pop\n      pop\n      pop\n      pop\n      pop\n      jump\t// out\n    tag_76:\n      mload(0x40)\n      dup1\n      0x60\n      add\n      0x40\n      mstore\n      dup1\n      0x60\n      dup2\n      mstore\n      0x20\n      add\n      and(0xffffffffffffffffffffffffffffffffffffffff, 0x00)\n      dup2\n      mstore\n      0x20\n      add\n      0x00\n      dup2\n      mstore\n      pop\n      swap1\n      jump\t// out\n        /* \"#utility.yul\":7:82   */\n    tag_106:\n        /* \"#utility.yul\":40:46   */\n      0x00\n        /* \"#utility.yul\":73:75   */\n      0x40\n        /* \"#utility.yul\":67:76   */\n      mload\n        /* \"#utility.yul\":57:76   */\n      swap1\n      pop\n        /* \"#utility.yul\":7:82   */\n      swap1\n      jump\t// out\n        /* \"#utility.yul\":88:205   */\n    tag_107:\n        /* \"#utility.yul\":197:198   */\n      0x00\n        /* \"#utility.yul\":194:195   */\n      0x00\n        /* \"#utility.yul\":187:199   */\n      revert\n        /* \"#utility.yul\":211:328   */\n    tag_108:\n        /* \"#utility.yul\":320:321   */\n      0x00\n        /* \"#utility.yul\":317:318   */\n      0x00\n        /* \"#utility.yul\":310:322   */\n      revert\n        /* \"#utility.yul\":334:451   */\n    tag_109:\n        /* \"#utility.yul\":443:444   */\n      0x00\n        /* \"#utility.yul\":440:441   */\n      0x00\n        /* \"#utility.yul\":433:445   */\n      revert\n        /* \"#utility.yul\":457:574   */\n    tag_110:\n        /* \"#utility.yul\":566:567   */\n      0x00\n        /* \"#utility.yul\":563:564   */\n      0x00\n        /* \"#utility.yul\":556:568   */\n      revert\n        /* \"#utility.yul\":580:682   */\n    tag_111:\n        /* \"#utility.yul\":621:627   */\n      0x00\n        /* \"#utility.yul\":672:674   */\n      0x1f\n        /* \"#utility.yul\":668:675   */\n      not\n        /* \"#utility.yul\":663:665   */\n      0x1f\n        /* \"#utility.yul\":656:661   */\n      dup4\n        /* \"#utility.yul\":652:666   */\n      add\n        /* \"#utility.yul\":648:676   */\n      and\n        /* \"#utility.yul\":638:676   */\n      swap1\n      pop\n        /* \"#utility.yul\":580:682   */\n      swap2\n      swap1\n      pop\n      jump\t// out\n        /* \"#utility.yul\":688:868   */\n    tag_112:\n        /* \"#utility.yul\":736:813   */\n      0x4e487b7100000000000000000000000000000000000000000000000000000000\n        /* \"#utility.yul\":733:734   */\n      0x00\n        /* \"#utility.yul\":726:814   */\n      mstore\n        /* \"#utility.yul\":833:837   */\n      0x41\n        /* \"#utility.yul\":830:831   */\n      0x04\n        /* \"#utility.yul\":823:838   */\n      mstore\n        /* \"#utility.yul\":857:861   */\n      0x24\n        /* \"#utility.yul\":854:855   */\n      0x00\n        /* \"#utility.yul\":847:862   */\n      revert\n        /* \"#utility.yul\":874:1155   */\n    tag_113:\n        /* \"#utility.yul\":957:984   */\n      tag_181\n        /* \"#utility.yul\":979:983   */\n      dup3\n        /* \"#utility.yul\":957:984   */\n      tag_111\n      jump\t// in\n    tag_181:\n        /* \"#utility.yul\":949:955   */\n      dup2\n        /* \"#utility.yul\":945:985   */\n      add\n        /* \"#utility.yul\":1087:1093   */\n      dup2\n        /* \"#utility.yul\":1075:1085   */\n      dup2\n        /* \"#utility.yul\":1072:1094   */\n      lt\n        /* \"#utility.yul\":1051:1069   */\n      0xffffffffffffffff\n        /* \"#utility.yul\":1039:1049   */\n      dup3\n        /* \"#utility.yul\":1036:1070   */\n      gt\n        /* \"#utility.yul\":1033:1095   */\n      or\n        /* \"#utility.yul\":1030:1118   */\n      iszero\n      tag_182\n      jumpi\n        /* \"#utility.yul\":1098:1116   */\n      tag_183\n      tag_112\n      jump\t// in\n    tag_183:\n        /* \"#utility.yul\":1030:1118   */\n    tag_182:\n        /* \"#utility.yul\":1138:1148   */\n      dup1\n        /* \"#utility.yul\":1134:1136   */\n      0x40\n        /* \"#utility.yul\":1127:1149   */\n      mstore\n        /* \"#utility.yul\":917:1155   */\n      pop\n        /* \"#utility.yul\":874:1155   */\n      pop\n      pop\n      jump\t// out\n        /* \"#utility.yul\":1161:1290   */\n    tag_114:\n        /* \"#utility.yul\":1195:1201   */\n      0x00\n        /* \"#utility.yul\":1222:1242   */\n      tag_185\n      tag_106\n      jump\t// in\n    tag_185:\n        /* \"#utility.yul\":1212:1242   */\n      swap1\n      pop\n        /* \"#utility.yul\":1251:1284   */\n      tag_186\n        /* \"#utility.yul\":1279:1283   */\n      dup3\n        /* \"#utility.yul\":1271:1277   */\n      dup3\n        /* \"#utility.yul\":1251:1284   */\n      tag_113\n      jump\t// in\n    tag_186:\n        /* \"#utility.yul\":1161:1290   */\n      swap2\n      swap1\n      pop\n      jump\t// out\n        /* \"#utility.yul\":1296:1604   */\n    tag_115:\n        /* \"#utility.yul\":1358:1362   */\n      0x00\n        /* \"#utility.yul\":1448:1466   */\n      0xffffffffffffffff\n        /* \"#utility.yul\":1440:1446   */\n      dup3\n        /* \"#utility.yul\":1437:1467   */\n      gt\n        /* \"#utility.yul\":1434:1490   */\n      iszero\n      tag_188\n      jumpi\n        /* \"#utility.yul\":1470:1488   */\n      tag_189\n      tag_112\n      jump\t// in\n    tag_189:\n        /* \"#utility.yul\":1434:1490   */\n    tag_188:\n        /* \"#utility.yul\":1508:1537   */\n      tag_190\n        /* \"#utility.yul\":1530:1536   */\n      dup3\n        /* \"#utility.yul\":1508:1537   */\n      tag_111\n      jump\t// in\n    tag_190:\n        /* \"#utility.yul\":1500:1537   */\n      swap1\n      pop\n        /* \"#utility.yul\":1592:1596   */\n      0x20\n        /* \"#utility.yul\":1586:1590   */\n      dup2\n        /* \"#utility.yul\":1582:1597   */\n      add\n        /* \"#utility.yul\":1574:1597   */\n      swap1\n      pop\n        /* \"#utility.yul\":1296:1604   */\n      swap2\n      swap1\n      pop\n      jump\t// out\n        /* \"#utility.yul\":1610:1758   */\n    tag_116:\n        /* \"#utility.yul\":1708:1714   */\n      dup3\n        /* \"#utility.yul\":1703:1706   */\n      dup2\n        /* \"#utility.yul\":1698:1701   */\n      dup4\n        /* \"#utility.yul\":1685:1715   */\n      calldatacopy\n        /* \"#utility.yul\":1749:1750   */\n      0x00\n        /* \"#utility.yul\":1740:1746   */\n      dup4\n        /* \"#utility.yul\":1735:1738   */\n      dup4\n        /* \"#utility.yul\":1731:1747   */\n      add\n        /* \"#utility.yul\":1724:1751   */\n      mstore\n        /* \"#utility.yul\":1610:1758   */\n      pop\n      pop\n      pop\n      jump\t// out\n        /* \"#utility.yul\":1764:2189   */\n    tag_117:\n        /* \"#utility.yul\":1842:1847   */\n      0x00\n        /* \"#utility.yul\":1867:1933   */\n      tag_193\n        /* \"#utility.yul\":1883:1932   */\n      tag_194\n        /* \"#utility.yul\":1925:1931   */\n      dup5\n        /* \"#utility.yul\":1883:1932   */\n      tag_115\n      jump\t// in\n    tag_194:\n        /* \"#utility.yul\":1867:1933   */\n      tag_114\n      jump\t// in\n    tag_193:\n        /* \"#utility.yul\":1858:1933   */\n      swap1\n      pop\n        /* \"#utility.yul\":1956:1962   */\n      dup3\n        /* \"#utility.yul\":1949:1954   */\n      dup2\n        /* \"#utility.yul\":1942:1963   */\n      mstore\n        /* \"#utility.yul\":1994:1998   */\n      0x20\n        /* \"#utility.yul\":1987:1992   */\n      dup2\n        /* \"#utility.yul\":1983:1999   */\n      add\n        /* \"#utility.yul\":2032:2035   */\n      dup5\n        /* \"#utility.yul\":2023:2029   */\n      dup5\n        /* \"#utility.yul\":2018:2021   */\n      dup5\n        /* \"#utility.yul\":2014:2030   */\n      add\n        /* \"#utility.yul\":2011:2036   */\n      gt\n        /* \"#utility.yul\":2008:2120   */\n      iszero\n      tag_195\n      jumpi\n        /* \"#utility.yul\":2039:2118   */\n      tag_196\n      tag_110\n      jump\t// in\n    tag_196:\n        /* \"#utility.yul\":2008:2120   */\n    tag_195:\n        /* \"#utility.yul\":2129:2183   */\n      tag_197\n        /* \"#utility.yul\":2176:2182   */\n      dup5\n        /* \"#utility.yul\":2171:2174   */\n      dup3\n        /* \"#utility.yul\":2166:2169   */\n      dup6\n        /* \"#utility.yul\":2129:2183   */\n      tag_116\n      jump\t// in\n    tag_197:\n        /* \"#utility.yul\":1848:2189   */\n      pop\n        /* \"#utility.yul\":1764:2189   */\n      swap4\n      swap3\n      pop\n      pop\n      pop\n      jump\t// out\n        /* \"#utility.yul\":2209:2549   */\n    tag_118:\n        /* \"#utility.yul\":2265:2270   */\n      0x00\n        /* \"#utility.yul\":2314:2317   */\n      dup3\n        /* \"#utility.yul\":2307:2311   */\n      0x1f\n        /* \"#utility.yul\":2299:2305   */\n      dup4\n        /* \"#utility.yul\":2295:2312   */\n      add\n        /* \"#utility.yul\":2291:2318   */\n      slt\n        /* \"#utility.yul\":2281:2403   */\n      tag_199\n      jumpi\n        /* \"#utility.yul\":2322:2401   */\n      tag_200\n      tag_109\n      jump\t// in\n    tag_200:\n        /* \"#utility.yul\":2281:2403   */\n    tag_199:\n        /* \"#utility.yul\":2439:2445   */\n      dup2\n        /* \"#utility.yul\":2426:2446   */\n      calldataload\n        /* \"#utility.yul\":2464:2543   */\n      tag_201\n        /* \"#utility.yul\":2539:2542   */\n      dup5\n        /* \"#utility.yul\":2531:2537   */\n      dup3\n        /* \"#utility.yul\":2524:2528   */\n      0x20\n        /* \"#utility.yul\":2516:2522   */\n      dup7\n        /* \"#utility.yul\":2512:2529   */\n      add\n        /* \"#utility.yul\":2464:2543   */\n      tag_117\n      jump\t// in\n    tag_201:\n        /* \"#utility.yul\":2455:2543   */\n      swap2\n      pop\n        /* \"#utility.yul\":2271:2549   */\n      pop\n        /* \"#utility.yul\":2209:2549   */\n      swap3\n      swap2\n      pop\n      pop\n      jump\t// out\n        /* \"#utility.yul\":2555:2681   */\n    tag_119:\n        /* \"#utility.yul\":2592:2599   */\n      0x00\n        /* \"#utility.yul\":2632:2674   */\n      0xffffffffffffffffffffffffffffffffffffffff\n        /* \"#utility.yul\":2625:2630   */\n      dup3\n        /* \"#utility.yul\":2621:2675   */\n      and\n        /* \"#utility.yul\":2610:2675   */\n      swap1\n      pop\n        /* \"#utility.yul\":2555:2681   */\n      swap2\n      swap1\n      pop\n      jump\t// out\n        /* \"#utility.yul\":2687:2783   */\n    tag_120:\n        /* \"#utility.yul\":2724:2731   */\n      0x00\n        /* \"#utility.yul\":2753:2777   */\n      tag_204\n        /* \"#utility.yul\":2771:2776   */\n      dup3\n        /* \"#utility.yul\":2753:2777   */\n      tag_119\n      jump\t// in\n    tag_204:\n        /* \"#utility.yul\":2742:2777   */\n      swap1\n      pop\n        /* \"#utility.yul\":2687:2783   */\n      swap2\n      swap1\n      pop\n      jump\t// out\n        /* \"#utility.yul\":2789:2911   */\n    tag_121:\n        /* \"#utility.yul\":2862:2886   */\n      tag_206\n        /* \"#utility.yul\":2880:2885   */\n      dup2\n        /* \"#utility.yul\":2862:2886   */\n      tag_120\n      jump\t// in\n    tag_206:\n        /* \"#utility.yul\":2855:2860   */\n      dup2\n        /* \"#utility.yul\":2852:2887   */\n      eq\n        /* \"#utility.yul\":2842:2905   */\n      tag_207\n      jumpi\n        /* \"#utility.yul\":2901:2902   */\n      0x00\n        /* \"#utility.yul\":2898:2899   */\n      0x00\n        /* \"#utility.yul\":2891:2903   */\n      revert\n        /* \"#utility.yul\":2842:2905   */\n    tag_207:\n        /* \"#utility.yul\":2789:2911   */\n      pop\n      jump\t// out\n        /* \"#utility.yul\":2917:3056   */\n    tag_122:\n        /* \"#utility.yul\":2963:2968   */\n      0x00\n        /* \"#utility.yul\":3001:3007   */\n      dup2\n        /* \"#utility.yul\":2988:3008   */\n      calldataload\n        /* \"#utility.yul\":2979:3008   */\n      swap1\n      pop\n        /* \"#utility.yul\":3017:3050   */\n      tag_209\n        /* \"#utility.yul\":3044:3049   */\n      dup2\n        /* \"#utility.yul\":3017:3050   */\n      tag_121\n      jump\t// in\n    tag_209:\n        /* \"#utility.yul\":2917:3056   */\n      swap3\n      swap2\n      pop\n      pop\n      jump\t// out\n        /* \"#utility.yul\":3062:3716   */\n    tag_13:\n        /* \"#utility.yul\":3140:3146   */\n      0x00\n        /* \"#utility.yul\":3148:3154   */\n      0x00\n        /* \"#utility.yul\":3197:3199   */\n      0x40\n        /* \"#utility.yul\":3185:3194   */\n      dup4\n        /* \"#utility.yul\":3176:3183   */\n      dup6\n        /* \"#utility.yul\":3172:3195   */\n      sub\n        /* \"#utility.yul\":3168:3200   */\n      slt\n        /* \"#utility.yul\":3165:3284   */\n      iszero\n      tag_211\n      jumpi\n        /* \"#utility.yul\":3203:3282   */\n      tag_212\n      tag_107\n      jump\t// in\n    tag_212:\n        /* \"#utility.yul\":3165:3284   */\n    tag_211:\n        /* \"#utility.yul\":3351:3352   */\n      0x00\n        /* \"#utility.yul\":3340:3349   */\n      dup4\n        /* \"#utility.yul\":3336:3353   */\n      add\n        /* \"#utility.yul\":3323:3354   */\n      calldataload\n        /* \"#utility.yul\":3381:3399   */\n      0xffffffffffffffff\n        /* \"#utility.yul\":3373:3379   */\n      dup2\n        /* \"#utility.yul\":3370:3400   */\n      gt\n        /* \"#utility.yul\":3367:3484   */\n      iszero\n      tag_213\n      jumpi\n        /* \"#utility.yul\":3403:3482   */\n      tag_214\n      tag_108\n      jump\t// in\n    tag_214:\n        /* \"#utility.yul\":3367:3484   */\n    tag_213:\n        /* \"#utility.yul\":3508:3571   */\n      tag_215\n        /* \"#utility.yul\":3563:3570   */\n      dup6\n        /* \"#utility.yul\":3554:3560   */\n      dup3\n        /* \"#utility.yul\":3543:3552   */\n      dup7\n        /* \"#utility.yul\":3539:3561   */\n      add\n        /* \"#utility.yul\":3508:3571   */\n      tag_118\n      jump\t// in\n    tag_215:\n        /* \"#utility.yul\":3498:3571   */\n      swap3\n      pop\n        /* \"#utility.yul\":3294:3581   */\n      pop\n        /* \"#utility.yul\":3620:3622   */\n      0x20\n        /* \"#utility.yul\":3646:3699   */\n      tag_216\n        /* \"#utility.yul\":3691:3698   */\n      dup6\n        /* \"#utility.yul\":3682:3688   */\n      dup3\n        /* \"#utility.yul\":3671:3680   */\n      dup7\n        /* \"#utility.yul\":3667:3689   */\n      add\n        /* \"#utility.yul\":3646:3699   */\n      tag_122\n      jump\t// in\n    tag_216:\n        /* \"#utility.yul\":3636:3699   */\n      swap2\n      pop\n        /* \"#utility.yul\":3591:3709   */\n      pop\n        /* \"#utility.yul\":3062:3716   */\n      swap3\n      pop\n      swap3\n      swap1\n      pop\n      jump\t// out\n        /* \"#utility.yul\":3722:3812   */\n    tag_123:\n        /* \"#utility.yul\":3756:3763   */\n      0x00\n        /* \"#utility.yul\":3799:3804   */\n      dup2\n        /* \"#utility.yul\":3792:3805   */\n      iszero\n        /* \"#utility.yul\":3785:3806   */\n      iszero\n        /* \"#utility.yul\":3774:3806   */\n      swap1\n      pop\n        /* \"#utility.yul\":3722:3812   */\n      swap2\n      swap1\n      pop\n      jump\t// out\n        /* \"#utility.yul\":3818:3927   */\n    tag_124:\n        /* \"#utility.yul\":3899:3920   */\n      tag_219\n        /* \"#utility.yul\":3914:3919   */\n      dup2\n        /* \"#utility.yul\":3899:3920   */\n      tag_123\n      jump\t// in\n    tag_219:\n        /* \"#utility.yul\":3894:3897   */\n      dup3\n        /* \"#utility.yul\":3887:3921   */\n      mstore\n        /* \"#utility.yul\":3818:3927   */\n      pop\n      pop\n      jump\t// out\n        /* \"#utility.yul\":3933:4143   */\n    tag_16:\n        /* \"#utility.yul\":4020:4024   */\n      0x00\n        /* \"#utility.yul\":4058:4060   */\n      0x20\n        /* \"#utility.yul\":4047:4056   */\n      dup3\n        /* \"#utility.yul\":4043:4061   */\n      add\n        /* \"#utility.yul\":4035:4061   */\n      swap1\n      pop\n        /* \"#utility.yul\":4071:4136   */\n      tag_221\n        /* \"#utility.yul\":4133:4134   */\n      0x00\n        /* \"#utility.yul\":4122:4131   */\n      dup4\n        /* \"#utility.yul\":4118:4135   */\n      add\n        /* \"#utility.yul\":4109:4115   */\n      dup5\n        /* \"#utility.yul\":4071:4136   */\n      tag_124\n      jump\t// in\n    tag_221:\n        /* \"#utility.yul\":3933:4143   */\n      swap3\n      swap2\n      pop\n      pop\n      jump\t// out\n        /* \"#utility.yul\":4149:4266   */\n    tag_125:\n        /* \"#utility.yul\":4258:4259   */\n      0x00\n        /* \"#utility.yul\":4255:4256   */\n      0x00\n        /* \"#utility.yul\":4248:4260   */\n      revert\n        /* \"#utility.yul\":4272:4389   */\n    tag_126:\n        /* \"#utility.yul\":4381:4382   */\n      0x00\n        /* \"#utility.yul\":4378:4379   */\n      0x00\n        /* \"#utility.yul\":4371:4383   */\n      revert\n        /* \"#utility.yul\":4409:4962   */\n    tag_127:\n        /* \"#utility.yul\":4467:4475   */\n      0x00\n        /* \"#utility.yul\":4477:4483   */\n      0x00\n        /* \"#utility.yul\":4527:4530   */\n      dup4\n        /* \"#utility.yul\":4520:4524   */\n      0x1f\n        /* \"#utility.yul\":4512:4518   */\n      dup5\n        /* \"#utility.yul\":4508:4525   */\n      add\n        /* \"#utility.yul\":4504:4531   */\n      slt\n        /* \"#utility.yul\":4494:4616   */\n      tag_225\n      jumpi\n        /* \"#utility.yul\":4535:4614   */\n      tag_226\n      tag_109\n      jump\t// in\n    tag_226:\n        /* \"#utility.yul\":4494:4616   */\n    tag_225:\n        /* \"#utility.yul\":4648:4654   */\n      dup3\n        /* \"#utility.yul\":4635:4655   */\n      calldataload\n        /* \"#utility.yul\":4625:4655   */\n      swap1\n      pop\n        /* \"#utility.yul\":4678:4696   */\n      0xffffffffffffffff\n        /* \"#utility.yul\":4670:4676   */\n      dup2\n        /* \"#utility.yul\":4667:4697   */\n      gt\n        /* \"#utility.yul\":4664:4781   */\n      iszero\n      tag_227\n      jumpi\n        /* \"#utility.yul\":4700:4779   */\n      tag_228\n      tag_125\n      jump\t// in\n    tag_228:\n        /* \"#utility.yul\":4664:4781   */\n    tag_227:\n        /* \"#utility.yul\":4814:4818   */\n      0x20\n        /* \"#utility.yul\":4806:4812   */\n      dup4\n        /* \"#utility.yul\":4802:4819   */\n      add\n        /* \"#utility.yul\":4790:4819   */\n      swap2\n      pop\n        /* \"#utility.yul\":4868:4871   */\n      dup4\n        /* \"#utility.yul\":4860:4864   */\n      0x01\n        /* \"#utility.yul\":4852:4858   */\n      dup3\n        /* \"#utility.yul\":4848:4865   */\n      mul\n        /* \"#utility.yul\":4838:4846   */\n      dup4\n        /* \"#utility.yul\":4834:4866   */\n      add\n        /* \"#utility.yul\":4831:4872   */\n      gt\n        /* \"#utility.yul\":4828:4956   */\n      iszero\n      tag_229\n      jumpi\n        /* \"#utility.yul\":4875:4954   */\n      tag_230\n      tag_126\n      jump\t// in\n    tag_230:\n        /* \"#utility.yul\":4828:4956   */\n    tag_229:\n        /* \"#utility.yul\":4409:4962   */\n      swap3\n      pop\n      swap3\n      swap1\n      pop\n      jump\t// out\n        /* \"#utility.yul\":4968:5497   */\n    tag_22:\n        /* \"#utility.yul\":5039:5045   */\n      0x00\n        /* \"#utility.yul\":5047:5053   */\n      0x00\n        /* \"#utility.yul\":5096:5098   */\n      0x20\n        /* \"#utility.yul\":5084:5093   */\n      dup4\n        /* \"#utility.yul\":5075:5082   */\n      dup6\n        /* \"#utility.yul\":5071:5094   */\n      sub\n        /* \"#utility.yul\":5067:5099   */\n      slt\n        /* \"#utility.yul\":5064:5183   */\n      iszero\n      tag_232\n      jumpi\n        /* \"#utility.yul\":5102:5181   */\n      tag_233\n      tag_107\n      jump\t// in\n    tag_233:\n        /* \"#utility.yul\":5064:5183   */\n    tag_232:\n        /* \"#utility.yul\":5250:5251   */\n      0x00\n        /* \"#utility.yul\":5239:5248   */\n      dup4\n        /* \"#utility.yul\":5235:5252   */\n      add\n        /* \"#utility.yul\":5222:5253   */\n      calldataload\n        /* \"#utility.yul\":5280:5298   */\n      0xffffffffffffffff\n        /* \"#utility.yul\":5272:5278   */\n      dup2\n        /* \"#utility.yul\":5269:5299   */\n      gt\n        /* \"#utility.yul\":5266:5383   */\n      iszero\n      tag_234\n      jumpi\n        /* \"#utility.yul\":5302:5381   */\n      tag_235\n      tag_108\n      jump\t// in\n    tag_235:\n        /* \"#utility.yul\":5266:5383   */\n    tag_234:\n        /* \"#utility.yul\":5415:5480   */\n      tag_236\n        /* \"#utility.yul\":5472:5479   */\n      dup6\n        /* \"#utility.yul\":5463:5469   */\n      dup3\n        /* \"#utility.yul\":5452:5461   */\n      dup7\n        /* \"#utility.yul\":5448:5470   */\n      add\n        /* \"#utility.yul\":5415:5480   */\n      tag_127\n      jump\t// in\n    tag_236:\n        /* \"#utility.yul\":5397:5480   */\n      swap3\n      pop\n      swap3\n      pop\n        /* \"#utility.yul\":5193:5490   */\n      pop\n        /* \"#utility.yul\":4968:5497   */\n      swap3\n      pop\n      swap3\n      swap1\n      pop\n      jump\t// out\n        /* \"#utility.yul\":5503:5602   */\n    tag_128:\n        /* \"#utility.yul\":5555:5561   */\n      0x00\n        /* \"#utility.yul\":5589:5594   */\n      dup2\n        /* \"#utility.yul\":5583:5595   */\n      mload\n        /* \"#utility.yul\":5573:5595   */\n      swap1\n      pop\n        /* \"#utility.yul\":5503:5602   */\n      swap2\n      swap1\n      pop\n      jump\t// out\n        /* \"#utility.yul\":5608:5767   */\n    tag_129:\n        /* \"#utility.yul\":5682:5693   */\n      0x00\n        /* \"#utility.yul\":5716:5722   */\n      dup3\n        /* \"#utility.yul\":5711:5714   */\n      dup3\n        /* \"#utility.yul\":5704:5723   */\n      mstore\n        /* \"#utility.yul\":5756:5760   */\n      0x20\n        /* \"#utility.yul\":5751:5754   */\n      dup3\n        /* \"#utility.yul\":5747:5761   */\n      add\n        /* \"#utility.yul\":5732:5761   */\n      swap1\n      pop\n        /* \"#utility.yul\":5608:5767   */\n      swap3\n      swap2\n      pop\n      pop\n      jump\t// out\n        /* \"#utility.yul\":5773:5912   */\n    tag_130:\n        /* \"#utility.yul\":5862:5868   */\n      dup3\n        /* \"#utility.yul\":5857:5860   */\n      dup2\n        /* \"#utility.yul\":5852:5855   */\n      dup4\n        /* \"#utility.yul\":5846:5869   */\n      mcopy\n        /* \"#utility.yul\":5903:5904   */\n      0x00\n        /* \"#utility.yul\":5894:5900   */\n      dup4\n        /* \"#utility.yul\":5889:5892   */\n      dup4\n        /* \"#utility.yul\":5885:5901   */\n      add\n        /* \"#utility.yul\":5878:5905   */\n      mstore\n        /* \"#utility.yul\":5773:5912   */\n      pop\n      pop\n      pop\n      jump\t// out\n        /* \"#utility.yul\":5918:6275   */\n    tag_131:\n        /* \"#utility.yul\":5996:5999   */\n      0x00\n        /* \"#utility.yul\":6024:6063   */\n      tag_241\n        /* \"#utility.yul\":6057:6062   */\n      dup3\n        /* \"#utility.yul\":6024:6063   */\n      tag_128\n      jump\t// in\n    tag_241:\n        /* \"#utility.yul\":6079:6140   */\n      tag_242\n        /* \"#utility.yul\":6133:6139   */\n      dup2\n        /* \"#utility.yul\":6128:6131   */\n      dup6\n        /* \"#utility.yul\":6079:6140   */\n      tag_129\n      jump\t// in\n    tag_242:\n        /* \"#utility.yul\":6072:6140   */\n      swap4\n      pop\n        /* \"#utility.yul\":6149:6214   */\n      tag_243\n        /* \"#utility.yul\":6207:6213   */\n      dup2\n        /* \"#utility.yul\":6202:6205   */\n      dup6\n        /* \"#utility.yul\":6195:6199   */\n      0x20\n        /* \"#utility.yul\":6188:6193   */\n      dup7\n        /* \"#utility.yul\":6184:6200   */\n      add\n        /* \"#utility.yul\":6149:6214   */\n      tag_130\n      jump\t// in\n    tag_243:\n        /* \"#utility.yul\":6239:6268   */\n      tag_244\n        /* \"#utility.yul\":6261:6267   */\n      dup2\n        /* \"#utility.yul\":6239:6268   */\n      tag_111\n      jump\t// in\n    tag_244:\n        /* \"#utility.yul\":6234:6237   */\n      dup5\n        /* \"#utility.yul\":6230:6269   */\n      add\n        /* \"#utility.yul\":6223:6269   */\n      swap2\n      pop\n        /* \"#utility.yul\":6000:6275   */\n      pop\n        /* \"#utility.yul\":5918:6275   */\n      swap3\n      swap2\n      pop\n      pop\n      jump\t// out\n        /* \"#utility.yul\":6281:6389   */\n    tag_132:\n        /* \"#utility.yul\":6358:6382   */\n      tag_246\n        /* \"#utility.yul\":6376:6381   */\n      dup2\n        /* \"#utility.yul\":6358:6382   */\n      tag_120\n      jump\t// in\n    tag_246:\n        /* \"#utility.yul\":6353:6356   */\n      dup3\n        /* \"#utility.yul\":6346:6383   */\n      mstore\n        /* \"#utility.yul\":6281:6389   */\n      pop\n      pop\n      jump\t// out\n        /* \"#utility.yul\":6395:6472   */\n    tag_133:\n        /* \"#utility.yul\":6432:6439   */\n      0x00\n        /* \"#utility.yul\":6461:6466   */\n      dup2\n        /* \"#utility.yul\":6450:6466   */\n      swap1\n      pop\n        /* \"#utility.yul\":6395:6472   */\n      swap2\n      swap1\n      pop\n      jump\t// out\n        /* \"#utility.yul\":6478:6586   */\n    tag_134:\n        /* \"#utility.yul\":6555:6579   */\n      tag_249\n        /* \"#utility.yul\":6573:6578   */\n      dup2\n        /* \"#utility.yul\":6555:6579   */\n      tag_133\n      jump\t// in\n    tag_249:\n        /* \"#utility.yul\":6550:6553   */\n      dup3\n        /* \"#utility.yul\":6543:6580   */\n      mstore\n        /* \"#utility.yul\":6478:6586   */\n      pop\n      pop\n      jump\t// out\n        /* \"#utility.yul\":6648:7415   */\n    tag_135:\n        /* \"#utility.yul\":6755:6758   */\n      0x00\n        /* \"#utility.yul\":6791:6795   */\n      0x60\n        /* \"#utility.yul\":6786:6789   */\n      dup4\n        /* \"#utility.yul\":6782:6796   */\n      add\n        /* \"#utility.yul\":6877:6881   */\n      0x00\n        /* \"#utility.yul\":6870:6875   */\n      dup4\n        /* \"#utility.yul\":6866:6882   */\n      add\n        /* \"#utility.yul\":6860:6883   */\n      mload\n        /* \"#utility.yul\":6930:6933   */\n      dup5\n        /* \"#utility.yul\":6924:6928   */\n      dup3\n        /* \"#utility.yul\":6920:6934   */\n      sub\n        /* \"#utility.yul\":6913:6917   */\n      0x00\n        /* \"#utility.yul\":6908:6911   */\n      dup7\n        /* \"#utility.yul\":6904:6918   */\n      add\n        /* \"#utility.yul\":6897:6935   */\n      mstore\n        /* \"#utility.yul\":6956:7029   */\n      tag_251\n        /* \"#utility.yul\":7024:7028   */\n      dup3\n        /* \"#utility.yul\":7010:7022   */\n      dup3\n        /* \"#utility.yul\":6956:7029   */\n      tag_131\n      jump\t// in\n    tag_251:\n        /* \"#utility.yul\":6948:7029   */\n      swap2\n      pop\n        /* \"#utility.yul\":6806:7040   */\n      pop\n        /* \"#utility.yul\":7123:7127   */\n      0x20\n        /* \"#utility.yul\":7116:7121   */\n      dup4\n        /* \"#utility.yul\":7112:7128   */\n      add\n        /* \"#utility.yul\":7106:7129   */\n      mload\n        /* \"#utility.yul\":7142:7205   */\n      tag_252\n        /* \"#utility.yul\":7199:7203   */\n      0x20\n        /* \"#utility.yul\":7194:7197   */\n      dup7\n        /* \"#utility.yul\":7190:7204   */\n      add\n        /* \"#utility.yul\":7176:7188   */\n      dup3\n        /* \"#utility.yul\":7142:7205   */\n      tag_132\n      jump\t// in\n    tag_252:\n        /* \"#utility.yul\":7050:7215   */\n      pop\n        /* \"#utility.yul\":7296:7300   */\n      0x40\n        /* \"#utility.yul\":7289:7294   */\n      dup4\n        /* \"#utility.yul\":7285:7301   */\n      add\n        /* \"#utility.yul\":7279:7302   */\n      mload\n        /* \"#utility.yul\":7315:7378   */\n      tag_253\n        /* \"#utility.yul\":7372:7376   */\n      0x40\n        /* \"#utility.yul\":7367:7370   */\n      dup7\n        /* \"#utility.yul\":7363:7377   */\n      add\n        /* \"#utility.yul\":7349:7361   */\n      dup3\n        /* \"#utility.yul\":7315:7378   */\n      tag_134\n      jump\t// in\n    tag_253:\n        /* \"#utility.yul\":7225:7388   */\n      pop\n        /* \"#utility.yul\":7405:7409   */\n      dup1\n        /* \"#utility.yul\":7398:7409   */\n      swap2\n      pop\n        /* \"#utility.yul\":6760:7415   */\n      pop\n        /* \"#utility.yul\":6648:7415   */\n      swap3\n      swap2\n      pop\n      pop\n      jump\t// out\n        /* \"#utility.yul\":7421:7770   */\n    tag_29:\n        /* \"#utility.yul\":7552:7556   */\n      0x00\n        /* \"#utility.yul\":7590:7592   */\n      0x20\n        /* \"#utility.yul\":7579:7588   */\n      dup3\n        /* \"#utility.yul\":7575:7593   */\n      add\n        /* \"#utility.yul\":7567:7593   */\n      swap1\n      pop\n        /* \"#utility.yul\":7639:7648   */\n      dup2\n        /* \"#utility.yul\":7633:7637   */\n      dup2\n        /* \"#utility.yul\":7629:7649   */\n      sub\n        /* \"#utility.yul\":7625:7626   */\n      0x00\n        /* \"#utility.yul\":7614:7623   */\n      dup4\n        /* \"#utility.yul\":7610:7627   */\n      add\n        /* \"#utility.yul\":7603:7650   */\n      mstore\n        /* \"#utility.yul\":7667:7763   */\n      tag_255\n        /* \"#utility.yul\":7758:7762   */\n      dup2\n        /* \"#utility.yul\":7749:7755   */\n      dup5\n        /* \"#utility.yul\":7667:7763   */\n      tag_135\n      jump\t// in\n    tag_255:\n        /* \"#utility.yul\":7659:7763   */\n      swap1\n      pop\n        /* \"#utility.yul\":7421:7770   */\n      swap3\n      swap2\n      pop\n      pop\n      jump\t// out\n        /* \"#utility.yul\":7776:7894   */\n    tag_136:\n        /* \"#utility.yul\":7863:7887   */\n      tag_257\n        /* \"#utility.yul\":7881:7886   */\n      dup2\n        /* \"#utility.yul\":7863:7887   */\n      tag_133\n      jump\t// in\n    tag_257:\n        /* \"#utility.yul\":7858:7861   */\n      dup3\n        /* \"#utility.yul\":7851:7888   */\n      mstore\n        /* \"#utility.yul\":7776:7894   */\n      pop\n      pop\n      jump\t// out\n        /* \"#utility.yul\":7900:8122   */\n    tag_34:\n        /* \"#utility.yul\":7993:7997   */\n      0x00\n        /* \"#utility.yul\":8031:8033   */\n      0x20\n        /* \"#utility.yul\":8020:8029   */\n      dup3\n        /* \"#utility.yul\":8016:8034   */\n      add\n        /* \"#utility.yul\":8008:8034   */\n      swap1\n      pop\n        /* \"#utility.yul\":8044:8115   */\n      tag_259\n        /* \"#utility.yul\":8112:8113   */\n      0x00\n        /* \"#utility.yul\":8101:8110   */\n      dup4\n        /* \"#utility.yul\":8097:8114   */\n      add\n        /* \"#utility.yul\":8088:8094   */\n      dup5\n        /* \"#utility.yul\":8044:8115   */\n      tag_136\n      jump\t// in\n    tag_259:\n        /* \"#utility.yul\":7900:8122   */\n      swap3\n      swap2\n      pop\n      pop\n      jump\t// out\n        /* \"#utility.yul\":8128:8246   */\n    tag_137:\n        /* \"#utility.yul\":8215:8239   */\n      tag_261\n        /* \"#utility.yul\":8233:8238   */\n      dup2\n        /* \"#utility.yul\":8215:8239   */\n      tag_120\n      jump\t// in\n    tag_261:\n        /* \"#utility.yul\":8210:8213   */\n      dup3\n        /* \"#utility.yul\":8203:8240   */\n      mstore\n        /* \"#utility.yul\":8128:8246   */\n      pop\n      pop\n      jump\t// out\n        /* \"#utility.yul\":8252:8474   */\n    tag_39:\n        /* \"#utility.yul\":8345:8349   */\n      0x00\n        /* \"#utility.yul\":8383:8385   */\n      0x20\n        /* \"#utility.yul\":8372:8381   */\n      dup3\n        /* \"#utility.yul\":8368:8386   */\n      add\n        /* \"#utility.yul\":8360:8386   */\n      swap1\n      pop\n        /* \"#utility.yul\":8396:8467   */\n      tag_263\n        /* \"#utility.yul\":8464:8465   */\n      0x00\n        /* \"#utility.yul\":8453:8462   */\n      dup4\n        /* \"#utility.yul\":8449:8466   */\n      add\n        /* \"#utility.yul\":8440:8446   */\n      dup5\n        /* \"#utility.yul\":8396:8467   */\n      tag_137\n      jump\t// in\n    tag_263:\n        /* \"#utility.yul\":8252:8474   */\n      swap3\n      swap2\n      pop\n      pop\n      jump\t// out\n        /* \"#utility.yul\":8480:8602   */\n    tag_138:\n        /* \"#utility.yul\":8553:8577   */\n      tag_265\n        /* \"#utility.yul\":8571:8576   */\n      dup2\n        /* \"#utility.yul\":8553:8577   */\n      tag_133\n      jump\t// in\n    tag_265:\n        /* \"#utility.yul\":8546:8551   */\n      dup2\n        /* \"#utility.yul\":8543:8578   */\n      eq\n        /* \"#utility.yul\":8533:8596   */\n      tag_266\n      jumpi\n        /* \"#utility.yul\":8592:8593   */\n      0x00\n        /* \"#utility.yul\":8589:8590   */\n      0x00\n        /* \"#utility.yul\":8582:8594   */\n      revert\n        /* \"#utility.yul\":8533:8596   */\n    tag_266:\n        /* \"#utility.yul\":8480:8602   */\n      pop\n      jump\t// out\n        /* \"#utility.yul\":8608:8747   */\n    tag_139:\n        /* \"#utility.yul\":8654:8659   */\n      0x00\n        /* \"#utility.yul\":8692:8698   */\n      dup2\n        /* \"#utility.yul\":8679:8699   */\n      calldataload\n        /* \"#utility.yul\":8670:8699   */\n      swap1\n      pop\n        /* \"#utility.yul\":8708:8741   */\n      tag_268\n        /* \"#utility.yul\":8735:8740   */\n      dup2\n        /* \"#utility.yul\":8708:8741   */\n      tag_138\n      jump\t// in\n    tag_268:\n        /* \"#utility.yul\":8608:8747   */\n      swap3\n      swap2\n      pop\n      pop\n      jump\t// out\n        /* \"#utility.yul\":8753:9772   */\n    tag_43:\n        /* \"#utility.yul\":8854:8860   */\n      0x00\n        /* \"#utility.yul\":8862:8868   */\n      0x00\n        /* \"#utility.yul\":8870:8876   */\n      0x00\n        /* \"#utility.yul\":8878:8884   */\n      0x00\n        /* \"#utility.yul\":8886:8892   */\n      0x00\n        /* \"#utility.yul\":8935:8937   */\n      0x60\n        /* \"#utility.yul\":8923:8932   */\n      dup7\n        /* \"#utility.yul\":8914:8921   */\n      dup9\n        /* \"#utility.yul\":8910:8933   */\n      sub\n        /* \"#utility.yul\":8906:8938   */\n      slt\n        /* \"#utility.yul\":8903:9022   */\n      iszero\n      tag_270\n      jumpi\n        /* \"#utility.yul\":8941:9020   */\n      tag_271\n      tag_107\n      jump\t// in\n    tag_271:\n        /* \"#utility.yul\":8903:9022   */\n    tag_270:\n        /* \"#utility.yul\":9089:9090   */\n      0x00\n        /* \"#utility.yul\":9078:9087   */\n      dup7\n        /* \"#utility.yul\":9074:9091   */\n      add\n        /* \"#utility.yul\":9061:9092   */\n      calldataload\n        /* \"#utility.yul\":9119:9137   */\n      0xffffffffffffffff\n        /* \"#utility.yul\":9111:9117   */\n      dup2\n        /* \"#utility.yul\":9108:9138   */\n      gt\n        /* \"#utility.yul\":9105:9222   */\n      iszero\n      tag_272\n      jumpi\n        /* \"#utility.yul\":9141:9220   */\n      tag_273\n      tag_108\n      jump\t// in\n    tag_273:\n        /* \"#utility.yul\":9105:9222   */\n    tag_272:\n        /* \"#utility.yul\":9254:9319   */\n      tag_274\n        /* \"#utility.yul\":9311:9318   */\n      dup9\n        /* \"#utility.yul\":9302:9308   */\n      dup3\n        /* \"#utility.yul\":9291:9300   */\n      dup10\n        /* \"#utility.yul\":9287:9309   */\n      add\n        /* \"#utility.yul\":9254:9319   */\n      tag_127\n      jump\t// in\n    tag_274:\n        /* \"#utility.yul\":9236:9319   */\n      swap6\n      pop\n      swap6\n      pop\n        /* \"#utility.yul\":9032:9329   */\n      pop\n        /* \"#utility.yul\":9396:9398   */\n      0x20\n        /* \"#utility.yul\":9385:9394   */\n      dup7\n        /* \"#utility.yul\":9381:9399   */\n      add\n        /* \"#utility.yul\":9368:9400   */\n      calldataload\n        /* \"#utility.yul\":9427:9445   */\n      0xffffffffffffffff\n        /* \"#utility.yul\":9419:9425   */\n      dup2\n        /* \"#utility.yul\":9416:9446   */\n      gt\n        /* \"#utility.yul\":9413:9530   */\n      iszero\n      tag_275\n      jumpi\n        /* \"#utility.yul\":9449:9528   */\n      tag_276\n      tag_108\n      jump\t// in\n    tag_276:\n        /* \"#utility.yul\":9413:9530   */\n    tag_275:\n        /* \"#utility.yul\":9562:9627   */\n      tag_277\n        /* \"#utility.yul\":9619:9626   */\n      dup9\n        /* \"#utility.yul\":9610:9616   */\n      dup3\n        /* \"#utility.yul\":9599:9608   */\n      dup10\n        /* \"#utility.yul\":9595:9617   */\n      add\n        /* \"#utility.yul\":9562:9627   */\n      tag_127\n      jump\t// in\n    tag_277:\n        /* \"#utility.yul\":9544:9627   */\n      swap4\n      pop\n      swap4\n      pop\n        /* \"#utility.yul\":9339:9637   */\n      pop\n        /* \"#utility.yul\":9676:9678   */\n      0x40\n        /* \"#utility.yul\":9702:9755   */\n      tag_278\n        /* \"#utility.yul\":9747:9754   */\n      dup9\n        /* \"#utility.yul\":9738:9744   */\n      dup3\n        /* \"#utility.yul\":9727:9736   */\n      dup10\n        /* \"#utility.yul\":9723:9745   */\n      add\n        /* \"#utility.yul\":9702:9755   */\n      tag_139\n      jump\t// in\n    tag_278:\n        /* \"#utility.yul\":9692:9755   */\n      swap2\n      pop\n        /* \"#utility.yul\":9647:9765   */\n      pop\n        /* \"#utility.yul\":8753:9772   */\n      swap3\n      swap6\n      pop\n      swap3\n      swap6\n      swap1\n      swap4\n      pop\n      jump\t// out\n        /* \"#utility.yul\":9778:9947   */\n    tag_140:\n        /* \"#utility.yul\":9862:9873   */\n      0x00\n        /* \"#utility.yul\":9896:9902   */\n      dup3\n        /* \"#utility.yul\":9891:9894   */\n      dup3\n        /* \"#utility.yul\":9884:9903   */\n      mstore\n        /* \"#utility.yul\":9936:9940   */\n      0x20\n        /* \"#utility.yul\":9931:9934   */\n      dup3\n        /* \"#utility.yul\":9927:9941   */\n      add\n        /* \"#utility.yul\":9912:9941   */\n      swap1\n      pop\n        /* \"#utility.yul\":9778:9947   */\n      swap3\n      swap2\n      pop\n      pop\n      jump\t// out\n        /* \"#utility.yul\":9953:10134   */\n    tag_141:\n        /* \"#utility.yul\":10093:10126   */\n      0x4f6e6c792061646d696e2063616e2077697468647261772066756e6473212100\n        /* \"#utility.yul\":10089:10090   */\n      0x00\n        /* \"#utility.yul\":10081:10087   */\n      dup3\n        /* \"#utility.yul\":10077:10091   */\n      add\n        /* \"#utility.yul\":10070:10127   */\n      mstore\n        /* \"#utility.yul\":9953:10134   */\n      pop\n      jump\t// out\n        /* \"#utility.yul\":10140:10506   */\n    tag_142:\n        /* \"#utility.yul\":10282:10285   */\n      0x00\n        /* \"#utility.yul\":10303:10370   */\n      tag_282\n        /* \"#utility.yul\":10367:10369   */\n      0x1f\n        /* \"#utility.yul\":10362:10365   */\n      dup4\n        /* \"#utility.yul\":10303:10370   */\n      tag_140\n      jump\t// in\n    tag_282:\n        /* \"#utility.yul\":10296:10370   */\n      swap2\n      pop\n        /* \"#utility.yul\":10379:10472   */\n      tag_283\n        /* \"#utility.yul\":10468:10471   */\n      dup3\n        /* \"#utility.yul\":10379:10472   */\n      tag_141\n      jump\t// in\n    tag_283:\n        /* \"#utility.yul\":10497:10499   */\n      0x20\n        /* \"#utility.yul\":10492:10495   */\n      dup3\n        /* \"#utility.yul\":10488:10500   */\n      add\n        /* \"#utility.yul\":10481:10500   */\n      swap1\n      pop\n        /* \"#utility.yul\":10140:10506   */\n      swap2\n      swap1\n      pop\n      jump\t// out\n        /* \"#utility.yul\":10512:10931   */\n    tag_48:\n        /* \"#utility.yul\":10678:10682   */\n      0x00\n        /* \"#utility.yul\":10716:10718   */\n      0x20\n        /* \"#utility.yul\":10705:10714   */\n      dup3\n        /* \"#utility.yul\":10701:10719   */\n      add\n        /* \"#utility.yul\":10693:10719   */\n      swap1\n      pop\n        /* \"#utility.yul\":10765:10774   */\n      dup2\n        /* \"#utility.yul\":10759:10763   */\n      dup2\n        /* \"#utility.yul\":10755:10775   */\n      sub\n        /* \"#utility.yul\":10751:10752   */\n      0x00\n        /* \"#utility.yul\":10740:10749   */\n      dup4\n        /* \"#utility.yul\":10736:10753   */\n      add\n        /* \"#utility.yul\":10729:10776   */\n      mstore\n        /* \"#utility.yul\":10793:10924   */\n      tag_285\n        /* \"#utility.yul\":10919:10923   */\n      dup2\n        /* \"#utility.yul\":10793:10924   */\n      tag_142\n      jump\t// in\n    tag_285:\n        /* \"#utility.yul\":10785:10924   */\n      swap1\n      pop\n        /* \"#utility.yul\":10512:10931   */\n      swap2\n      swap1\n      pop\n      jump\t// out\n        /* \"#utility.yul\":10937:11085   */\n    tag_143:\n        /* \"#utility.yul\":11039:11050   */\n      0x00\n        /* \"#utility.yul\":11076:11079   */\n      dup2\n        /* \"#utility.yul\":11061:11079   */\n      swap1\n      pop\n        /* \"#utility.yul\":10937:11085   */\n      swap3\n      swap2\n      pop\n      pop\n      jump\t// out\n        /* \"#utility.yul\":11115:11445   */\n    tag_144:\n        /* \"#utility.yul\":11231:11234   */\n      0x00\n        /* \"#utility.yul\":11252:11341   */\n      tag_288\n        /* \"#utility.yul\":11334:11340   */\n      dup4\n        /* \"#utility.yul\":11329:11332   */\n      dup6\n        /* \"#utility.yul\":11252:11341   */\n      tag_143\n      jump\t// in\n    tag_288:\n        /* \"#utility.yul\":11245:11341   */\n      swap4\n      pop\n        /* \"#utility.yul\":11351:11407   */\n      tag_289\n        /* \"#utility.yul\":11400:11406   */\n      dup4\n        /* \"#utility.yul\":11395:11398   */\n      dup6\n        /* \"#utility.yul\":11388:11393   */\n      dup5\n        /* \"#utility.yul\":11351:11407   */\n      tag_116\n      jump\t// in\n    tag_289:\n        /* \"#utility.yul\":11432:11438   */\n      dup3\n        /* \"#utility.yul\":11427:11430   */\n      dup5\n        /* \"#utility.yul\":11423:11439   */\n      add\n        /* \"#utility.yul\":11416:11439   */\n      swap1\n      pop\n        /* \"#utility.yul\":11115:11445   */\n      swap4\n      swap3\n      pop\n      pop\n      pop\n      jump\t// out\n        /* \"#utility.yul\":11451:11746   */\n    tag_53:\n        /* \"#utility.yul\":11593:11596   */\n      0x00\n        /* \"#utility.yul\":11615:11720   */\n      tag_291\n        /* \"#utility.yul\":11716:11719   */\n      dup3\n        /* \"#utility.yul\":11707:11713   */\n      dup5\n        /* \"#utility.yul\":11699:11705   */\n      dup7\n        /* \"#utility.yul\":11615:11720   */\n      tag_144\n      jump\t// in\n    tag_291:\n        /* \"#utility.yul\":11608:11720   */\n      swap2\n      pop\n        /* \"#utility.yul\":11737:11740   */\n      dup2\n        /* \"#utility.yul\":11730:11740   */\n      swap1\n      pop\n        /* \"#utility.yul\":11451:11746   */\n      swap4\n      swap3\n      pop\n      pop\n      pop\n      jump\t// out\n        /* \"#utility.yul\":11752:11932   */\n    tag_145:\n        /* \"#utility.yul\":11800:11877   */\n      0x4e487b7100000000000000000000000000000000000000000000000000000000\n        /* \"#utility.yul\":11797:11798   */\n      0x00\n        /* \"#utility.yul\":11790:11878   */\n      mstore\n        /* \"#utility.yul\":11897:11901   */\n      0x22\n        /* \"#utility.yul\":11894:11895   */\n      0x04\n        /* \"#utility.yul\":11887:11902   */\n      mstore\n        /* \"#utility.yul\":11921:11925   */\n      0x24\n        /* \"#utility.yul\":11918:11919   */\n      0x00\n        /* \"#utility.yul\":11911:11926   */\n      revert\n        /* \"#utility.yul\":11938:12258   */\n    tag_55:\n        /* \"#utility.yul\":11982:11988   */\n      0x00\n        /* \"#utility.yul\":12019:12020   */\n      0x02\n        /* \"#utility.yul\":12013:12017   */\n      dup3\n        /* \"#utility.yul\":12009:12021   */\n      div\n        /* \"#utility.yul\":11999:12021   */\n      swap1\n      pop\n        /* \"#utility.yul\":12066:12067   */\n      0x01\n        /* \"#utility.yul\":12060:12064   */\n      dup3\n        /* \"#utility.yul\":12056:12068   */\n      and\n        /* \"#utility.yul\":12087:12105   */\n      dup1\n        /* \"#utility.yul\":12077:12158   */\n      tag_294\n      jumpi\n        /* \"#utility.yul\":12143:12147   */\n      0x7f\n        /* \"#utility.yul\":12135:12141   */\n      dup3\n        /* \"#utility.yul\":12131:12148   */\n      and\n        /* \"#utility.yul\":12121:12148   */\n      swap2\n      pop\n        /* \"#utility.yul\":12077:12158   */\n    tag_294:\n        /* \"#utility.yul\":12205:12207   */\n      0x20\n        /* \"#utility.yul\":12197:12203   */\n      dup3\n        /* \"#utility.yul\":12194:12208   */\n      lt\n        /* \"#utility.yul\":12174:12192   */\n      dup2\n        /* \"#utility.yul\":12171:12209   */\n      sub\n        /* \"#utility.yul\":12168:12252   */\n      tag_295\n      jumpi\n        /* \"#utility.yul\":12224:12242   */\n      tag_296\n      tag_145\n      jump\t// in\n    tag_296:\n        /* \"#utility.yul\":12168:12252   */\n    tag_295:\n        /* \"#utility.yul\":11989:12258   */\n      pop\n        /* \"#utility.yul\":11938:12258   */\n      swap2\n      swap1\n      pop\n      jump\t// out\n        /* \"#utility.yul\":12264:12430   */\n    tag_146:\n        /* \"#utility.yul\":12404:12422   */\n      0x4c696e6b206e6f7420666f756e64212100000000000000000000000000000000\n        /* \"#utility.yul\":12400:12401   */\n      0x00\n        /* \"#utility.yul\":12392:12398   */\n      dup3\n        /* \"#utility.yul\":12388:12402   */\n      add\n        /* \"#utility.yul\":12381:12423   */\n      mstore\n        /* \"#utility.yul\":12264:12430   */\n      pop\n      jump\t// out\n        /* \"#utility.yul\":12436:12802   */\n    tag_147:\n        /* \"#utility.yul\":12578:12581   */\n      0x00\n        /* \"#utility.yul\":12599:12666   */\n      tag_299\n        /* \"#utility.yul\":12663:12665   */\n      0x10\n        /* \"#utility.yul\":12658:12661   */\n      dup4\n        /* \"#utility.yul\":12599:12666   */\n      tag_140\n      jump\t// in\n    tag_299:\n        /* \"#utility.yul\":12592:12666   */\n      swap2\n      pop\n        /* \"#utility.yul\":12675:12768   */\n      tag_300\n        /* \"#utility.yul\":12764:12767   */\n      dup3\n        /* \"#utility.yul\":12675:12768   */\n      tag_146\n      jump\t// in\n    tag_300:\n        /* \"#utility.yul\":12793:12795   */\n      0x20\n        /* \"#utility.yul\":12788:12791   */\n      dup3\n        /* \"#utility.yul\":12784:12796   */\n      add\n        /* \"#utility.yul\":12777:12796   */\n      swap1\n      pop\n        /* \"#utility.yul\":12436:12802   */\n      swap2\n      swap1\n      pop\n      jump\t// out\n        /* \"#utility.yul\":12808:13227   */\n    tag_62:\n        /* \"#utility.yul\":12974:12978   */\n      0x00\n        /* \"#utility.yul\":13012:13014   */\n      0x20\n        /* \"#utility.yul\":13001:13010   */\n      dup3\n        /* \"#utility.yul\":12997:13015   */\n      add\n        /* \"#utility.yul\":12989:13015   */\n      swap1\n      pop\n        /* \"#utility.yul\":13061:13070   */\n      dup2\n        /* \"#utility.yul\":13055:13059   */\n      dup2\n        /* \"#utility.yul\":13051:13071   */\n      sub\n        /* \"#utility.yul\":13047:13048   */\n      0x00\n        /* \"#utility.yul\":13036:13045   */\n      dup4\n        /* \"#utility.yul\":13032:13049   */\n      add\n        /* \"#utility.yul\":13025:13072   */\n      mstore\n        /* \"#utility.yul\":13089:13220   */\n      tag_302\n        /* \"#utility.yul\":13215:13219   */\n      dup2\n        /* \"#utility.yul\":13089:13220   */\n      tag_147\n      jump\t// in\n    tag_302:\n        /* \"#utility.yul\":13081:13220   */\n      swap1\n      pop\n        /* \"#utility.yul\":12808:13227   */\n      swap2\n      swap1\n      pop\n      jump\t// out\n        /* \"#utility.yul\":13233:13458   */\n    tag_148:\n        /* \"#utility.yul\":13373:13407   */\n      0x596f7520616c726561647920686176652061636365737320746f207468697320\n        /* \"#utility.yul\":13369:13370   */\n      0x00\n        /* \"#utility.yul\":13361:13367   */\n      dup3\n        /* \"#utility.yul\":13357:13371   */\n      add\n        /* \"#utility.yul\":13350:13408   */\n      mstore\n        /* \"#utility.yul\":13442:13450   */\n      0x6c696e6b21210000000000000000000000000000000000000000000000000000\n        /* \"#utility.yul\":13437:13439   */\n      0x20\n        /* \"#utility.yul\":13429:13435   */\n      dup3\n        /* \"#utility.yul\":13425:13440   */\n      add\n        /* \"#utility.yul\":13418:13451   */\n      mstore\n        /* \"#utility.yul\":13233:13458   */\n      pop\n      jump\t// out\n        /* \"#utility.yul\":13464:13830   */\n    tag_149:\n        /* \"#utility.yul\":13606:13609   */\n      0x00\n        /* \"#utility.yul\":13627:13694   */\n      tag_305\n        /* \"#utility.yul\":13691:13693   */\n      0x26\n        /* \"#utility.yul\":13686:13689   */\n      dup4\n        /* \"#utility.yul\":13627:13694   */\n      tag_140\n      jump\t// in\n    tag_305:\n        /* \"#utility.yul\":13620:13694   */\n      swap2\n      pop\n        /* \"#utility.yul\":13703:13796   */\n      tag_306\n        /* \"#utility.yul\":13792:13795   */\n      dup3\n        /* \"#utility.yul\":13703:13796   */\n      tag_148\n      jump\t// in\n    tag_306:\n        /* \"#utility.yul\":13821:13823   */\n      0x40\n        /* \"#utility.yul\":13816:13819   */\n      dup3\n        /* \"#utility.yul\":13812:13824   */\n      add\n        /* \"#utility.yul\":13805:13824   */\n      swap1\n      pop\n        /* \"#utility.yul\":13464:13830   */\n      swap2\n      swap1\n      pop\n      jump\t// out\n        /* \"#utility.yul\":13836:14255   */\n    tag_66:\n        /* \"#utility.yul\":14002:14006   */\n      0x00\n        /* \"#utility.yul\":14040:14042   */\n      0x20\n        /* \"#utility.yul\":14029:14038   */\n      dup3\n        /* \"#utility.yul\":14025:14043   */\n      add\n        /* \"#utility.yul\":14017:14043   */\n      swap1\n      pop\n        /* \"#utility.yul\":14089:14098   */\n      dup2\n        /* \"#utility.yul\":14083:14087   */\n      dup2\n        /* \"#utility.yul\":14079:14099   */\n      sub\n        /* \"#utility.yul\":14075:14076   */\n      0x00\n        /* \"#utility.yul\":14064:14073   */\n      dup4\n        /* \"#utility.yul\":14060:14077   */\n      add\n        /* \"#utility.yul\":14053:14100   */\n      mstore\n        /* \"#utility.yul\":14117:14248   */\n      tag_308\n        /* \"#utility.yul\":14243:14247   */\n      dup2\n        /* \"#utility.yul\":14117:14248   */\n      tag_149\n      jump\t// in\n    tag_308:\n        /* \"#utility.yul\":14109:14248   */\n      swap1\n      pop\n        /* \"#utility.yul\":13836:14255   */\n      swap2\n      swap1\n      pop\n      jump\t// out\n        /* \"#utility.yul\":14261:14433   */\n    tag_150:\n        /* \"#utility.yul\":14401:14425   */\n      0x496e73756666696369656e74207061796d656e74212100000000000000000000\n        /* \"#utility.yul\":14397:14398   */\n      0x00\n        /* \"#utility.yul\":14389:14395   */\n      dup3\n        /* \"#utility.yul\":14385:14399   */\n      add\n        /* \"#utility.yul\":14378:14426   */\n      mstore\n        /* \"#utility.yul\":14261:14433   */\n      pop\n      jump\t// out\n        /* \"#utility.yul\":14439:14805   */\n    tag_151:\n        /* \"#utility.yul\":14581:14584   */\n      0x00\n        /* \"#utility.yul\":14602:14669   */\n      tag_311\n        /* \"#utility.yul\":14666:14668   */\n      0x16\n        /* \"#utility.yul\":14661:14664   */\n      dup4\n        /* \"#utility.yul\":14602:14669   */\n      tag_140\n      jump\t// in\n    tag_311:\n        /* \"#utility.yul\":14595:14669   */\n      swap2\n      pop\n        /* \"#utility.yul\":14678:14771   */\n      tag_312\n        /* \"#utility.yul\":14767:14770   */\n      dup3\n        /* \"#utility.yul\":14678:14771   */\n      tag_150\n      jump\t// in\n    tag_312:\n        /* \"#utility.yul\":14796:14798   */\n      0x20\n        /* \"#utility.yul\":14791:14794   */\n      dup3\n        /* \"#utility.yul\":14787:14799   */\n      add\n        /* \"#utility.yul\":14780:14799   */\n      swap1\n      pop\n        /* \"#utility.yul\":14439:14805   */\n      swap2\n      swap1\n      pop\n      jump\t// out\n        /* \"#utility.yul\":14811:15230   */\n    tag_69:\n        /* \"#utility.yul\":14977:14981   */\n      0x00\n        /* \"#utility.yul\":15015:15017   */\n      0x20\n        /* \"#utility.yul\":15004:15013   */\n      dup3\n        /* \"#utility.yul\":15000:15018   */\n      add\n        /* \"#utility.yul\":14992:15018   */\n      swap1\n      pop\n        /* \"#utility.yul\":15064:15073   */\n      dup2\n        /* \"#utility.yul\":15058:15062   */\n      dup2\n        /* \"#utility.yul\":15054:15074   */\n      sub\n        /* \"#utility.yul\":15050:15051   */\n      0x00\n        /* \"#utility.yul\":15039:15048   */\n      dup4\n        /* \"#utility.yul\":15035:15052   */\n      add\n        /* \"#utility.yul\":15028:15075   */\n      mstore\n        /* \"#utility.yul\":15092:15223   */\n      tag_314\n        /* \"#utility.yul\":15218:15222   */\n      dup2\n        /* \"#utility.yul\":15092:15223   */\n      tag_151\n      jump\t// in\n    tag_314:\n        /* \"#utility.yul\":15084:15223   */\n      swap1\n      pop\n        /* \"#utility.yul\":14811:15230   */\n      swap2\n      swap1\n      pop\n      jump\t// out\n        /* \"#utility.yul\":15236:15416   */\n    tag_152:\n        /* \"#utility.yul\":15284:15361   */\n      0x4e487b7100000000000000000000000000000000000000000000000000000000\n        /* \"#utility.yul\":15281:15282   */\n      0x00\n        /* \"#utility.yul\":15274:15362   */\n      mstore\n        /* \"#utility.yul\":15381:15385   */\n      0x11\n        /* \"#utility.yul\":15378:15379   */\n      0x04\n        /* \"#utility.yul\":15371:15386   */\n      mstore\n        /* \"#utility.yul\":15405:15409   */\n      0x24\n        /* \"#utility.yul\":15402:15403   */\n      0x00\n        /* \"#utility.yul\":15395:15410   */\n      revert\n        /* \"#utility.yul\":15422:15616   */\n    tag_72:\n        /* \"#utility.yul\":15462:15466   */\n      0x00\n        /* \"#utility.yul\":15482:15502   */\n      tag_317\n        /* \"#utility.yul\":15500:15501   */\n      dup3\n        /* \"#utility.yul\":15482:15502   */\n      tag_133\n      jump\t// in\n    tag_317:\n        /* \"#utility.yul\":15477:15502   */\n      swap2\n      pop\n        /* \"#utility.yul\":15516:15536   */\n      tag_318\n        /* \"#utility.yul\":15534:15535   */\n      dup4\n        /* \"#utility.yul\":15516:15536   */\n      tag_133\n      jump\t// in\n    tag_318:\n        /* \"#utility.yul\":15511:15536   */\n      swap3\n      pop\n        /* \"#utility.yul\":15560:15561   */\n      dup3\n        /* \"#utility.yul\":15557:15558   */\n      dup3\n        /* \"#utility.yul\":15553:15562   */\n      sub\n        /* \"#utility.yul\":15545:15562   */\n      swap1\n      pop\n        /* \"#utility.yul\":15584:15585   */\n      dup2\n        /* \"#utility.yul\":15578:15582   */\n      dup2\n        /* \"#utility.yul\":15575:15586   */\n      gt\n        /* \"#utility.yul\":15572:15609   */\n      iszero\n      tag_319\n      jumpi\n        /* \"#utility.yul\":15589:15607   */\n      tag_320\n      tag_152\n      jump\t// in\n    tag_320:\n        /* \"#utility.yul\":15572:15609   */\n    tag_319:\n        /* \"#utility.yul\":15422:15616   */\n      swap3\n      swap2\n      pop\n      pop\n      jump\t// out\n        /* \"#utility.yul\":15622:15843   */\n    tag_153:\n        /* \"#utility.yul\":15762:15796   */\n      0x54686973206c696e6b496420616c72656164792068617320616e206f776e6572\n        /* \"#utility.yul\":15758:15759   */\n      0x00\n        /* \"#utility.yul\":15750:15756   */\n      dup3\n        /* \"#utility.yul\":15746:15760   */\n      add\n        /* \"#utility.yul\":15739:15797   */\n      mstore\n        /* \"#utility.yul\":15831:15835   */\n      0x2121000000000000000000000000000000000000000000000000000000000000\n        /* \"#utility.yul\":15826:15828   */\n      0x20\n        /* \"#utility.yul\":15818:15824   */\n      dup3\n        /* \"#utility.yul\":15814:15829   */\n      add\n        /* \"#utility.yul\":15807:15836   */\n      mstore\n        /* \"#utility.yul\":15622:15843   */\n      pop\n      jump\t// out\n        /* \"#utility.yul\":15849:16215   */\n    tag_154:\n        /* \"#utility.yul\":15991:15994   */\n      0x00\n        /* \"#utility.yul\":16012:16079   */\n      tag_323\n        /* \"#utility.yul\":16076:16078   */\n      0x22\n        /* \"#utility.yul\":16071:16074   */\n      dup4\n        /* \"#utility.yul\":16012:16079   */\n      tag_140\n      jump\t// in\n    tag_323:\n        /* \"#utility.yul\":16005:16079   */\n      swap2\n      pop\n        /* \"#utility.yul\":16088:16181   */\n      tag_324\n        /* \"#utility.yul\":16177:16180   */\n      dup3\n        /* \"#utility.yul\":16088:16181   */\n      tag_153\n      jump\t// in\n    tag_324:\n        /* \"#utility.yul\":16206:16208   */\n      0x40\n        /* \"#utility.yul\":16201:16204   */\n      dup3\n        /* \"#utility.yul\":16197:16209   */\n      add\n        /* \"#utility.yul\":16190:16209   */\n      swap1\n      pop\n        /* \"#utility.yul\":15849:16215   */\n      swap2\n      swap1\n      pop\n      jump\t// out\n        /* \"#utility.yul\":16221:16640   */\n    tag_97:\n        /* \"#utility.yul\":16387:16391   */\n      0x00\n        /* \"#utility.yul\":16425:16427   */\n      0x20\n        /* \"#utility.yul\":16414:16423   */\n      dup3\n        /* \"#utility.yul\":16410:16428   */\n      add\n        /* \"#utility.yul\":16402:16428   */\n      swap1\n      pop\n        /* \"#utility.yul\":16474:16483   */\n      dup2\n        /* \"#utility.yul\":16468:16472   */\n      dup2\n        /* \"#utility.yul\":16464:16484   */\n      sub\n        /* \"#utility.yul\":16460:16461   */\n      0x00\n        /* \"#utility.yul\":16449:16458   */\n      dup4\n        /* \"#utility.yul\":16445:16462   */\n      add\n        /* \"#utility.yul\":16438:16485   */\n      mstore\n        /* \"#utility.yul\":16502:16633   */\n      tag_326\n        /* \"#utility.yul\":16628:16632   */\n      dup2\n        /* \"#utility.yul\":16502:16633   */\n      tag_154\n      jump\t// in\n    tag_326:\n        /* \"#utility.yul\":16494:16633   */\n      swap1\n      pop\n        /* \"#utility.yul\":16221:16640   */\n      swap2\n      swap1\n      pop\n      jump\t// out\n        /* \"#utility.yul\":16646:16809   */\n    tag_155:\n        /* \"#utility.yul\":16786:16801   */\n      0x46656520746f6f206c6f77212100000000000000000000000000000000000000\n        /* \"#utility.yul\":16782:16783   */\n      0x00\n        /* \"#utility.yul\":16774:16780   */\n      dup3\n        /* \"#utility.yul\":16770:16784   */\n      add\n        /* \"#utility.yul\":16763:16802   */\n      mstore\n        /* \"#utility.yul\":16646:16809   */\n      pop\n      jump\t// out\n        /* \"#utility.yul\":16815:17181   */\n    tag_156:\n        /* \"#utility.yul\":16957:16960   */\n      0x00\n        /* \"#utility.yul\":16978:17045   */\n      tag_329\n        /* \"#utility.yul\":17042:17044   */\n      0x0d\n        /* \"#utility.yul\":17037:17040   */\n      dup4\n        /* \"#utility.yul\":16978:17045   */\n      tag_140\n      jump\t// in\n    tag_329:\n        /* \"#utility.yul\":16971:17045   */\n      swap2\n      pop\n        /* \"#utility.yul\":17054:17147   */\n      tag_330\n        /* \"#utility.yul\":17143:17146   */\n      dup3\n        /* \"#utility.yul\":17054:17147   */\n      tag_155\n      jump\t// in\n    tag_330:\n        /* \"#utility.yul\":17172:17174   */\n      0x20\n        /* \"#utility.yul\":17167:17170   */\n      dup3\n        /* \"#utility.yul\":17163:17175   */\n      add\n        /* \"#utility.yul\":17156:17175   */\n      swap1\n      pop\n        /* \"#utility.yul\":16815:17181   */\n      swap2\n      swap1\n      pop\n      jump\t// out\n        /* \"#utility.yul\":17187:17606   */\n    tag_101:\n        /* \"#utility.yul\":17353:17357   */\n      0x00\n        /* \"#utility.yul\":17391:17393   */\n      0x20\n        /* \"#utility.yul\":17380:17389   */\n      dup3\n        /* \"#utility.yul\":17376:17394   */\n      add\n        /* \"#utility.yul\":17368:17394   */\n      swap1\n      pop\n        /* \"#utility.yul\":17440:17449   */\n      dup2\n        /* \"#utility.yul\":17434:17438   */\n      dup2\n        /* \"#utility.yul\":17430:17450   */\n      sub\n        /* \"#utility.yul\":17426:17427   */\n      0x00\n        /* \"#utility.yul\":17415:17424   */\n      dup4\n        /* \"#utility.yul\":17411:17428   */\n      add\n        /* \"#utility.yul\":17404:17451   */\n      mstore\n        /* \"#utility.yul\":17468:17599   */\n      tag_332\n        /* \"#utility.yul\":17594:17598   */\n      dup2\n        /* \"#utility.yul\":17468:17599   */\n      tag_156\n      jump\t// in\n    tag_332:\n        /* \"#utility.yul\":17460:17599   */\n      swap1\n      pop\n        /* \"#utility.yul\":17187:17606   */\n      swap2\n      swap1\n      pop\n      jump\t// out\n        /* \"#utility.yul\":17612:17753   */\n    tag_157:\n        /* \"#utility.yul\":17661:17665   */\n      0x00\n        /* \"#utility.yul\":17684:17687   */\n      dup2\n        /* \"#utility.yul\":17676:17687   */\n      swap1\n      pop\n        /* \"#utility.yul\":17707:17710   */\n      dup2\n        /* \"#utility.yul\":17704:17705   */\n      0x00\n        /* \"#utility.yul\":17697:17711   */\n      mstore\n        /* \"#utility.yul\":17741:17745   */\n      0x20\n        /* \"#utility.yul\":17738:17739   */\n      0x00\n        /* \"#utility.yul\":17728:17746   */\n      keccak256\n        /* \"#utility.yul\":17720:17746   */\n      swap1\n      pop\n        /* \"#utility.yul\":17612:17753   */\n      swap2\n      swap1\n      pop\n      jump\t// out\n        /* \"#utility.yul\":17759:17852   */\n    tag_158:\n        /* \"#utility.yul\":17796:17802   */\n      0x00\n        /* \"#utility.yul\":17843:17845   */\n      0x20\n        /* \"#utility.yul\":17838:17840   */\n      0x1f\n        /* \"#utility.yul\":17831:17836   */\n      dup4\n        /* \"#utility.yul\":17827:17841   */\n      add\n        /* \"#utility.yul\":17823:17846   */\n      div\n        /* \"#utility.yul\":17813:17846   */\n      swap1\n      pop\n        /* \"#utility.yul\":17759:17852   */\n      swap2\n      swap1\n      pop\n      jump\t// out\n        /* \"#utility.yul\":17858:17965   */\n    tag_159:\n        /* \"#utility.yul\":17902:17910   */\n      0x00\n        /* \"#utility.yul\":17952:17957   */\n      dup3\n        /* \"#utility.yul\":17946:17950   */\n      dup3\n        /* \"#utility.yul\":17942:17958   */\n      shl\n        /* \"#utility.yul\":17921:17958   */\n      swap1\n      pop\n        /* \"#utility.yul\":17858:17965   */\n      swap3\n      swap2\n      pop\n      pop\n      jump\t// out\n        /* \"#utility.yul\":17971:18364   */\n    tag_160:\n        /* \"#utility.yul\":18040:18046   */\n      0x00\n        /* \"#utility.yul\":18090:18091   */\n      0x08\n        /* \"#utility.yul\":18078:18088   */\n      dup4\n        /* \"#utility.yul\":18074:18092   */\n      mul\n        /* \"#utility.yul\":18113:18210   */\n      tag_337\n        /* \"#utility.yul\":18143:18209   */\n      0xffffffffffffffffffffffffffffffffffffffffffffffffffffffffffffffff\n        /* \"#utility.yul\":18132:18141   */\n      dup3\n        /* \"#utility.yul\":18113:18210   */\n      tag_159\n      jump\t// in\n    tag_337:\n        /* \"#utility.yul\":18231:18270   */\n      tag_338\n        /* \"#utility.yul\":18261:18269   */\n      dup7\n        /* \"#utility.yul\":18250:18259   */\n      dup4\n        /* \"#utility.yul\":18231:18270   */\n      tag_159\n      jump\t// in\n    tag_338:\n        /* \"#utility.yul\":18219:18270   */\n      swap6\n      pop\n        /* \"#utility.yul\":18303:18307   */\n      dup1\n        /* \"#utility.yul\":18299:18308   */\n      not\n        /* \"#utility.yul\":18292:18297   */\n      dup5\n        /* \"#utility.yul\":18288:18309   */\n      and\n        /* \"#utility.yul\":18279:18309   */\n      swap4\n      pop\n        /* \"#utility.yul\":18352:18356   */\n      dup1\n        /* \"#utility.yul\":18342:18350   */\n      dup7\n        /* \"#utility.yul\":18338:18357   */\n      and\n        /* \"#utility.yul\":18331:18336   */\n      dup5\n        /* \"#utility.yul\":18328:18358   */\n      or\n        /* \"#utility.yul\":18318:18358   */\n      swap3\n      pop\n        /* \"#utility.yul\":18047:18364   */\n      pop\n      pop\n        /* \"#utility.yul\":17971:18364   */\n      swap4\n      swap3\n      pop\n      pop\n      pop\n      jump\t// out\n        /* \"#utility.yul\":18370:18430   */\n    tag_161:\n        /* \"#utility.yul\":18398:18401   */\n      0x00\n        /* \"#utility.yul\":18419:18424   */\n      dup2\n        /* \"#utility.yul\":18412:18424   */\n      swap1\n      pop\n        /* \"#utility.yul\":18370:18430   */\n      swap2\n      swap1\n      pop\n      jump\t// out\n        /* \"#utility.yul\":18436:18578   */\n    tag_162:\n        /* \"#utility.yul\":18486:18495   */\n      0x00\n        /* \"#utility.yul\":18519:18572   */\n      tag_341\n        /* \"#utility.yul\":18537:18571   */\n      tag_342\n        /* \"#utility.yul\":18546:18570   */\n      tag_343\n        /* \"#utility.yul\":18564:18569   */\n      dup5\n        /* \"#utility.yul\":18546:18570   */\n      tag_133\n      jump\t// in\n    tag_343:\n        /* \"#utility.yul\":18537:18571   */\n      tag_161\n      jump\t// in\n    tag_342:\n        /* \"#utility.yul\":18519:18572   */\n      tag_133\n      jump\t// in\n    tag_341:\n        /* \"#utility.yul\":18506:18572   */\n      swap1\n      pop\n        /* \"#utility.yul\":18436:18578   */\n      swap2\n      swap1\n      pop\n      jump\t// out\n        /* \"#utility.yul\":18584:18659   */\n    tag_163:\n        /* \"#utility.yul\":18627:18630   */\n      0x00\n        /* \"#utility.yul\":18648:18653   */\n      dup2\n        /* \"#utility.yul\":18641:18653   */\n      swap1\n      pop\n        /* \"#utility.yul\":18584:18659   */\n      swap2\n      swap1\n      pop\n      jump\t// out\n        /* \"#utility.yul\":18665:18934   */\n    tag_164:\n        /* \"#utility.yul\":18775:18814   */\n      tag_346\n        /* \"#utility.yul\":18806:18813   */\n      dup4\n        /* \"#utility.yul\":18775:18814   */\n      tag_162\n      jump\t// in\n    tag_346:\n        /* \"#utility.yul\":18836:18927   */\n      tag_347\n        /* \"#utility.yul\":18885:18926   */\n      tag_348\n        /* \"#utility.yul\":18909:18925   */\n      dup3\n        /* \"#utility.yul\":18885:18926   */\n      tag_163\n      jump\t// in\n    tag_348:\n        /* \"#utility.yul\":18877:18883   */\n      dup5\n        /* \"#utility.yul\":18870:18874   */\n      dup5\n        /* \"#utility.yul\":18864:18875   */\n      sload\n        /* \"#utility.yul\":18836:18927   */\n      tag_160\n      jump\t// in\n    tag_347:\n        /* \"#utility.yul\":18830:18834   */\n      dup3\n        /* \"#utility.yul\":18823:18928   */\n      sstore\n        /* \"#utility.yul\":18741:18934   */\n      pop\n        /* \"#utility.yul\":18665:18934   */\n      pop\n      pop\n      pop\n      jump\t// out\n        /* \"#utility.yul\":18940:19013   */\n    tag_165:\n        /* \"#utility.yul\":18985:18988   */\n      0x00\n        /* \"#utility.yul\":19006:19007   */\n      0x00\n        /* \"#utility.yul\":18999:19007   */\n      swap1\n      pop\n        /* \"#utility.yul\":18940:19013   */\n      swap1\n      jump\t// out\n        /* \"#utility.yul\":19019:19208   */\n    tag_166:\n        /* \"#utility.yul\":19096:19128   */\n      tag_351\n      tag_165\n      jump\t// in\n    tag_351:\n        /* \"#utility.yul\":19137:19202   */\n      tag_352\n        /* \"#utility.yul\":19195:19201   */\n      dup2\n        /* \"#utility.yul\":19187:19193   */\n      dup5\n        /* \"#utility.yul\":19181:19185   */\n      dup5\n        /* \"#utility.yul\":19137:19202   */\n      tag_164\n      jump\t// in\n    tag_352:\n        /* \"#utility.yul\":19072:19208   */\n      pop\n        /* \"#utility.yul\":19019:19208   */\n      pop\n      pop\n      jump\t// out\n        /* \"#utility.yul\":19214:19400   */\n    tag_167:\n        /* \"#utility.yul\":19274:19394   */\n    tag_354:\n        /* \"#utility.yul\":19291:19294   */\n      dup2\n        /* \"#utility.yul\":19284:19289   */\n      dup2\n        /* \"#utility.yul\":19281:19295   */\n      lt\n        /* \"#utility.yul\":19274:19394   */\n      iszero\n      tag_356\n      jumpi\n        /* \"#utility.yul\":19345:19384   */\n      tag_357\n        /* \"#utility.yul\":19382:19383   */\n      0x00\n        /* \"#utility.yul\":19375:19380   */\n      dup3\n        /* \"#utility.yul\":19345:19384   */\n      tag_166\n      jump\t// in\n    tag_357:\n        /* \"#utility.yul\":19318:19319   */\n      0x01\n        /* \"#utility.yul\":19311:19316   */\n      dup2\n        /* \"#utility.yul\":19307:19320   */\n      add\n        /* \"#utility.yul\":19298:19320   */\n      swap1\n      pop\n        /* \"#utility.yul\":19274:19394   */\n      jump(tag_354)\n    tag_356:\n        /* \"#utility.yul\":19214:19400   */\n      pop\n      pop\n      jump\t// out\n        /* \"#utility.yul\":19406:19949   */\n    tag_168:\n        /* \"#utility.yul\":19507:19509   */\n      0x1f\n        /* \"#utility.yul\":19502:19505   */\n      dup3\n        /* \"#utility.yul\":19499:19510   */\n      gt\n        /* \"#utility.yul\":19496:19942   */\n      iszero\n      tag_359\n      jumpi\n        /* \"#utility.yul\":19541:19579   */\n      tag_360\n        /* \"#utility.yul\":19573:19578   */\n      dup2\n        /* \"#utility.yul\":19541:19579   */\n      tag_157\n      jump\t// in\n    tag_360:\n        /* \"#utility.yul\":19625:19654   */\n      tag_361\n        /* \"#utility.yul\":19643:19653   */\n      dup5\n        /* \"#utility.yul\":19625:19654   */\n      tag_158\n      jump\t// in\n    tag_361:\n        /* \"#utility.yul\":19615:19623   */\n      dup2\n        /* \"#utility.yul\":19611:19655   */\n      add\n        /* \"#utility.yul\":19808:19810   */\n      0x20\n        /* \"#utility.yul\":19796:19806   */\n      dup6\n        /* \"#utility.yul\":19793:19811   */\n      lt\n        /* \"#utility.yul\":19790:19839   */\n      iszero\n      tag_362\n      jumpi\n        /* \"#utility.yul\":19829:19837   */\n      dup2\n        /* \"#utility.yul\":19814:19837   */\n      swap1\n      pop\n        /* \"#utility.yul\":19790:19839   */\n    tag_362:\n        /* \"#utility.yul\":19852:19932   */\n      tag_363\n        /* \"#utility.yul\":19908:19930   */\n      tag_364\n        /* \"#utility.yul\":19926:19929   */\n      dup6\n        /* \"#utility.yul\":19908:19930   */\n      tag_158\n      jump\t// in\n    tag_364:\n        /* \"#utility.yul\":19898:19906   */\n      dup4\n        /* \"#utility.yul\":19894:19931   */\n      add\n        /* \"#utility.yul\":19881:19892   */\n      dup3\n        /* \"#utility.yul\":19852:19932   */\n      tag_167\n      jump\t// in\n    tag_363:\n        /* \"#utility.yul\":19511:19942   */\n      pop\n      pop\n        /* \"#utility.yul\":19496:19942   */\n    tag_359:\n        /* \"#utility.yul\":19406:19949   */\n      pop\n      pop\n      pop\n      jump\t// out\n        /* \"#utility.yul\":19955:20072   */\n    tag_169:\n        /* \"#utility.yul\":20009:20017   */\n      0x00\n        /* \"#utility.yul\":20059:20064   */\n      dup3\n        /* \"#utility.yul\":20053:20057   */\n      dup3\n        /* \"#utility.yul\":20049:20065   */\n      shr\n        /* \"#utility.yul\":20028:20065   */\n      swap1\n      pop\n        /* \"#utility.yul\":19955:20072   */\n      swap3\n      swap2\n      pop\n      pop\n      jump\t// out\n        /* \"#utility.yul\":20078:20247   */\n    tag_170:\n        /* \"#utility.yul\":20122:20128   */\n      0x00\n        /* \"#utility.yul\":20155:20206   */\n      tag_367\n        /* \"#utility.yul\":20203:20204   */\n      0x00\n        /* \"#utility.yul\":20199:20205   */\n      not\n        /* \"#utility.yul\":20191:20196   */\n      dup5\n        /* \"#utility.yul\":20188:20189   */\n      0x08\n        /* \"#utility.yul\":20184:20197   */\n      mul\n        /* \"#utility.yul\":20155:20206   */\n      tag_169\n      jump\t// in\n    tag_367:\n        /* \"#utility.yul\":20151:20207   */\n      not\n        /* \"#utility.yul\":20236:20240   */\n      dup1\n        /* \"#utility.yul\":20230:20234   */\n      dup4\n        /* \"#utility.yul\":20226:20241   */\n      and\n        /* \"#utility.yul\":20216:20241   */\n      swap2\n      pop\n        /* \"#utility.yul\":20129:20247   */\n      pop\n        /* \"#utility.yul\":20078:20247   */\n      swap3\n      swap2\n      pop\n      pop\n      jump\t// out\n        /* \"#utility.yul\":20252:20547   */\n    tag_171:\n        /* \"#utility.yul\":20328:20332   */\n      0x00\n        /* \"#utility.yul\":20474:20503   */\n      tag_369\n        /* \"#utility.yul\":20499:20502   */\n      dup4\n        /* \"#utility.yul\":20493:20497   */\n      dup4\n        /* \"#utility.yul\":20474:20503   */\n      tag_170\n      jump\t// in\n    tag_369:\n        /* \"#utility.yul\":20466:20503   */\n      swap2\n      pop\n        /* \"#utility.yul\":20536:20539   */\n      dup3\n        /* \"#utility.yul\":20533:20534   */\n      0x02\n        /* \"#utility.yul\":20529:20540   */\n      mul\n        /* \"#utility.yul\":20523:20527   */\n      dup3\n        /* \"#utility.yul\":20520:20541   */\n      or\n        /* \"#utility.yul\":20512:20541   */\n      swap1\n      pop\n        /* \"#utility.yul\":20252:20547   */\n      swap3\n      swap2\n      pop\n      pop\n      jump\t// out\n        /* \"#utility.yul\":20552:21947   */\n    tag_104:\n        /* \"#utility.yul\":20669:20706   */\n      tag_371\n        /* \"#utility.yul\":20702:20705   */\n      dup3\n        /* \"#utility.yul\":20669:20706   */\n      tag_128\n      jump\t// in\n    tag_371:\n        /* \"#utility.yul\":20771:20789   */\n      0xffffffffffffffff\n        /* \"#utility.yul\":20763:20769   */\n      dup2\n        /* \"#utility.yul\":20760:20790   */\n      gt\n        /* \"#utility.yul\":20757:20813   */\n      iszero\n      tag_372\n      jumpi\n        /* \"#utility.yul\":20793:20811   */\n      tag_373\n      tag_112\n      jump\t// in\n    tag_373:\n        /* \"#utility.yul\":20757:20813   */\n    tag_372:\n        /* \"#utility.yul\":20837:20875   */\n      tag_374\n        /* \"#utility.yul\":20869:20873   */\n      dup3\n        /* \"#utility.yul\":20863:20874   */\n      sload\n        /* \"#utility.yul\":20837:20875   */\n      tag_55\n      jump\t// in\n    tag_374:\n        /* \"#utility.yul\":20922:20989   */\n      tag_375\n        /* \"#utility.yul\":20982:20988   */\n      dup3\n        /* \"#utility.yul\":20974:20980   */\n      dup3\n        /* \"#utility.yul\":20968:20972   */\n      dup6\n        /* \"#utility.yul\":20922:20989   */\n      tag_168\n      jump\t// in\n    tag_375:\n        /* \"#utility.yul\":21016:21017   */\n      0x00\n        /* \"#utility.yul\":21040:21044   */\n      0x20\n        /* \"#utility.yul\":21027:21044   */\n      swap1\n      pop\n        /* \"#utility.yul\":21072:21074   */\n      0x1f\n        /* \"#utility.yul\":21064:21070   */\n      dup4\n        /* \"#utility.yul\":21061:21075   */\n      gt\n        /* \"#utility.yul\":21089:21090   */\n      0x01\n        /* \"#utility.yul\":21084:21702   */\n      dup2\n      eq\n      tag_377\n      jumpi\n        /* \"#utility.yul\":21746:21747   */\n      0x00\n        /* \"#utility.yul\":21763:21769   */\n      dup5\n        /* \"#utility.yul\":21760:21837   */\n      iszero\n      tag_378\n      jumpi\n        /* \"#utility.yul\":21812:21821   */\n      dup3\n        /* \"#utility.yul\":21807:21810   */\n      dup8\n        /* \"#utility.yul\":21803:21822   */\n      add\n        /* \"#utility.yul\":21797:21823   */\n      mload\n        /* \"#utility.yul\":21788:21823   */\n      swap1\n      pop\n        /* \"#utility.yul\":21760:21837   */\n    tag_378:\n        /* \"#utility.yul\":21863:21930   */\n      tag_379\n        /* \"#utility.yul\":21923:21929   */\n      dup6\n        /* \"#utility.yul\":21916:21921   */\n      dup3\n        /* \"#utility.yul\":21863:21930   */\n      tag_171\n      jump\t// in\n    tag_379:\n        /* \"#utility.yul\":21857:21861   */\n      dup7\n        /* \"#utility.yul\":21850:21931   */\n      sstore\n        /* \"#utility.yul\":21719:21941   */\n      pop\n        /* \"#utility.yul\":21054:21941   */\n      jump(tag_376)\n        /* \"#utility.yul\":21084:21702   */\n    tag_377:\n        /* \"#utility.yul\":21136:21140   */\n      0x1f\n        /* \"#utility.yul\":21132:21141   */\n      not\n        /* \"#utility.yul\":21124:21130   */\n      dup5\n        /* \"#utility.yul\":21120:21142   */\n      and\n        /* \"#utility.yul\":21170:21207   */\n      tag_380\n        /* \"#utility.yul\":21202:21206   */\n      dup7\n        /* \"#utility.yul\":21170:21207   */\n      tag_157\n      jump\t// in\n    tag_380:\n        /* \"#utility.yul\":21229:21230   */\n      0x00\n        /* \"#utility.yul\":21243:21451   */\n    tag_381:\n        /* \"#utility.yul\":21257:21264   */\n      dup3\n        /* \"#utility.yul\":21254:21255   */\n      dup2\n        /* \"#utility.yul\":21251:21265   */\n      lt\n        /* \"#utility.yul\":21243:21451   */\n      iszero\n      tag_383\n      jumpi\n        /* \"#utility.yul\":21336:21345   */\n      dup5\n        /* \"#utility.yul\":21331:21334   */\n      dup10\n        /* \"#utility.yul\":21327:21346   */\n      add\n        /* \"#utility.yul\":21321:21347   */\n      mload\n        /* \"#utility.yul\":21313:21319   */\n      dup3\n        /* \"#utility.yul\":21306:21348   */\n      sstore\n        /* \"#utility.yul\":21387:21388   */\n      0x01\n        /* \"#utility.yul\":21379:21385   */\n      dup3\n        /* \"#utility.yul\":21375:21389   */\n      add\n        /* \"#utility.yul\":21365:21389   */\n      swap2\n      pop\n        /* \"#utility.yul\":21434:21436   */\n      0x20\n        /* \"#utility.yul\":21423:21432   */\n      dup6\n        /* \"#utility.yul\":21419:21437   */\n      add\n        /* \"#utility.yul\":21406:21437   */\n      swap5\n      pop\n        /* \"#utility.yul\":21280:21284   */\n      0x20\n        /* \"#utility.yul\":21277:21278   */\n      dup2\n        /* \"#utility.yul\":21273:21285   */\n      add\n        /* \"#utility.yul\":21268:21285   */\n      swap1\n      pop\n        /* \"#utility.yul\":21243:21451   */\n      jump(tag_381)\n    tag_383:\n        /* \"#utility.yul\":21479:21485   */\n      dup7\n        /* \"#utility.yul\":21470:21477   */\n      dup4\n        /* \"#utility.yul\":21467:21486   */\n      lt\n        /* \"#utility.yul\":21464:21643   */\n      iszero\n      tag_384\n      jumpi\n        /* \"#utility.yul\":21537:21546   */\n      dup5\n        /* \"#utility.yul\":21532:21535   */\n      dup10\n        /* \"#utility.yul\":21528:21547   */\n      add\n        /* \"#utility.yul\":21522:21548   */\n      mload\n        /* \"#utility.yul\":21580:21628   */\n      tag_385\n        /* \"#utility.yul\":21622:21626   */\n      0x1f\n        /* \"#utility.yul\":21614:21620   */\n      dup10\n        /* \"#utility.yul\":21610:21627   */\n      and\n        /* \"#utility.yul\":21599:21608   */\n      dup3\n        /* \"#utility.yul\":21580:21628   */\n      tag_170\n      jump\t// in\n    tag_385:\n        /* \"#utility.yul\":21572:21578   */\n      dup4\n        /* \"#utility.yul\":21565:21629   */\n      sstore\n        /* \"#utility.yul\":21487:21643   */\n      pop\n        /* \"#utility.yul\":21464:21643   */\n    tag_384:\n        /* \"#utility.yul\":21689:21690   */\n      0x01\n        /* \"#utility.yul\":21685:21686   */\n      0x02\n        /* \"#utility.yul\":21677:21683   */\n      dup9\n        /* \"#utility.yul\":21673:21687   */\n      mul\n        /* \"#utility.yul\":21669:21691   */\n      add\n        /* \"#utility.yul\":21663:21667   */\n      dup9\n        /* \"#utility.yul\":21656:21692   */\n      sstore\n        /* \"#utility.yul\":21091:21702   */\n      pop\n      pop\n      pop\n        /* \"#utility.yul\":21054:21941   */\n    tag_376:\n      pop\n        /* \"#utility.yul\":20644:21947   */\n      pop\n      pop\n      pop\n        /* \"#utility.yul\":20552:21947   */\n      pop\n      pop\n      jump\t// out\n\n    auxdata: 0xa264697066735822122032f251a5549a81eddae0129e452aeda9336169d2242b22f228e8ff719cae542264736f6c634300081e0033\n}\n",
				"bytecode": {
					"linkReferences": {},
					"object": "60a060405260015f553480156012575f5ffd5b503373ffffffffffffffffffffffffffffffffffffffff1660808173ffffffffffffffffffffffffffffffffffffffff168152505060805161174061006d5f395f81816101dd0152818161026f01526107f501526117405ff3fe60806040526004361061006f575f3560e01c80637476452a1161004d5780637476452a146100e1578063e14891911461011d578063f851a44014610147578063fc5f2b78146101715761006f565b806313bd20e2146100735780633ccfd60b146100af578063429cad86146100c5575b5f5ffd5b34801561007e575f5ffd5b5061009960048036038101906100949190610d98565b610199565b6040516100a69190610e0c565b60405180910390f35b3480156100ba575f5ffd5b506100c36101db565b005b6100df60048036038101906100da9190610e82565b6102d4565b005b3480156100ec575f5ffd5b5061010760048036038101906101029190610e82565b610622565b6040516101149190610fa1565b60405180910390f35b348015610128575f5ffd5b506101316107ee565b60405161013e9190610fd0565b60405180910390f35b348015610152575f5ffd5b5061015b6107f3565b6040516101689190610ff8565b60405180910390f35b34801561017c575f5ffd5b506101976004803603810190610192919061103b565b610817565b005b600282805160208101820180518482526020830160208501208183528095505050505050602052805f5260405f205f915091509054906101000a900460ff1681565b7f000000000000000000000000000000000000000000000000000000000000000073ffffffffffffffffffffffffffffffffffffffff163373ffffffffffffffffffffffffffffffffffffffff1614610269576040517f08c379a000000000000000000000000000000000000000000000000000000000815260040161026090611126565b60405180910390fd5b5f4790507f000000000000000000000000000000000000000000000000000000000000000073ffffffffffffffffffffffffffffffffffffffff166108fc8290811502906040515f60405180830381858888f193505050501580156102d0573d5f5f3e3d5ffd5b5050565b5f600183836040516102e7929190611172565b90815260200160405180910390206040518060600160405290815f8201805461030f906111b7565b80601f016020809104026020016040519081016040528092919081815260200182805461033b906111b7565b80156103865780601f1061035d57610100808354040283529160200191610386565b820191905f5260205f20905b81548152906001019060200180831161036957829003601f168201915b50505050508152602001600182015f9054906101000a900473ffffffffffffffffffffffffffffffffffffffff1673ffffffffffffffffffffffffffffffffffffffff1673ffffffffffffffffffffffffffffffffffffffff16815260200160028201548152505090505f73ffffffffffffffffffffffffffffffffffffffff16816020015173ffffffffffffffffffffffffffffffffffffffff1603610462576040517f08c379a000000000000000000000000000000000000000000000000000000000815260040161045990611231565b60405180910390fd5b5f151560028484604051610477929190611172565b90815260200160405180910390205f3373ffffffffffffffffffffffffffffffffffffffff1673ffffffffffffffffffffffffffffffffffffffff1681526020019081526020015f205f9054906101000a900460ff1615151461050f576040517f08c379a0000000000000000000000000000000000000000000000000000000008152600401610506906112bf565b60405180910390fd5b8060400151341015610556576040517f08c379a000000000000000000000000000000000000000000000000000000000815260040161054d90611327565b60405180910390fd5b60016002848460405161056a929190611172565b90815260200160405180910390205f3373ffffffffffffffffffffffffffffffffffffffff1673ffffffffffffffffffffffffffffffffffffffff1681526020019081526020015f205f6101000a81548160ff021916908315150217905550806020015173ffffffffffffffffffffffffffffffffffffffff166108fc5f54346105f49190611372565b90811502906040515f60405180830381858888f1935050505015801561061c573d5f5f3e3d5ffd5b50505050565b61062a610bbc565b5f6001848460405161063d929190611172565b90815260200160405180910390206040518060600160405290815f82018054610665906111b7565b80601f0160208091040260200160405190810160405280929190818152602001828054610691906111b7565b80156106dc5780601f106106b3576101008083540402835291602001916106dc565b820191905f5260205f20905b8154815290600101906020018083116106bf57829003601f168201915b50505050508152602001600182015f9054906101000a900473ffffffffffffffffffffffffffffffffffffffff1673ffffffffffffffffffffffffffffffffffffffff1673ffffffffffffffffffffffffffffffffffffffff16815260200160028201548152505090505f81604001510361075a57809150506107e8565b5f15156002858560405161076f929190611172565b90815260200160405180910390205f3373ffffffffffffffffffffffffffffffffffffffff1673ffffffffffffffffffffffffffffffffffffffff1681526020019081526020015f205f9054906101000a900460ff161515036107e35760405180602001604052805f815250815f01819052505b809150505b92915050565b5f5481565b7f000000000000000000000000000000000000000000000000000000000000000081565b5f6001848460405161082a929190611172565b90815260200160405180910390206040518060600160405290815f82018054610852906111b7565b80601f016020809104026020016040519081016040528092919081815260200182805461087e906111b7565b80156108c95780601f106108a0576101008083540402835291602001916108c9565b820191905f5260205f20905b8154815290600101906020018083116108ac57829003601f168201915b50505050508152602001600182015f9054906101000a900473ffffffffffffffffffffffffffffffffffffffff1673ffffffffffffffffffffffffffffffffffffffff1673ffffffffffffffffffffffffffffffffffffffff16815260200160028201548152505090505f73ffffffffffffffffffffffffffffffffffffffff16816020015173ffffffffffffffffffffffffffffffffffffffff1614806109a057503373ffffffffffffffffffffffffffffffffffffffff16816020015173ffffffffffffffffffffffffffffffffffffffff16145b6109df576040517f08c379a00000000000000000000000000000000000000000000000000000000081526004016109d690611415565b60405180910390fd5b5f8214806109ed57505f5482115b610a2c576040517f08c379a0000000000000000000000000000000000000000000000000000000008152600401610a239061147d565b60405180910390fd5b85858080601f0160208091040260200160405190810160405280939291908181526020018383808284375f81840152601f19601f82011690508083019250505050505050815f018190525033816020019073ffffffffffffffffffffffffffffffffffffffff16908173ffffffffffffffffffffffffffffffffffffffff1681525050818160400181815250508060018585604051610acc929190611172565b90815260200160405180910390205f820151815f019081610aed919061163b565b506020820151816001015f6101000a81548173ffffffffffffffffffffffffffffffffffffffff021916908373ffffffffffffffffffffffffffffffffffffffff16021790555060408201518160020155905050600160028585604051610b55929190611172565b90815260200160405180910390205f3373ffffffffffffffffffffffffffffffffffffffff1673ffffffffffffffffffffffffffffffffffffffff1681526020019081526020015f205f6101000a81548160ff021916908315150217905550505050505050565b6040518060600160405280606081526020015f73ffffffffffffffffffffffffffffffffffffffff1681526020015f81525090565b5f604051905090565b5f5ffd5b5f5ffd5b5f5ffd5b5f5ffd5b5f601f19601f8301169050919050565b7f4e487b71000000000000000000000000000000000000000000000000000000005f52604160045260245ffd5b610c5082610c0a565b810181811067ffffffffffffffff82111715610c6f57610c6e610c1a565b5b80604052505050565b5f610c81610bf1565b9050610c8d8282610c47565b919050565b5f67ffffffffffffffff821115610cac57610cab610c1a565b5b610cb582610c0a565b9050602081019050919050565b828183375f83830152505050565b5f610ce2610cdd84610c92565b610c78565b905082815260208101848484011115610cfe57610cfd610c06565b5b610d09848285610cc2565b509392505050565b5f82601f830112610d2557610d24610c02565b5b8135610d35848260208601610cd0565b91505092915050565b5f73ffffffffffffffffffffffffffffffffffffffff82169050919050565b5f610d6782610d3e565b9050919050565b610d7781610d5d565b8114610d81575f5ffd5b50565b5f81359050610d9281610d6e565b92915050565b5f5f60408385031215610dae57610dad610bfa565b5b5f83013567ffffffffffffffff811115610dcb57610dca610bfe565b5b610dd785828601610d11565b9250506020610de885828601610d84565b9150509250929050565b5f8115159050919050565b610e0681610df2565b82525050565b5f602082019050610e1f5f830184610dfd565b92915050565b5f5ffd5b5f5ffd5b5f5f83601f840112610e4257610e41610c02565b5b8235905067ffffffffffffffff811115610e5f57610e5e610e25565b5b602083019150836001820283011115610e7b57610e7a610e29565b5b9250929050565b5f5f60208385031215610e9857610e97610bfa565b5b5f83013567ffffffffffffffff811115610eb557610eb4610bfe565b5b610ec185828601610e2d565b92509250509250929050565b5f81519050919050565b5f82825260208201905092915050565b8281835e5f83830152505050565b5f610eff82610ecd565b610f098185610ed7565b9350610f19818560208601610ee7565b610f2281610c0a565b840191505092915050565b610f3681610d5d565b82525050565b5f819050919050565b610f4e81610f3c565b82525050565b5f606083015f8301518482035f860152610f6e8282610ef5565b9150506020830151610f836020860182610f2d565b506040830151610f966040860182610f45565b508091505092915050565b5f6020820190508181035f830152610fb98184610f54565b905092915050565b610fca81610f3c565b82525050565b5f602082019050610fe35f830184610fc1565b92915050565b610ff281610d5d565b82525050565b5f60208201905061100b5f830184610fe9565b92915050565b61101a81610f3c565b8114611024575f5ffd5b50565b5f8135905061103581611011565b92915050565b5f5f5f5f5f6060868803121561105457611053610bfa565b5b5f86013567ffffffffffffffff81111561107157611070610bfe565b5b61107d88828901610e2d565b9550955050602086013567ffffffffffffffff8111156110a05761109f610bfe565b5b6110ac88828901610e2d565b935093505060406110bf88828901611027565b9150509295509295909350565b5f82825260208201905092915050565b7f4f6e6c792061646d696e2063616e2077697468647261772066756e64732121005f82015250565b5f611110601f836110cc565b915061111b826110dc565b602082019050919050565b5f6020820190508181035f83015261113d81611104565b9050919050565b5f81905092915050565b5f6111598385611144565b9350611166838584610cc2565b82840190509392505050565b5f61117e82848661114e565b91508190509392505050565b7f4e487b71000000000000000000000000000000000000000000000000000000005f52602260045260245ffd5b5f60028204905060018216806111ce57607f821691505b6020821081036111e1576111e061118a565b5b50919050565b7f4c696e6b206e6f7420666f756e642121000000000000000000000000000000005f82015250565b5f61121b6010836110cc565b9150611226826111e7565b602082019050919050565b5f6020820190508181035f8301526112488161120f565b9050919050565b7f596f7520616c726561647920686176652061636365737320746f2074686973205f8201527f6c696e6b21210000000000000000000000000000000000000000000000000000602082015250565b5f6112a96026836110cc565b91506112b48261124f565b604082019050919050565b5f6020820190508181035f8301526112d68161129d565b9050919050565b7f496e73756666696369656e74207061796d656e742121000000000000000000005f82015250565b5f6113116016836110cc565b915061131c826112dd565b602082019050919050565b5f6020820190508181035f83015261133e81611305565b9050919050565b7f4e487b71000000000000000000000000000000000000000000000000000000005f52601160045260245ffd5b5f61137c82610f3c565b915061138783610f3c565b925082820390508181111561139f5761139e611345565b5b92915050565b7f54686973206c696e6b496420616c72656164792068617320616e206f776e65725f8201527f2121000000000000000000000000000000000000000000000000000000000000602082015250565b5f6113ff6022836110cc565b915061140a826113a5565b604082019050919050565b5f6020820190508181035f83015261142c816113f3565b9050919050565b7f46656520746f6f206c6f772121000000000000000000000000000000000000005f82015250565b5f611467600d836110cc565b915061147282611433565b602082019050919050565b5f6020820190508181035f8301526114948161145b565b9050919050565b5f819050815f5260205f209050919050565b5f6020601f8301049050919050565b5f82821b905092915050565b5f600883026114f77fffffffffffffffffffffffffffffffffffffffffffffffffffffffffffffffff826114bc565b61150186836114bc565b95508019841693508086168417925050509392505050565b5f819050919050565b5f61153c61153761153284610f3c565b611519565b610f3c565b9050919050565b5f819050919050565b61155583611522565b61156961156182611543565b8484546114c8565b825550505050565b5f5f905090565b611580611571565b61158b81848461154c565b505050565b5b818110156115ae576115a35f82611578565b600181019050611591565b5050565b601f8211156115f3576115c48161149b565b6115cd846114ad565b810160208510156115dc578190505b6115f06115e8856114ad565b830182611590565b50505b505050565b5f82821c905092915050565b5f6116135f19846008026115f8565b1980831691505092915050565b5f61162b8383611604565b9150826002028217905092915050565b61164482610ecd565b67ffffffffffffffff81111561165d5761165c610c1a565b5b61166782546111b7565b6116728282856115b2565b5f60209050601f8311600181146116a3575f8415611691578287015190505b61169b8582611620565b865550611702565b601f1984166116b18661149b565b5f5b828110156116d8578489015182556001820191506020850194506020810190506116b3565b868310156116f557848901516116f1601f891682611604565b8355505b6001600288020188555050505b50505050505056fea264697066735822122032f251a5549a81eddae0129e452aeda9336169d2242b22f228e8ff719cae542264736f6c634300081e0033",
					"opcodes": "PUSH1 0xA0 PUSH1 0x40 MSTORE PUSH1 0x1 PUSH0 SSTORE CALLVALUE DUP1 ISZERO PUSH1 0x12 JUMPI PUSH0 PUSH0 REVERT JUMPDEST POP CALLER PUSH20 0xFFFFFFFFFFFFFFFFFFFFFFFFFFFFFFFFFFFFFFFF AND PUSH1 0x80 DUP2 PUSH20 0xFFFFFFFFFFFFFFFFFFFFFFFFFFFFFFFFFFFFFFFF AND DUP2 MSTORE POP POP PUSH1 0x80 MLOAD PUSH2 0x1740 PUSH2 0x6D PUSH0 CODECOPY PUSH0 DUP2 DUP2 PUSH2 0x1DD ADD MSTORE DUP2 DUP2 PUSH2 0x26F ADD MSTORE PUSH2 0x7F5 ADD MSTORE PUSH2 0x1740 PUSH0 RETURN INVALID PUSH1 0x80 PUSH1 0x40 MSTORE PUSH1 0x4 CALLDATASIZE LT PUSH2 0x6F JUMPI PUSH0 CALLDATALOAD PUSH1 0xE0 SHR DUP1 PUSH4 0x7476452A GT PUSH2 0x4D JUMPI DUP1 PUSH4 0x7476452A EQ PUSH2 0xE1 JUMPI DUP1 PUSH4 0xE1489191 EQ PUSH2 0x11D JUMPI DUP1 PUSH4 0xF851A440 EQ PUSH2 0x147 JUMPI DUP1 PUSH4 0xFC5F2B78 EQ PUSH2 0x171 JUMPI PUSH2 0x6F JUMP JUMPDEST DUP1 PUSH4 0x13BD20E2 EQ PUSH2 0x73 JUMPI DUP1 PUSH4 0x3CCFD60B EQ PUSH2 0xAF JUMPI DUP1 PUSH4 0x429CAD86 EQ PUSH2 0xC5 JUMPI JUMPDEST PUSH0 PUSH0 REVERT JUMPDEST CALLVALUE DUP1 ISZERO PUSH2 0x7E JUMPI PUSH0 PUSH0 REVERT JUMPDEST POP PUSH2 0x99 PUSH1 0x4 DUP1 CALLDATASIZE SUB DUP2 ADD SWAP1 PUSH2 0x94 SWAP2 SWAP1 PUSH2 0xD98 JUMP JUMPDEST PUSH2 0x199 JUMP JUMPDEST PUSH1 0x40 MLOAD PUSH2 0xA6 SWAP2 SWAP1 PUSH2 0xE0C JUMP JUMPDEST PUSH1 0x40 MLOAD DUP1 SWAP2 SUB SWAP1 RETURN JUMPDEST CALLVALUE DUP1 ISZERO PUSH2 0xBA JUMPI PUSH0 PUSH0 REVERT JUMPDEST POP PUSH2 0xC3 PUSH2 0x1DB JUMP JUMPDEST STOP JUMPDEST PUSH2 0xDF PUSH1 0x4 DUP1 CALLDATASIZE SUB DUP2 ADD SWAP1 PUSH2 0xDA SWAP2 SWAP1 PUSH2 0xE82 JUMP JUMPDEST PUSH2 0x2D4 JUMP JUMPDEST STOP JUMPDEST CALLVALUE DUP1 ISZERO PUSH2 0xEC JUMPI PUSH0 PUSH0 REVERT JUMPDEST POP PUSH2 0x107 PUSH1 0x4 DUP1 CALLDATASIZE SUB DUP2 ADD SWAP1 PUSH2 0x102 SWAP2 SWAP1 PUSH2 0xE82 JUMP JUMPDEST PUSH2 0x622 JUMP JUMPDEST PUSH1 0x40 MLOAD PUSH2 0x114 SWAP2 SWAP1 PUSH2 0xFA1 JUMP JUMPDEST PUSH1 0x40 MLOAD DUP1 SWAP2 SUB SWAP1 RETURN JUMPDEST CALLVALUE DUP1 ISZERO PUSH2 0x128 JUMPI PUSH0 PUSH0 REVERT JUMPDEST POP PUSH2 0x131 PUSH2 0x7EE JUMP JUMPDEST PUSH1 0x40 MLOAD PUSH2 0x13E SWAP2 SWAP1 PUSH2 0xFD0 JUMP JUMPDEST PUSH1 0x40 MLOAD DUP1 SWAP2 SUB SWAP1 RETURN JUMPDEST CALLVALUE DUP1 ISZERO PUSH2 0x152 JUMPI PUSH0 PUSH0 REVERT JUMPDEST POP PUSH2 0x15B PUSH2 0x7F3 JUMP JUMPDEST PUSH1 0x40 MLOAD PUSH2 0x168 SWAP2 SWAP1 PUSH2 0xFF8 JUMP JUMPDEST PUSH1 0x40 MLOAD DUP1 SWAP2 SUB SWAP1 RETURN JUMPDEST CALLVALUE DUP1 ISZERO PUSH2 0x17C JUMPI PUSH0 PUSH0 REVERT JUMPDEST POP PUSH2 0x197 PUSH1 0x4 DUP1 CALLDATASIZE SUB DUP2 ADD SWAP1 PUSH2 0x192 SWAP2 SWAP1 PUSH2 0x103B JUMP JUMPDEST PUSH2 0x817 JUMP JUMPDEST STOP JUMPDEST PUSH1 0x2 DUP3 DUP1 MLOAD PUSH1 0x20 DUP2 ADD DUP3 ADD DUP1 MLOAD DUP5 DUP3 MSTORE PUSH1 0x20 DUP4 ADD PUSH1 0x20 DUP6 ADD KECCAK256 DUP2 DUP4 MSTORE DUP1 SWAP6 POP POP POP POP POP POP PUSH1 0x20 MSTORE DUP1 PUSH0 MSTORE PUSH1 0x40 PUSH0 KECCAK256 PUSH0 SWAP2 POP SWAP2 POP SWAP1 SLOAD SWAP1 PUSH2 0x100 EXP SWAP1 DIV PUSH1 0xFF AND DUP2 JUMP JUMPDEST PUSH32 0x0 PUSH20 0xFFFFFFFFFFFFFFFFFFFFFFFFFFFFFFFFFFFFFFFF AND CALLER PUSH20 0xFFFFFFFFFFFFFFFFFFFFFFFFFFFFFFFFFFFFFFFF AND EQ PUSH2 0x269 JUMPI PUSH1 0x40 MLOAD PUSH32 0x8C379A000000000000000000000000000000000000000000000000000000000 DUP2 MSTORE PUSH1 0x4 ADD PUSH2 0x260 SWAP1 PUSH2 0x1126 JUMP JUMPDEST PUSH1 0x40 MLOAD DUP1 SWAP2 SUB SWAP1 REVERT JUMPDEST PUSH0 SELFBALANCE SWAP1 POP PUSH32 0x0 PUSH20 0xFFFFFFFFFFFFFFFFFFFFFFFFFFFFFFFFFFFFFFFF AND PUSH2 0x8FC DUP3 SWAP1 DUP2 ISZERO MUL SWAP1 PUSH1 0x40 MLOAD PUSH0 PUSH1 0x40 MLOAD DUP1 DUP4 SUB DUP2 DUP6 DUP9 DUP9 CALL SWAP4 POP POP POP POP ISZERO DUP1 ISZERO PUSH2 0x2D0 JUMPI RETURNDATASIZE PUSH0 PUSH0 RETURNDATACOPY RETURNDATASIZE PUSH0 REVERT JUMPDEST POP POP JUMP JUMPDEST PUSH0 PUSH1 0x1 DUP4 DUP4 PUSH1 0x40 MLOAD PUSH2 0x2E7 SWAP3 SWAP2 SWAP1 PUSH2 0x1172 JUMP JUMPDEST SWAP1 DUP2 MSTORE PUSH1 0x20 ADD PUSH1 0x40 MLOAD DUP1 SWAP2 SUB SWAP1 KECCAK256 PUSH1 0x40 MLOAD DUP1 PUSH1 0x60 ADD PUSH1 0x40 MSTORE SWAP1 DUP2 PUSH0 DUP3 ADD DUP1 SLOAD PUSH2 0x30F SWAP1 PUSH2 0x11B7 JUMP JUMPDEST DUP1 PUSH1 0x1F ADD PUSH1 0x20 DUP1 SWAP2 DIV MUL PUSH1 0x20 ADD PUSH1 0x40 MLOAD SWAP1 DUP2 ADD PUSH1 0x40 MSTORE DUP1 SWAP3 SWAP2 SWAP1 DUP2 DUP2 MSTORE PUSH1 0x20 ADD DUP3 DUP1 SLOAD PUSH2 0x33B SWAP1 PUSH2 0x11B7 JUMP JUMPDEST DUP1 ISZERO PUSH2 0x386 JUMPI DUP1 PUSH1 0x1F LT PUSH2 0x35D JUMPI PUSH2 0x100 DUP1 DUP4 SLOAD DIV MUL DUP4 MSTORE SWAP2 PUSH1 0x20 ADD SWAP2 PUSH2 0x386 JUMP JUMPDEST DUP3 ADD SWAP2 SWAP1 PUSH0 MSTORE PUSH1 0x20 PUSH0 KECCAK256 SWAP1 JUMPDEST DUP2 SLOAD DUP2 MSTORE SWAP1 PUSH1 0x1 ADD SWAP1 PUSH1 0x20 ADD DUP1 DUP4 GT PUSH2 0x369 JUMPI DUP3 SWAP1 SUB PUSH1 0x1F AND DUP3 ADD SWAP2 JUMPDEST POP POP POP POP POP DUP2 MSTORE PUSH1 0x20 ADD PUSH1 0x1 DUP3 ADD PUSH0 SWAP1 SLOAD SWAP1 PUSH2 0x100 EXP SWAP1 DIV PUSH20 0xFFFFFFFFFFFFFFFFFFFFFFFFFFFFFFFFFFFFFFFF AND PUSH20 0xFFFFFFFFFFFFFFFFFFFFFFFFFFFFFFFFFFFFFFFF AND PUSH20 0xFFFFFFFFFFFFFFFFFFFFFFFFFFFFFFFFFFFFFFFF AND DUP2 MSTORE PUSH1 0x20 ADD PUSH1 0x2 DUP3 ADD SLOAD DUP2 MSTORE POP POP SWAP1 POP PUSH0 PUSH20 0xFFFFFFFFFFFFFFFFFFFFFFFFFFFFFFFFFFFFFFFF AND DUP2 PUSH1 0x20 ADD MLOAD PUSH20 0xFFFFFFFFFFFFFFFFFFFFFFFFFFFFFFFFFFFFFFFF AND SUB PUSH2 0x462 JUMPI PUSH1 0x40 MLOAD PUSH32 0x8C379A000000000000000000000000000000000000000000000000000000000 DUP2 MSTORE PUSH1 0x4 ADD PUSH2 0x459 SWAP1 PUSH2 0x1231 JUMP JUMPDEST PUSH1 0x40 MLOAD DUP1 SWAP2 SUB SWAP1 REVERT JUMPDEST PUSH0 ISZERO ISZERO PUSH1 0x2 DUP5 DUP5 PUSH1 0x40 MLOAD PUSH2 0x477 SWAP3 SWAP2 SWAP1 PUSH2 0x1172 JUMP JUMPDEST SWAP1 DUP2 MSTORE PUSH1 0x20 ADD PUSH1 0x40 MLOAD DUP1 SWAP2 SUB SWAP1 KECCAK256 PUSH0 CALLER PUSH20 0xFFFFFFFFFFFFFFFFFFFFFFFFFFFFFFFFFFFFFFFF AND PUSH20 0xFFFFFFFFFFFFFFFFFFFFFFFFFFFFFFFFFFFFFFFF AND DUP2 MSTORE PUSH1 0x20 ADD SWAP1 DUP2 MSTORE PUSH1 0x20 ADD PUSH0 KECCAK256 PUSH0 SWAP1 SLOAD SWAP1 PUSH2 0x100 EXP SWAP1 DIV PUSH1 0xFF AND ISZERO ISZERO EQ PUSH2 0x50F JUMPI PUSH1 0x40 MLOAD PUSH32 0x8C379A000000000000000000000000000000000000000000000000000000000 DUP2 MSTORE PUSH1 0x4 ADD PUSH2 0x506 SWAP1 PUSH2 0x12BF JUMP JUMPDEST PUSH1 0x40 MLOAD DUP1 SWAP2 SUB SWAP1 REVERT JUMPDEST DUP1 PUSH1 0x40 ADD MLOAD CALLVALUE LT ISZERO PUSH2 0x556 JUMPI PUSH1 0x40 MLOAD PUSH32 0x8C379A000000000000000000000000000000000000000000000000000000000 DUP2 MSTORE PUSH1 0x4 ADD PUSH2 0x54D SWAP1 PUSH2 0x1327 JUMP JUMPDEST PUSH1 0x40 MLOAD DUP1 SWAP2 SUB SWAP1 REVERT JUMPDEST PUSH1 0x1 PUSH1 0x2 DUP5 DUP5 PUSH1 0x40 MLOAD PUSH2 0x56A SWAP3 SWAP2 SWAP1 PUSH2 0x1172 JUMP JUMPDEST SWAP1 DUP2 MSTORE PUSH1 0x20 ADD PUSH1 0x40 MLOAD DUP1 SWAP2 SUB SWAP1 KECCAK256 PUSH0 CALLER PUSH20 0xFFFFFFFFFFFFFFFFFFFFFFFFFFFFFFFFFFFFFFFF AND PUSH20 0xFFFFFFFFFFFFFFFFFFFFFFFFFFFFFFFFFFFFFFFF AND DUP2 MSTORE PUSH1 0x20 ADD SWAP1 DUP2 MSTORE PUSH1 0x20 ADD PUSH0 KECCAK256 PUSH0 PUSH2 0x100 EXP DUP2 SLOAD DUP2 PUSH1 0xFF MUL NOT AND SWAP1 DUP4 ISZERO ISZERO MUL OR SWAP1 SSTORE POP DUP1 PUSH1 0x20 ADD MLOAD PUSH20 0xFFFFFFFFFFFFFFFFFFFFFFFFFFFFFFFFFFFFFFFF AND PUSH2 0x8FC PUSH0 SLOAD CALLVALUE PUSH2 0x5F4 SWAP2 SWAP1 PUSH2 0x1372 JUMP JUMPDEST SWAP1 DUP2 ISZERO MUL SWAP1 PUSH1 0x40 MLOAD PUSH0 PUSH1 0x40 MLOAD DUP1 DUP4 SUB DUP2 DUP6 DUP9 DUP9 CALL SWAP4 POP POP POP POP ISZERO DUP1 ISZERO PUSH2 0x61C JUMPI RETURNDATASIZE PUSH0 PUSH0 RETURNDATACOPY RETURNDATASIZE PUSH0 REVERT JUMPDEST POP POP POP POP JUMP JUMPDEST PUSH2 0x62A PUSH2 0xBBC JUMP JUMPDEST PUSH0 PUSH1 0x1 DUP5 DUP5 PUSH1 0x40 MLOAD PUSH2 0x63D SWAP3 SWAP2 SWAP1 PUSH2 0x1172 JUMP JUMPDEST SWAP1 DUP2 MSTORE PUSH1 0x20 ADD PUSH1 0x40 MLOAD DUP1 SWAP2 SUB SWAP1 KECCAK256 PUSH1 0x40 MLOAD DUP1 PUSH1 0x60 ADD PUSH1 0x40 MSTORE SWAP1 DUP2 PUSH0 DUP3 ADD DUP1 SLOAD PUSH2 0x665 SWAP1 PUSH2 0x11B7 JUMP JUMPDEST DUP1 PUSH1 0x1F ADD PUSH1 0x20 DUP1 SWAP2 DIV MUL PUSH1 0x20 ADD PUSH1 0x40 MLOAD SWAP1 DUP2 ADD PUSH1 0x40 MSTORE DUP1 SWAP3 SWAP2 SWAP1 DUP2 DUP2 MSTORE PUSH1 0x20 ADD DUP3 DUP1 SLOAD PUSH2 0x691 SWAP1 PUSH2 0x11B7 JUMP JUMPDEST DUP1 ISZERO PUSH2 0x6DC JUMPI DUP1 PUSH1 0x1F LT PUSH2 0x6B3 JUMPI PUSH2 0x100 DUP1 DUP4 SLOAD DIV MUL DUP4 MSTORE SWAP2 PUSH1 0x20 ADD SWAP2 PUSH2 0x6DC JUMP JUMPDEST DUP3 ADD SWAP2 SWAP1 PUSH0 MSTORE PUSH1 0x20 PUSH0 KECCAK256 SWAP1 JUMPDEST DUP2 SLOAD DUP2 MSTORE SWAP1 PUSH1 0x1 ADD SWAP1 PUSH1 0x20 ADD DUP1 DUP4 GT PUSH2 0x6BF JUMPI DUP3 SWAP1 SUB PUSH1 0x1F AND DUP3 ADD SWAP2 JUMPDEST POP POP POP POP POP DUP2 MSTORE PUSH1 0x20 ADD PUSH1 0x1 DUP3 ADD PUSH0 SWAP1 SLOAD SWAP1 PUSH2 0x100 EXP SWAP1 DIV PUSH20 0xFFFFFFFFFFFFFFFFFFFFFFFFFFFFFFFFFFFFFFFF AND PUSH20 0xFFFFFFFFFFFFFFFFFFFFFFFFFFFFFFFFFFFFFFFF AND PUSH20 0xFFFFFFFFFFFFFFFFFFFFFFFFFFFFFFFFFFFFFFFF AND DUP2 MSTORE PUSH1 0x20 ADD PUSH1 0x2 DUP3 ADD SLOAD DUP2 MSTORE POP POP SWAP1 POP PUSH0 DUP2 PUSH1 0x40 ADD MLOAD SUB PUSH2 0x75A JUMPI DUP1 SWAP2 POP POP PUSH2 0x7E8 JUMP JUMPDEST PUSH0 ISZERO ISZERO PUSH1 0x2 DUP6 DUP6 PUSH1 0x40 MLOAD PUSH2 0x76F SWAP3 SWAP2 SWAP1 PUSH2 0x1172 JUMP JUMPDEST SWAP1 DUP2 MSTORE PUSH1 0x20 ADD PUSH1 0x40 MLOAD DUP1 SWAP2 SUB SWAP1 KECCAK256 PUSH0 CALLER PUSH20 0xFFFFFFFFFFFFFFFFFFFFFFFFFFFFFFFFFFFFFFFF AND PUSH20 0xFFFFFFFFFFFFFFFFFFFFFFFFFFFFFFFFFFFFFFFF AND DUP2 MSTORE PUSH1 0x20 ADD SWAP1 DUP2 MSTORE PUSH1 0x20 ADD PUSH0 KECCAK256 PUSH0 SWAP1 SLOAD SWAP1 PUSH2 0x100 EXP SWAP1 DIV PUSH1 0xFF AND ISZERO ISZERO SUB PUSH2 0x7E3 JUMPI PUSH1 0x40 MLOAD DUP1 PUSH1 0x20 ADD PUSH1 0x40 MSTORE DUP1 PUSH0 DUP2 MSTORE POP DUP2 PUSH0 ADD DUP2 SWAP1 MSTORE POP JUMPDEST DUP1 SWAP2 POP POP JUMPDEST SWAP3 SWAP2 POP POP JUMP JUMPDEST PUSH0 SLOAD DUP2 JUMP JUMPDEST PUSH32 0x0 DUP2 JUMP JUMPDEST PUSH0 PUSH1 0x1 DUP5 DUP5 PUSH1 0x40 MLOAD PUSH2 0x82A SWAP3 SWAP2 SWAP1 PUSH2 0x1172 JUMP JUMPDEST SWAP1 DUP2 MSTORE PUSH1 0x20 ADD PUSH1 0x40 MLOAD DUP1 SWAP2 SUB SWAP1 KECCAK256 PUSH1 0x40 MLOAD DUP1 PUSH1 0x60 ADD PUSH1 0x40 MSTORE SWAP1 DUP2 PUSH0 DUP3 ADD DUP1 SLOAD PUSH2 0x852 SWAP1 PUSH2 0x11B7 JUMP JUMPDEST DUP1 PUSH1 0x1F ADD PUSH1 0x20 DUP1 SWAP2 DIV MUL PUSH1 0x20 ADD PUSH1 0x40 MLOAD SWAP1 DUP2 ADD PUSH1 0x40 MSTORE DUP1 SWAP3 SWAP2 SWAP1 DUP2 DUP2 MSTORE PUSH1 0x20 ADD DUP3 DUP1 SLOAD PUSH2 0x87E SWAP1 PUSH2 0x11B7 JUMP JUMPDEST DUP1 ISZERO PUSH2 0x8C9 JUMPI DUP1 PUSH1 0x1F LT PUSH2 0x8A0 JUMPI PUSH2 0x100 DUP1 DUP4 SLOAD DIV MUL DUP4 MSTORE SWAP2 PUSH1 0x20 ADD SWAP2 PUSH2 0x8C9 JUMP JUMPDEST DUP3 ADD SWAP2 SWAP1 PUSH0 MSTORE PUSH1 0x20 PUSH0 KECCAK256 SWAP1 JUMPDEST DUP2 SLOAD DUP2 MSTORE SWAP1 PUSH1 0x1 ADD SWAP1 PUSH1 0x20 ADD DUP1 DUP4 GT PUSH2 0x8AC JUMPI DUP3 SWAP1 SUB PUSH1 0x1F AND DUP3 ADD SWAP2 JUMPDEST POP POP POP POP POP DUP2 MSTORE PUSH1 0x20 ADD PUSH1 0x1 DUP3 ADD PUSH0 SWAP1 SLOAD SWAP1 PUSH2 0x100 EXP SWAP1 DIV PUSH20 0xFFFFFFFFFFFFFFFFFFFFFFFFFFFFFFFFFFFFFFFF AND PUSH20 0xFFFFFFFFFFFFFFFFFFFFFFFFFFFFFFFFFFFFFFFF AND PUSH20 0xFFFFFFFFFFFFFFFFFFFFFFFFFFFFFFFFFFFFFFFF AND DUP2 MSTORE PUSH1 0x20 ADD PUSH1 0x2 DUP3 ADD SLOAD DUP2 MSTORE POP POP SWAP1 POP PUSH0 PUSH20 0xFFFFFFFFFFFFFFFFFFFFFFFFFFFFFFFFFFFFFFFF AND DUP2 PUSH1 0x20 ADD MLOAD PUSH20 0xFFFFFFFFFFFFFFFFFFFFFFFFFFFFFFFFFFFFFFFF AND EQ DUP1 PUSH2 0x9A0 JUMPI POP CALLER PUSH20 0xFFFFFFFFFFFFFFFFFFFFFFFFFFFFFFFFFFFFFFFF AND DUP2 PUSH1 0x20 ADD MLOAD PUSH20 0xFFFFFFFFFFFFFFFFFFFFFFFFFFFFFFFFFFFFFFFF AND EQ JUMPDEST PUSH2 0x9DF JUMPI PUSH1 0x40 MLOAD PUSH32 0x8C379A000000000000000000000000000000000000000000000000000000000 DUP2 MSTORE PUSH1 0x4 ADD PUSH2 0x9D6 SWAP1 PUSH2 0x1415 JUMP JUMPDEST PUSH1 0x40 MLOAD DUP1 SWAP2 SUB SWAP1 REVERT JUMPDEST PUSH0 DUP3 EQ DUP1 PUSH2 0x9ED JUMPI POP PUSH0 SLOAD DUP3 GT JUMPDEST PUSH2 0xA2C JUMPI PUSH1 0x40 MLOAD PUSH32 0x8C379A000000000000000000000000000000000000000000000000000000000 DUP2 MSTORE PUSH1 0x4 ADD PUSH2 0xA23 SWAP1 PUSH2 0x147D JUMP JUMPDEST PUSH1 0x40 MLOAD DUP1 SWAP2 SUB SWAP1 REVERT JUMPDEST DUP6 DUP6 DUP1 DUP1 PUSH1 0x1F ADD PUSH1 0x20 DUP1 SWAP2 DIV MUL PUSH1 0x20 ADD PUSH1 0x40 MLOAD SWAP1 DUP2 ADD PUSH1 0x40 MSTORE DUP1 SWAP4 SWAP3 SWAP2 SWAP1 DUP2 DUP2 MSTORE PUSH1 0x20 ADD DUP4 DUP4 DUP1 DUP3 DUP5 CALLDATACOPY PUSH0 DUP2 DUP5 ADD MSTORE PUSH1 0x1F NOT PUSH1 0x1F DUP3 ADD AND SWAP1 POP DUP1 DUP4 ADD SWAP3 POP POP POP POP POP POP POP DUP2 PUSH0 ADD DUP2 SWAP1 MSTORE POP CALLER DUP2 PUSH1 0x20 ADD SWAP1 PUSH20 0xFFFFFFFFFFFFFFFFFFFFFFFFFFFFFFFFFFFFFFFF AND SWAP1 DUP2 PUSH20 0xFFFFFFFFFFFFFFFFFFFFFFFFFFFFFFFFFFFFFFFF AND DUP2 MSTORE POP POP DUP2 DUP2 PUSH1 0x40 ADD DUP2 DUP2 MSTORE POP POP DUP1 PUSH1 0x1 DUP6 DUP6 PUSH1 0x40 MLOAD PUSH2 0xACC SWAP3 SWAP2 SWAP1 PUSH2 0x1172 JUMP JUMPDEST SWAP1 DUP2 MSTORE PUSH1 0x20 ADD PUSH1 0x40 MLOAD DUP1 SWAP2 SUB SWAP1 KECCAK256 PUSH0 DUP3 ADD MLOAD DUP2 PUSH0 ADD SWAP1 DUP2 PUSH2 0xAED SWAP2 SWAP1 PUSH2 0x163B JUMP JUMPDEST POP PUSH1 0x20 DUP3 ADD MLOAD DUP2 PUSH1 0x1 ADD PUSH0 PUSH2 0x100 EXP DUP2 SLOAD DUP2 PUSH20 0xFFFFFFFFFFFFFFFFFFFFFFFFFFFFFFFFFFFFFFFF MUL NOT AND SWAP1 DUP4 PUSH20 0xFFFFFFFFFFFFFFFFFFFFFFFFFFFFFFFFFFFFFFFF AND MUL OR SWAP1 SSTORE POP PUSH1 0x40 DUP3 ADD MLOAD DUP2 PUSH1 0x2 ADD SSTORE SWAP1 POP POP PUSH1 0x1 PUSH1 0x2 DUP6 DUP6 PUSH1 0x40 MLOAD PUSH2 0xB55 SWAP3 SWAP2 SWAP1 PUSH2 0x1172 JUMP JUMPDEST SWAP1 DUP2 MSTORE PUSH1 0x20 ADD PUSH1 0x40 MLOAD DUP1 SWAP2 SUB SWAP1 KECCAK256 PUSH0 CALLER PUSH20 0xFFFFFFFFFFFFFFFFFFFFFFFFFFFFFFFFFFFFFFFF AND PUSH20 0xFFFFFFFFFFFFFFFFFFFFFFFFFFFFFFFFFFFFFFFF AND DUP2 MSTORE PUSH1 0x20 ADD SWAP1 DUP2 MSTORE PUSH1 0x20 ADD PUSH0 KECCAK256 PUSH0 PUSH2 0x100 EXP DUP2 SLOAD DUP2 PUSH1 0xFF MUL NOT AND SWAP1 DUP4 ISZERO ISZERO MUL OR SWAP1 SSTORE POP POP POP POP POP POP POP JUMP JUMPDEST PUSH1 0x40 MLOAD DUP1 PUSH1 0x60 ADD PUSH1 0x40 MSTORE DUP1 PUSH1 0x60 DUP2 MSTORE PUSH1 0x20 ADD PUSH0 PUSH20 0xFFFFFFFFFFFFFFFFFFFFFFFFFFFFFFFFFFFFFFFF AND DUP2 MSTORE PUSH1 0x20 ADD PUSH0 DUP2 MSTORE POP SWAP1 JUMP JUMPDEST PUSH0 PUSH1 0x40 MLOAD SWAP1 POP SWAP1 JUMP JUMPDEST PUSH0 PUSH0 REVERT JUMPDEST PUSH0 PUSH0 REVERT JUMPDEST PUSH0 PUSH0 REVERT JUMPDEST PUSH0 PUSH0 REVERT JUMPDEST PUSH0 PUSH1 0x1F NOT PUSH1 0x1F DUP4 ADD AND SWAP1 POP SWAP2 SWAP1 POP JUMP JUMPDEST PUSH32 0x4E487B7100000000000000000000000000000000000000000000000000000000 PUSH0 MSTORE PUSH1 0x41 PUSH1 0x4 MSTORE PUSH1 0x24 PUSH0 REVERT JUMPDEST PUSH2 0xC50 DUP3 PUSH2 0xC0A JUMP JUMPDEST DUP2 ADD DUP2 DUP2 LT PUSH8 0xFFFFFFFFFFFFFFFF DUP3 GT OR ISZERO PUSH2 0xC6F JUMPI PUSH2 0xC6E PUSH2 0xC1A JUMP JUMPDEST JUMPDEST DUP1 PUSH1 0x40 MSTORE POP POP POP JUMP JUMPDEST PUSH0 PUSH2 0xC81 PUSH2 0xBF1 JUMP JUMPDEST SWAP1 POP PUSH2 0xC8D DUP3 DUP3 PUSH2 0xC47 JUMP JUMPDEST SWAP2 SWAP1 POP JUMP JUMPDEST PUSH0 PUSH8 0xFFFFFFFFFFFFFFFF DUP3 GT ISZERO PUSH2 0xCAC JUMPI PUSH2 0xCAB PUSH2 0xC1A JUMP JUMPDEST JUMPDEST PUSH2 0xCB5 DUP3 PUSH2 0xC0A JUMP JUMPDEST SWAP1 POP PUSH1 0x20 DUP2 ADD SWAP1 POP SWAP2 SWAP1 POP JUMP JUMPDEST DUP3 DUP2 DUP4 CALLDATACOPY PUSH0 DUP4 DUP4 ADD MSTORE POP POP POP JUMP JUMPDEST PUSH0 PUSH2 0xCE2 PUSH2 0xCDD DUP5 PUSH2 0xC92 JUMP JUMPDEST PUSH2 0xC78 JUMP JUMPDEST SWAP1 POP DUP3 DUP2 MSTORE PUSH1 0x20 DUP2 ADD DUP5 DUP5 DUP5 ADD GT ISZERO PUSH2 0xCFE JUMPI PUSH2 0xCFD PUSH2 0xC06 JUMP JUMPDEST JUMPDEST PUSH2 0xD09 DUP5 DUP3 DUP6 PUSH2 0xCC2 JUMP JUMPDEST POP SWAP4 SWAP3 POP POP POP JUMP JUMPDEST PUSH0 DUP3 PUSH1 0x1F DUP4 ADD SLT PUSH2 0xD25 JUMPI PUSH2 0xD24 PUSH2 0xC02 JUMP JUMPDEST JUMPDEST DUP2 CALLDATALOAD PUSH2 0xD35 DUP5 DUP3 PUSH1 0x20 DUP7 ADD PUSH2 0xCD0 JUMP JUMPDEST SWAP2 POP POP SWAP3 SWAP2 POP POP JUMP JUMPDEST PUSH0 PUSH20 0xFFFFFFFFFFFFFFFFFFFFFFFFFFFFFFFFFFFFFFFF DUP3 AND SWAP1 POP SWAP2 SWAP1 POP JUMP JUMPDEST PUSH0 PUSH2 0xD67 DUP3 PUSH2 0xD3E JUMP JUMPDEST SWAP1 POP SWAP2 SWAP1 POP JUMP JUMPDEST PUSH2 0xD77 DUP2 PUSH2 0xD5D JUMP JUMPDEST DUP2 EQ PUSH2 0xD81 JUMPI PUSH0 PUSH0 REVERT JUMPDEST POP JUMP JUMPDEST PUSH0 DUP2 CALLDATALOAD SWAP1 POP PUSH2 0xD92 DUP2 PUSH2 0xD6E JUMP JUMPDEST SWAP3 SWAP2 POP POP JUMP JUMPDEST PUSH0 PUSH0 PUSH1 0x40 DUP4 DUP6 SUB SLT ISZERO PUSH2 0xDAE JUMPI PUSH2 0xDAD PUSH2 0xBFA JUMP JUMPDEST JUMPDEST PUSH0 DUP4 ADD CALLDATALOAD PUSH8 0xFFFFFFFFFFFFFFFF DUP2 GT ISZERO PUSH2 0xDCB JUMPI PUSH2 0xDCA PUSH2 0xBFE JUMP JUMPDEST JUMPDEST PUSH2 0xDD7 DUP6 DUP3 DUP7 ADD PUSH2 0xD11 JUMP JUMPDEST SWAP3 POP POP PUSH1 0x20 PUSH2 0xDE8 DUP6 DUP3 DUP7 ADD PUSH2 0xD84 JUMP JUMPDEST SWAP2 POP POP SWAP3 POP SWAP3 SWAP1 POP JUMP JUMPDEST PUSH0 DUP2 ISZERO ISZERO SWAP1 POP SWAP2 SWAP1 POP JUMP JUMPDEST PUSH2 0xE06 DUP2 PUSH2 0xDF2 JUMP JUMPDEST DUP3 MSTORE POP POP JUMP JUMPDEST PUSH0 PUSH1 0x20 DUP3 ADD SWAP1 POP PUSH2 0xE1F PUSH0 DUP4 ADD DUP5 PUSH2 0xDFD JUMP JUMPDEST SWAP3 SWAP2 POP POP JUMP JUMPDEST PUSH0 PUSH0 REVERT JUMPDEST PUSH0 PUSH0 REVERT JUMPDEST PUSH0 PUSH0 DUP4 PUSH1 0x1F DUP5 ADD SLT PUSH2 0xE42 JUMPI PUSH2 0xE41 PUSH2 0xC02 JUMP JUMPDEST JUMPDEST DUP3 CALLDATALOAD SWAP1 POP PUSH8 0xFFFFFFFFFFFFFFFF DUP2 GT ISZERO PUSH2 0xE5F JUMPI PUSH2 0xE5E PUSH2 0xE25 JUMP JUMPDEST JUMPDEST PUSH1 0x20 DUP4 ADD SWAP2 POP DUP4 PUSH1 0x1 DUP3 MUL DUP4 ADD GT ISZERO PUSH2 0xE7B JUMPI PUSH2 0xE7A PUSH2 0xE29 JUMP JUMPDEST JUMPDEST SWAP3 POP SWAP3 SWAP1 POP JUMP JUMPDEST PUSH0 PUSH0 PUSH1 0x20 DUP4 DUP6 SUB SLT ISZERO PUSH2 0xE98 JUMPI PUSH2 0xE97 PUSH2 0xBFA JUMP JUMPDEST JUMPDEST PUSH0 DUP4 ADD CALLDATALOAD PUSH8 0xFFFFFFFFFFFFFFFF DUP2 GT ISZERO PUSH2 0xEB5 JUMPI PUSH2 0xEB4 PUSH2 0xBFE JUMP JUMPDEST JUMPDEST PUSH2 0xEC1 DUP6 DUP3 DUP7 ADD PUSH2 0xE2D JUMP JUMPDEST SWAP3 POP SWAP3 POP POP SWAP3 POP SWAP3 SWAP1 POP JUMP JUMPDEST PUSH0 DUP2 MLOAD SWAP1 POP SWAP2 SWAP1 POP JUMP JUMPDEST PUSH0 DUP3 DUP3 MSTORE PUSH1 0x20 DUP3 ADD SWAP1 POP SWAP3 SWAP2 POP POP JUMP JUMPDEST DUP3 DUP2 DUP4 MCOPY PUSH0 DUP4 DUP4 ADD MSTORE POP POP POP JUMP JUMPDEST PUSH0 PUSH2 0xEFF DUP3 PUSH2 0xECD JUMP JUMPDEST PUSH2 0xF09 DUP2 DUP6 PUSH2 0xED7 JUMP JUMPDEST SWAP4 POP PUSH2 0xF19 DUP2 DUP6 PUSH1 0x20 DUP7 ADD PUSH2 0xEE7 JUMP JUMPDEST PUSH2 0xF22 DUP2 PUSH2 0xC0A JUMP JUMPDEST DUP5 ADD SWAP2 POP POP SWAP3 SWAP2 POP POP JUMP JUMPDEST PUSH2 0xF36 DUP2 PUSH2 0xD5D JUMP JUMPDEST DUP3 MSTORE POP POP JUMP JUMPDEST PUSH0 DUP2 SWAP1 POP SWAP2 SWAP1 POP JUMP JUMPDEST PUSH2 0xF4E DUP2 PUSH2 0xF3C JUMP JUMPDEST DUP3 MSTORE POP POP JUMP JUMPDEST PUSH0 PUSH1 0x60 DUP4 ADD PUSH0 DUP4 ADD MLOAD DUP5 DUP3 SUB PUSH0 DUP7 ADD MSTORE PUSH2 0xF6E DUP3 DUP3 PUSH2 0xEF5 JUMP JUMPDEST SWAP2 POP POP PUSH1 0x20 DUP4 ADD MLOAD PUSH2 0xF83 PUSH1 0x20 DUP7 ADD DUP3 PUSH2 0xF2D JUMP JUMPDEST POP PUSH1 0x40 DUP4 ADD MLOAD PUSH2 0xF96 PUSH1 0x40 DUP7 ADD DUP3 PUSH2 0xF45 JUMP JUMPDEST POP DUP1 SWAP2 POP POP SWAP3 SWAP2 POP POP JUMP JUMPDEST PUSH0 PUSH1 0x20 DUP3 ADD SWAP1 POP DUP2 DUP2 SUB PUSH0 DUP4 ADD MSTORE PUSH2 0xFB9 DUP2 DUP5 PUSH2 0xF54 JUMP JUMPDEST SWAP1 POP SWAP3 SWAP2 POP POP JUMP JUMPDEST PUSH2 0xFCA DUP2 PUSH2 0xF3C JUMP JUMPDEST DUP3 MSTORE POP POP JUMP JUMPDEST PUSH0 PUSH1 0x20 DUP3 ADD SWAP1 POP PUSH2 0xFE3 PUSH0 DUP4 ADD DUP5 PUSH2 0xFC1 JUMP JUMPDEST SWAP3 SWAP2 POP POP JUMP JUMPDEST PUSH2 0xFF2 DUP2 PUSH2 0xD5D JUMP JUMPDEST DUP3 MSTORE POP POP JUMP JUMPDEST PUSH0 PUSH1 0x20 DUP3 ADD SWAP1 POP PUSH2 0x100B PUSH0 DUP4 ADD DUP5 PUSH2 0xFE9 JUMP JUMPDEST SWAP3 SWAP2 POP POP JUMP JUMPDEST PUSH2 0x101A DUP2 PUSH2 0xF3C JUMP JUMPDEST DUP2 EQ PUSH2 0x1024 JUMPI PUSH0 PUSH0 REVERT JUMPDEST POP JUMP JUMPDEST PUSH0 DUP2 CALLDATALOAD SWAP1 POP PUSH2 0x1035 DUP2 PUSH2 0x1011 JUMP JUMPDEST SWAP3 SWAP2 POP POP JUMP JUMPDEST PUSH0 PUSH0 PUSH0 PUSH0 PUSH0 PUSH1 0x60 DUP7 DUP9 SUB SLT ISZERO PUSH2 0x1054 JUMPI PUSH2 0x1053 PUSH2 0xBFA JUMP JUMPDEST JUMPDEST PUSH0 DUP7 ADD CALLDATALOAD PUSH8 0xFFFFFFFFFFFFFFFF DUP2 GT ISZERO PUSH2 0x1071 JUMPI PUSH2 0x1070 PUSH2 0xBFE JUMP JUMPDEST JUMPDEST PUSH2 0x107D DUP9 DUP3 DUP10 ADD PUSH2 0xE2D JUMP JUMPDEST SWAP6 POP SWAP6 POP POP PUSH1 0x20 DUP7 ADD CALLDATALOAD PUSH8 0xFFFFFFFFFFFFFFFF DUP2 GT ISZERO PUSH2 0x10A0 JUMPI PUSH2 0x109F PUSH2 0xBFE JUMP JUMPDEST JUMPDEST PUSH2 0x10AC DUP9 DUP3 DUP10 ADD PUSH2 0xE2D JUMP JUMPDEST SWAP4 POP SWAP4 POP POP PUSH1 0x40 PUSH2 0x10BF DUP9 DUP3 DUP10 ADD PUSH2 0x1027 JUMP JUMPDEST SWAP2 POP POP SWAP3 SWAP6 POP SWAP3 SWAP6 SWAP1 SWAP4 POP JUMP JUMPDEST PUSH0 DUP3 DUP3 MSTORE PUSH1 0x20 DUP3 ADD SWAP1 POP SWAP3 SWAP2 POP POP JUMP JUMPDEST PUSH32 0x4F6E6C792061646D696E2063616E2077697468647261772066756E6473212100 PUSH0 DUP3 ADD MSTORE POP JUMP JUMPDEST PUSH0 PUSH2 0x1110 PUSH1 0x1F DUP4 PUSH2 0x10CC JUMP JUMPDEST SWAP2 POP PUSH2 0x111B DUP3 PUSH2 0x10DC JUMP JUMPDEST PUSH1 0x20 DUP3 ADD SWAP1 POP SWAP2 SWAP1 POP JUMP JUMPDEST PUSH0 PUSH1 0x20 DUP3 ADD SWAP1 POP DUP2 DUP2 SUB PUSH0 DUP4 ADD MSTORE PUSH2 0x113D DUP2 PUSH2 0x1104 JUMP JUMPDEST SWAP1 POP SWAP2 SWAP1 POP JUMP JUMPDEST PUSH0 DUP2 SWAP1 POP SWAP3 SWAP2 POP POP JUMP JUMPDEST PUSH0 PUSH2 0x1159 DUP4 DUP6 PUSH2 0x1144 JUMP JUMPDEST SWAP4 POP PUSH2 0x1166 DUP4 DUP6 DUP5 PUSH2 0xCC2 JUMP JUMPDEST DUP3 DUP5 ADD SWAP1 POP SWAP4 SWAP3 POP POP POP JUMP JUMPDEST PUSH0 PUSH2 0x117E DUP3 DUP5 DUP7 PUSH2 0x114E JUMP JUMPDEST SWAP2 POP DUP2 SWAP1 POP SWAP4 SWAP3 POP POP POP JUMP JUMPDEST PUSH32 0x4E487B7100000000000000000000000000000000000000000000000000000000 PUSH0 MSTORE PUSH1 0x22 PUSH1 0x4 MSTORE PUSH1 0x24 PUSH0 REVERT JUMPDEST PUSH0 PUSH1 0x2 DUP3 DIV SWAP1 POP PUSH1 0x1 DUP3 AND DUP1 PUSH2 0x11CE JUMPI PUSH1 0x7F DUP3 AND SWAP2 POP JUMPDEST PUSH1 0x20 DUP3 LT DUP2 SUB PUSH2 0x11E1 JUMPI PUSH2 0x11E0 PUSH2 0x118A JUMP JUMPDEST JUMPDEST POP SWAP2 SWAP1 POP JUMP JUMPDEST PUSH32 0x4C696E6B206E6F7420666F756E64212100000000000000000000000000000000 PUSH0 DUP3 ADD MSTORE POP JUMP JUMPDEST PUSH0 PUSH2 0x121B PUSH1 0x10 DUP4 PUSH2 0x10CC JUMP JUMPDEST SWAP2 POP PUSH2 0x1226 DUP3 PUSH2 0x11E7 JUMP JUMPDEST PUSH1 0x20 DUP3 ADD SWAP1 POP SWAP2 SWAP1 POP JUMP JUMPDEST PUSH0 PUSH1 0x20 DUP3 ADD SWAP1 POP DUP2 DUP2 SUB PUSH0 DUP4 ADD MSTORE PUSH2 0x1248 DUP2 PUSH2 0x120F JUMP JUMPDEST SWAP1 POP SWAP2 SWAP1 POP JUMP JUMPDEST PUSH32 0x596F7520616C726561647920686176652061636365737320746F207468697320 PUSH0 DUP3 ADD MSTORE PUSH32 0x6C696E6B21210000000000000000000000000000000000000000000000000000 PUSH1 0x20 DUP3 ADD MSTORE POP JUMP JUMPDEST PUSH0 PUSH2 0x12A9 PUSH1 0x26 DUP4 PUSH2 0x10CC JUMP JUMPDEST SWAP2 POP PUSH2 0x12B4 DUP3 PUSH2 0x124F JUMP JUMPDEST PUSH1 0x40 DUP3 ADD SWAP1 POP SWAP2 SWAP1 POP JUMP JUMPDEST PUSH0 PUSH1 0x20 DUP3 ADD SWAP1 POP DUP2 DUP2 SUB PUSH0 DUP4 ADD MSTORE PUSH2 0x12D6 DUP2 PUSH2 0x129D JUMP JUMPDEST SWAP1 POP SWAP2 SWAP1 POP JUMP JUMPDEST PUSH32 0x496E73756666696369656E74207061796D656E74212100000000000000000000 PUSH0 DUP3 ADD MSTORE POP JUMP JUMPDEST PUSH0 PUSH2 0x1311 PUSH1 0x16 DUP4 PUSH2 0x10CC JUMP JUMPDEST SWAP2 POP PUSH2 0x131C DUP3 PUSH2 0x12DD JUMP JUMPDEST PUSH1 0x20 DUP3 ADD SWAP1 POP SWAP2 SWAP1 POP JUMP JUMPDEST PUSH0 PUSH1 0x20 DUP3 ADD SWAP1 POP DUP2 DUP2 SUB PUSH0 DUP4 ADD MSTORE PUSH2 0x133E DUP2 PUSH2 0x1305 JUMP JUMPDEST SWAP1 POP SWAP2 SWAP1 POP JUMP JUMPDEST PUSH32 0x4E487B7100000000000000000000000000000000000000000000000000000000 PUSH0 MSTORE PUSH1 0x11 PUSH1 0x4 MSTORE PUSH1 0x24 PUSH0 REVERT JUMPDEST PUSH0 PUSH2 0x137C DUP3 PUSH2 0xF3C JUMP JUMPDEST SWAP2 POP PUSH2 0x1387 DUP4 PUSH2 0xF3C JUMP JUMPDEST SWAP3 POP DUP3 DUP3 SUB SWAP1 POP DUP2 DUP2 GT ISZERO PUSH2 0x139F JUMPI PUSH2 0x139E PUSH2 0x1345 JUMP JUMPDEST JUMPDEST SWAP3 SWAP2 POP POP JUMP JUMPDEST PUSH32 0x54686973206C696E6B496420616C72656164792068617320616E206F776E6572 PUSH0 DUP3 ADD MSTORE PUSH32 0x2121000000000000000000000000000000000000000000000000000000000000 PUSH1 0x20 DUP3 ADD MSTORE POP JUMP JUMPDEST PUSH0 PUSH2 0x13FF PUSH1 0x22 DUP4 PUSH2 0x10CC JUMP JUMPDEST SWAP2 POP PUSH2 0x140A DUP3 PUSH2 0x13A5 JUMP JUMPDEST PUSH1 0x40 DUP3 ADD SWAP1 POP SWAP2 SWAP1 POP JUMP JUMPDEST PUSH0 PUSH1 0x20 DUP3 ADD SWAP1 POP DUP2 DUP2 SUB PUSH0 DUP4 ADD MSTORE PUSH2 0x142C DUP2 PUSH2 0x13F3 JUMP JUMPDEST SWAP1 POP SWAP2 SWAP1 POP JUMP JUMPDEST PUSH32 0x46656520746F6F206C6F77212100000000000000000000000000000000000000 PUSH0 DUP3 ADD MSTORE POP JUMP JUMPDEST PUSH0 PUSH2 0x1467 PUSH1 0xD DUP4 PUSH2 0x10CC JUMP JUMPDEST SWAP2 POP PUSH2 0x1472 DUP3 PUSH2 0x1433 JUMP JUMPDEST PUSH1 0x20 DUP3 ADD SWAP1 POP SWAP2 SWAP1 POP JUMP JUMPDEST PUSH0 PUSH1 0x20 DUP3 ADD SWAP1 POP DUP2 DUP2 SUB PUSH0 DUP4 ADD MSTORE PUSH2 0x1494 DUP2 PUSH2 0x145B JUMP JUMPDEST SWAP1 POP SWAP2 SWAP1 POP JUMP JUMPDEST PUSH0 DUP2 SWAP1 POP DUP2 PUSH0 MSTORE PUSH1 0x20 PUSH0 KECCAK256 SWAP1 POP SWAP2 SWAP1 POP JUMP JUMPDEST PUSH0 PUSH1 0x20 PUSH1 0x1F DUP4 ADD DIV SWAP1 POP SWAP2 SWAP1 POP JUMP JUMPDEST PUSH0 DUP3 DUP3 SHL SWAP1 POP SWAP3 SWAP2 POP POP JUMP JUMPDEST PUSH0 PUSH1 0x8 DUP4 MUL PUSH2 0x14F7 PUSH32 0xFFFFFFFFFFFFFFFFFFFFFFFFFFFFFFFFFFFFFFFFFFFFFFFFFFFFFFFFFFFFFFFF DUP3 PUSH2 0x14BC JUMP JUMPDEST PUSH2 0x1501 DUP7 DUP4 PUSH2 0x14BC JUMP JUMPDEST SWAP6 POP DUP1 NOT DUP5 AND SWAP4 POP DUP1 DUP7 AND DUP5 OR SWAP3 POP POP POP SWAP4 SWAP3 POP POP POP JUMP JUMPDEST PUSH0 DUP2 SWAP1 POP SWAP2 SWAP1 POP JUMP JUMPDEST PUSH0 PUSH2 0x153C PUSH2 0x1537 PUSH2 0x1532 DUP5 PUSH2 0xF3C JUMP JUMPDEST PUSH2 0x1519 JUMP JUMPDEST PUSH2 0xF3C JUMP JUMPDEST SWAP1 POP SWAP2 SWAP1 POP JUMP JUMPDEST PUSH0 DUP2 SWAP1 POP SWAP2 SWAP1 POP JUMP JUMPDEST PUSH2 0x1555 DUP4 PUSH2 0x1522 JUMP JUMPDEST PUSH2 0x1569 PUSH2 0x1561 DUP3 PUSH2 0x1543 JUMP JUMPDEST DUP5 DUP5 SLOAD PUSH2 0x14C8 JUMP JUMPDEST DUP3 SSTORE POP POP POP POP JUMP JUMPDEST PUSH0 PUSH0 SWAP1 POP SWAP1 JUMP JUMPDEST PUSH2 0x1580 PUSH2 0x1571 JUMP JUMPDEST PUSH2 0x158B DUP2 DUP5 DUP5 PUSH2 0x154C JUMP JUMPDEST POP POP POP JUMP JUMPDEST JUMPDEST DUP2 DUP2 LT ISZERO PUSH2 0x15AE JUMPI PUSH2 0x15A3 PUSH0 DUP3 PUSH2 0x1578 JUMP JUMPDEST PUSH1 0x1 DUP2 ADD SWAP1 POP PUSH2 0x1591 JUMP JUMPDEST POP POP JUMP JUMPDEST PUSH1 0x1F DUP3 GT ISZERO PUSH2 0x15F3 JUMPI PUSH2 0x15C4 DUP2 PUSH2 0x149B JUMP JUMPDEST PUSH2 0x15CD DUP5 PUSH2 0x14AD JUMP JUMPDEST DUP2 ADD PUSH1 0x20 DUP6 LT ISZERO PUSH2 0x15DC JUMPI DUP2 SWAP1 POP JUMPDEST PUSH2 0x15F0 PUSH2 0x15E8 DUP6 PUSH2 0x14AD JUMP JUMPDEST DUP4 ADD DUP3 PUSH2 0x1590 JUMP JUMPDEST POP POP JUMPDEST POP POP POP JUMP JUMPDEST PUSH0 DUP3 DUP3 SHR SWAP1 POP SWAP3 SWAP2 POP POP JUMP JUMPDEST PUSH0 PUSH2 0x1613 PUSH0 NOT DUP5 PUSH1 0x8 MUL PUSH2 0x15F8 JUMP JUMPDEST NOT DUP1 DUP4 AND SWAP2 POP POP SWAP3 SWAP2 POP POP JUMP JUMPDEST PUSH0 PUSH2 0x162B DUP4 DUP4 PUSH2 0x1604 JUMP JUMPDEST SWAP2 POP DUP3 PUSH1 0x2 MUL DUP3 OR SWAP1 POP SWAP3 SWAP2 POP POP JUMP JUMPDEST PUSH2 0x1644 DUP3 PUSH2 0xECD JUMP JUMPDEST PUSH8 0xFFFFFFFFFFFFFFFF DUP2 GT ISZERO PUSH2 0x165D JUMPI PUSH2 0x165C PUSH2 0xC1A JUMP JUMPDEST JUMPDEST PUSH2 0x1667 DUP3 SLOAD PUSH2 0x11B7 JUMP JUMPDEST PUSH2 0x1672 DUP3 DUP3 DUP6 PUSH2 0x15B2 JUMP JUMPDEST PUSH0 PUSH1 0x20 SWAP1 POP PUSH1 0x1F DUP4 GT PUSH1 0x1 DUP2 EQ PUSH2 0x16A3 JUMPI PUSH0 DUP5 ISZERO PUSH2 0x1691 JUMPI DUP3 DUP8 ADD MLOAD SWAP1 POP JUMPDEST PUSH2 0x169B DUP6 DUP3 PUSH2 0x1620 JUMP JUMPDEST DUP7 SSTORE POP PUSH2 0x1702 JUMP JUMPDEST PUSH1 0x1F NOT DUP5 AND PUSH2 0x16B1 DUP7 PUSH2 0x149B JUMP JUMPDEST PUSH0 JUMPDEST DUP3 DUP2 LT ISZERO PUSH2 0x16D8 JUMPI DUP5 DUP10 ADD MLOAD DUP3 SSTORE PUSH1 0x1 DUP3 ADD SWAP2 POP PUSH1 0x20 DUP6 ADD SWAP5 POP PUSH1 0x20 DUP2 ADD SWAP1 POP PUSH2 0x16B3 JUMP JUMPDEST DUP7 DUP4 LT ISZERO PUSH2 0x16F5 JUMPI DUP5 DUP10 ADD MLOAD PUSH2 0x16F1 PUSH1 0x1F DUP10 AND DUP3 PUSH2 0x1604 JUMP JUMPDEST DUP4 SSTORE POP JUMPDEST PUSH1 0x1 PUSH1 0x2 DUP9 MUL ADD DUP9 SSTORE POP POP POP JUMPDEST POP POP POP POP POP POP JUMP INVALID LOG2 PUSH5 0x6970667358 0x22 SLT KECCAK256 ORIGIN CALLCODE MLOAD 0xA5 SLOAD SWAP11 DUP2 0xED 0xDA RJUMP 0x129E GASLIMIT 0x2A 0xED 0xA9 CALLER PUSH2 0x69D2 0x24 0x2B 0x22 CALLCODE 0x28 0xE8 SELFDESTRUCT PUSH18 0x9CAE542264736F6C634300081E0033000000 "
				},
				"gasEstimates": {
					"creation": {
						"codeDepositCost": "1190400",
						"executionCost": "infinite",
						"totalCost": "infinite"
					},
					"external": {
						"addLink(string,string,uint256)": "infinite",
						"admin()": "infinite",
						"commission()": "2446",
						"getLink(string)": "infinite",
						"hasAccess(string,address)": "infinite",
						"payLink(string)": "infinite",
						"withdraw()": "infinite"
					}
				},
				"methodIdentifiers": {
					"addLink(string,string,uint256)": "fc5f2b78",
					"admin()": "f851a440",
					"commission()": "e1489191",
					"getLink(string)": "7476452a",
					"hasAccess(string,address)": "13bd20e2",
					"payLink(string)": "429cad86",
					"withdraw()": "3ccfd60b"
				}
			},
			"storageLayout": {
				"storage": [
					{
						"astId": 11,
						"contract": "contracts/Linkshield.sol:LinkShield",
						"label": "commission",
						"offset": 0,
						"slot": "0",
						"type": "t_uint256"
					},
					{
						"astId": 16,
						"contract": "contracts/Linkshield.sol:LinkShield",
						"label": "links",
						"offset": 0,
						"slot": "1",
						"type": "t_mapping(t_string_memory_ptr,t_struct(Link)8_storage)"
					},
					{
						"astId": 22,
						"contract": "contracts/Linkshield.sol:LinkShield",
						"label": "hasAccess",
						"offset": 0,
						"slot": "2",
						"type": "t_mapping(t_string_memory_ptr,t_mapping(t_address,t_bool))"
					}
				],
				"types": {
					"t_address": {
						"encoding": "inplace",
						"label": "address",
						"numberOfBytes": "20"
					},
					"t_bool": {
						"encoding": "inplace",
						"label": "bool",
						"numberOfBytes": "1"
					},
					"t_mapping(t_address,t_bool)": {
						"encoding": "mapping",
						"key": "t_address",
						"label": "mapping(address => bool)",
						"numberOfBytes": "32",
						"value": "t_bool"
					},
					"t_mapping(t_string_memory_ptr,t_mapping(t_address,t_bool))": {
						"encoding": "mapping",
						"key": "t_string_memory_ptr",
						"label": "mapping(string => mapping(address => bool))",
						"numberOfBytes": "32",
						"value": "t_mapping(t_address,t_bool)"
					},
					"t_mapping(t_string_memory_ptr,t_struct(Link)8_storage)": {
						"encoding": "mapping",
						"key": "t_string_memory_ptr",
						"label": "mapping(string => struct LinkShield.Link)",
						"numberOfBytes": "32",
						"value": "t_struct(Link)8_storage"
					},
					"t_string_memory_ptr": {
						"encoding": "bytes",
						"label": "string",
						"numberOfBytes": "32"
					},
					"t_string_storage": {
						"encoding": "bytes",
						"label": "string",
						"numberOfBytes": "32"
					},
					"t_struct(Link)8_storage": {
						"encoding": "inplace",
						"label": "struct LinkShield.Link",
						"members": [
							{
								"astId": 3,
								"contract": "contracts/Linkshield.sol:LinkShield",
								"label": "url",
								"offset": 0,
								"slot": "0",
								"type": "t_string_storage"
							},
							{
								"astId": 5,
								"contract": "contracts/Linkshield.sol:LinkShield",
								"label": "owner",
								"offset": 0,
								"slot": "1",
								"type": "t_address"
							},
							{
								"astId": 7,
								"contract": "contracts/Linkshield.sol:LinkShield",
								"label": "fee",
								"offset": 0,
								"slot": "2",
								"type": "t_uint256"
							}
						],
						"numberOfBytes": "96"
					},
					"t_uint256": {
						"encoding": "inplace",
						"label": "uint256",
						"numberOfBytes": "32"
					}
				}
			},
			"userdoc": {
				"kind": "user",
				"methods": {},
				"version": 1
			}
		}
	}
}