{
	"data": {
		"bytecode": {
			"linkReferences": {},
			"object": "6080604052348015600e575f5ffd5b50610ec78061001c5f395ff3fe608060405234801561000f575f5ffd5b506004361061003f575f3560e01c806313bd20e2146100435780637476452a14610073578063fc5f2b78146100a3575b5f5ffd5b61005d600480360381019061005891906107fd565b6100bf565b60405161006a9190610871565b60405180910390f35b61008d600480360381019061008891906108e7565b610101565b60405161009a9190610a06565b60405180910390f35b6100bd60048036038101906100b89190610a50565b6102cc565b005b600182805160208101820180518482526020830160208501208183528095505050505050602052805f5260405f205f915091509054906101000a900460ff1681565b610109610621565b5f5f848460405161011b929190610b0f565b90815260200160405180910390206040518060600160405290815f8201805461014390610b54565b80601f016020809104026020016040519081016040528092919081815260200182805461016f90610b54565b80156101ba5780601f10610191576101008083540402835291602001916101ba565b820191905f5260205f20905b81548152906001019060200180831161019d57829003601f168201915b50505050508152602001600182015f9054906101000a900473ffffffffffffffffffffffffffffffffffffffff1673ffffffffffffffffffffffffffffffffffffffff1673ffffffffffffffffffffffffffffffffffffffff16815260200160028201548152505090505f81604001510361023857809150506102c6565b5f15156001858560405161024d929190610b0f565b90815260200160405180910390205f3373ffffffffffffffffffffffffffffffffffffffff1673ffffffffffffffffffffffffffffffffffffffff1681526020019081526020015f205f9054906101000a900460ff161515036102c15760405180602001604052805f815250815f01819052505b809150505b92915050565b5f5f84846040516102de929190610b0f565b90815260200160405180910390206040518060600160405290815f8201805461030690610b54565b80601f016020809104026020016040519081016040528092919081815260200182805461033290610b54565b801561037d5780601f106103545761010080835404028352916020019161037d565b820191905f5260205f20905b81548152906001019060200180831161036057829003601f168201915b50505050508152602001600182015f9054906101000a900473ffffffffffffffffffffffffffffffffffffffff1673ffffffffffffffffffffffffffffffffffffffff1673ffffffffffffffffffffffffffffffffffffffff16815260200160028201548152505090505f73ffffffffffffffffffffffffffffffffffffffff16816020015173ffffffffffffffffffffffffffffffffffffffff16148061045457503373ffffffffffffffffffffffffffffffffffffffff16816020015173ffffffffffffffffffffffffffffffffffffffff16145b610493576040517f08c379a000000000000000000000000000000000000000000000000000000000815260040161048a90610c04565b60405180910390fd5b85858080601f0160208091040260200160405190810160405280939291908181526020018383808284375f81840152601f19601f82011690508083019250505050505050815f018190525033816020019073ffffffffffffffffffffffffffffffffffffffff16908173ffffffffffffffffffffffffffffffffffffffff168152505081816040018181525050805f8585604051610532929190610b0f565b90815260200160405180910390205f820151815f0190816105539190610dc2565b506020820151816001015f6101000a81548173ffffffffffffffffffffffffffffffffffffffff021916908373ffffffffffffffffffffffffffffffffffffffff1602179055506040820151816002015590505060018085856040516105ba929190610b0f565b90815260200160405180910390205f3373ffffffffffffffffffffffffffffffffffffffff1673ffffffffffffffffffffffffffffffffffffffff1681526020019081526020015f205f6101000a81548160ff021916908315150217905550505050505050565b6040518060600160405280606081526020015f73ffffffffffffffffffffffffffffffffffffffff1681526020015f81525090565b5f604051905090565b5f5ffd5b5f5ffd5b5f5ffd5b5f5ffd5b5f601f19601f8301169050919050565b7f4e487b71000000000000000000000000000000000000000000000000000000005f52604160045260245ffd5b6106b58261066f565b810181811067ffffffffffffffff821117156106d4576106d361067f565b5b80604052505050565b5f6106e6610656565b90506106f282826106ac565b919050565b5f67ffffffffffffffff8211156107115761071061067f565b5b61071a8261066f565b9050602081019050919050565b828183375f83830152505050565b5f610747610742846106f7565b6106dd565b9050828152602081018484840111156107635761076261066b565b5b61076e848285610727565b509392505050565b5f82601f83011261078a57610789610667565b5b813561079a848260208601610735565b91505092915050565b5f73ffffffffffffffffffffffffffffffffffffffff82169050919050565b5f6107cc826107a3565b9050919050565b6107dc816107c2565b81146107e6575f5ffd5b50565b5f813590506107f7816107d3565b92915050565b5f5f604083850312156108135761081261065f565b5b5f83013567ffffffffffffffff8111156108305761082f610663565b5b61083c85828601610776565b925050602061084d858286016107e9565b9150509250929050565b5f8115159050919050565b61086b81610857565b82525050565b5f6020820190506108845f830184610862565b92915050565b5f5ffd5b5f5ffd5b5f5f83601f8401126108a7576108a6610667565b5b8235905067ffffffffffffffff8111156108c4576108c361088a565b5b6020830191508360018202830111156108e0576108df61088e565b5b9250929050565b5f5f602083850312156108fd576108fc61065f565b5b5f83013567ffffffffffffffff81111561091a57610919610663565b5b61092685828601610892565b92509250509250929050565b5f81519050919050565b5f82825260208201905092915050565b8281835e5f83830152505050565b5f61096482610932565b61096e818561093c565b935061097e81856020860161094c565b6109878161066f565b840191505092915050565b61099b816107c2565b82525050565b5f819050919050565b6109b3816109a1565b82525050565b5f606083015f8301518482035f8601526109d3828261095a565b91505060208301516109e86020860182610992565b5060408301516109fb60408601826109aa565b508091505092915050565b5f6020820190508181035f830152610a1e81846109b9565b905092915050565b610a2f816109a1565b8114610a39575f5ffd5b50565b5f81359050610a4a81610a26565b92915050565b5f5f5f5f5f60608688031215610a6957610a6861065f565b5b5f86013567ffffffffffffffff811115610a8657610a85610663565b5b610a9288828901610892565b9550955050602086013567ffffffffffffffff811115610ab557610ab4610663565b5b610ac188828901610892565b93509350506040610ad488828901610a3c565b9150509295509295909350565b5f81905092915050565b5f610af68385610ae1565b9350610b03838584610727565b82840190509392505050565b5f610b1b828486610aeb565b91508190509392505050565b7f4e487b71000000000000000000000000000000000000000000000000000000005f52602260045260245ffd5b5f6002820490506001821680610b6b57607f821691505b602082108103610b7e57610b7d610b27565b5b50919050565b5f82825260208201905092915050565b7f54686973206c696e6b496420616c72656164792068617320616e206f776e65725f8201527f2121000000000000000000000000000000000000000000000000000000000000602082015250565b5f610bee602283610b84565b9150610bf982610b94565b604082019050919050565b5f6020820190508181035f830152610c1b81610be2565b9050919050565b5f819050815f5260205f209050919050565b5f6020601f8301049050919050565b5f82821b905092915050565b5f60088302610c7e7fffffffffffffffffffffffffffffffffffffffffffffffffffffffffffffffff82610c43565b610c888683610c43565b95508019841693508086168417925050509392505050565b5f819050919050565b5f610cc3610cbe610cb9846109a1565b610ca0565b6109a1565b9050919050565b5f819050919050565b610cdc83610ca9565b610cf0610ce882610cca565b848454610c4f565b825550505050565b5f5f905090565b610d07610cf8565b610d12818484610cd3565b505050565b5b81811015610d3557610d2a5f82610cff565b600181019050610d18565b5050565b601f821115610d7a57610d4b81610c22565b610d5484610c34565b81016020851015610d63578190505b610d77610d6f85610c34565b830182610d17565b50505b505050565b5f82821c905092915050565b5f610d9a5f1984600802610d7f565b1980831691505092915050565b5f610db28383610d8b565b9150826002028217905092915050565b610dcb82610932565b67ffffffffffffffff811115610de457610de361067f565b5b610dee8254610b54565b610df9828285610d39565b5f60209050601f831160018114610e2a575f8415610e18578287015190505b610e228582610da7565b865550610e89565b601f198416610e3886610c22565b5f5b82811015610e5f57848901518255600182019150602085019450602081019050610e3a565b86831015610e7c5784890151610e78601f891682610d8b565b8355505b6001600288020188555050505b50505050505056fea26469706673582212205b87aa8342e3087889295dfc8233a3574b4cf9bae62fc85bda9bca56454873dd64736f6c634300081e0033",
			"opcodes": "PUSH1 0x80 PUSH1 0x40 MSTORE CALLVALUE DUP1 ISZERO PUSH1 0xE JUMPI PUSH0 PUSH0 REVERT JUMPDEST POP PUSH2 0xEC7 DUP1 PUSH2 0x1C PUSH0 CODECOPY PUSH0 RETURN INVALID PUSH1 0x80 PUSH1 0x40 MSTORE CALLVALUE DUP1 ISZERO PUSH2 0xF JUMPI PUSH0 PUSH0 REVERT JUMPDEST POP PUSH1 0x4 CALLDATASIZE LT PUSH2 0x3F JUMPI PUSH0 CALLDATALOAD PUSH1 0xE0 SHR DUP1 PUSH4 0x13BD20E2 EQ PUSH2 0x43 JUMPI DUP1 PUSH4 0x7476452A EQ PUSH2 0x73 JUMPI DUP1 PUSH4 0xFC5F2B78 EQ PUSH2 0xA3 JUMPI JUMPDEST PUSH0 PUSH0 REVERT JUMPDEST PUSH2 0x5D PUSH1 0x4 DUP1 CALLDATASIZE SUB DUP2 ADD SWAP1 PUSH2 0x58 SWAP2 SWAP1 PUSH2 0x7FD JUMP JUMPDEST PUSH2 0xBF JUMP JUMPDEST PUSH1 0x40 MLOAD PUSH2 0x6A SWAP2 SWAP1 PUSH2 0x871 JUMP JUMPDEST PUSH1 0x40 MLOAD DUP1 SWAP2 SUB SWAP1 RETURN JUMPDEST PUSH2 0x8D PUSH1 0x4 DUP1 CALLDATASIZE SUB DUP2 ADD SWAP1 PUSH2 0x88 SWAP2 SWAP1 PUSH2 0x8E7 JUMP JUMPDEST PUSH2 0x101 JUMP JUMPDEST PUSH1 0x40 MLOAD PUSH2 0x9A SWAP2 SWAP1 PUSH2 0xA06 JUMP JUMPDEST PUSH1 0x40 MLOAD DUP1 SWAP2 SUB SWAP1 RETURN JUMPDEST PUSH2 0xBD PUSH1 0x4 DUP1 CALLDATASIZE SUB DUP2 ADD SWAP1 PUSH2 0xB8 SWAP2 SWAP1 PUSH2 0xA50 JUMP JUMPDEST PUSH2 0x2CC JUMP JUMPDEST STOP JUMPDEST PUSH1 0x1 DUP3 DUP1 MLOAD PUSH1 0x20 DUP2 ADD DUP3 ADD DUP1 MLOAD DUP5 DUP3 MSTORE PUSH1 0x20 DUP4 ADD PUSH1 0x20 DUP6 ADD KECCAK256 DUP2 DUP4 MSTORE DUP1 SWAP6 POP POP POP POP POP POP PUSH1 0x20 MSTORE DUP1 PUSH0 MSTORE PUSH1 0x40 PUSH0 KECCAK256 PUSH0 SWAP2 POP SWAP2 POP SWAP1 SLOAD SWAP1 PUSH2 0x100 EXP SWAP1 DIV PUSH1 0xFF AND DUP2 JUMP JUMPDEST PUSH2 0x109 PUSH2 0x621 JUMP JUMPDEST PUSH0 PUSH0 DUP5 DUP5 PUSH1 0x40 MLOAD PUSH2 0x11B SWAP3 SWAP2 SWAP1 PUSH2 0xB0F JUMP JUMPDEST SWAP1 DUP2 MSTORE PUSH1 0x20 ADD PUSH1 0x40 MLOAD DUP1 SWAP2 SUB SWAP1 KECCAK256 PUSH1 0x40 MLOAD DUP1 PUSH1 0x60 ADD PUSH1 0x40 MSTORE SWAP1 DUP2 PUSH0 DUP3 ADD DUP1 SLOAD PUSH2 0x143 SWAP1 PUSH2 0xB54 JUMP JUMPDEST DUP1 PUSH1 0x1F ADD PUSH1 0x20 DUP1 SWAP2 DIV MUL PUSH1 0x20 ADD PUSH1 0x40 MLOAD SWAP1 DUP2 ADD PUSH1 0x40 MSTORE DUP1 SWAP3 SWAP2 SWAP1 DUP2 DUP2 MSTORE PUSH1 0x20 ADD DUP3 DUP1 SLOAD PUSH2 0x16F SWAP1 PUSH2 0xB54 JUMP JUMPDEST DUP1 ISZERO PUSH2 0x1BA JUMPI DUP1 PUSH1 0x1F LT PUSH2 0x191 JUMPI PUSH2 0x100 DUP1 DUP4 SLOAD DIV MUL DUP4 MSTORE SWAP2 PUSH1 0x20 ADD SWAP2 PUSH2 0x1BA JUMP JUMPDEST DUP3 ADD SWAP2 SWAP1 PUSH0 MSTORE PUSH1 0x20 PUSH0 KECCAK256 SWAP1 JUMPDEST DUP2 SLOAD DUP2 MSTORE SWAP1 PUSH1 0x1 ADD SWAP1 PUSH1 0x20 ADD DUP1 DUP4 GT PUSH2 0x19D JUMPI DUP3 SWAP1 SUB PUSH1 0x1F AND DUP3 ADD SWAP2 JUMPDEST POP POP POP POP POP DUP2 MSTORE PUSH1 0x20 ADD PUSH1 0x1 DUP3 ADD PUSH0 SWAP1 SLOAD SWAP1 PUSH2 0x100 EXP SWAP1 DIV PUSH20 0xFFFFFFFFFFFFFFFFFFFFFFFFFFFFFFFFFFFFFFFF AND PUSH20 0xFFFFFFFFFFFFFFFFFFFFFFFFFFFFFFFFFFFFFFFF AND PUSH20 0xFFFFFFFFFFFFFFFFFFFFFFFFFFFFFFFFFFFFFFFF AND DUP2 MSTORE PUSH1 0x20 ADD PUSH1 0x2 DUP3 ADD SLOAD DUP2 MSTORE POP POP SWAP1 POP PUSH0 DUP2 PUSH1 0x40 ADD MLOAD SUB PUSH2 0x238 JUMPI DUP1 SWAP2 POP POP PUSH2 0x2C6 JUMP JUMPDEST PUSH0 ISZERO ISZERO PUSH1 0x1 DUP6 DUP6 PUSH1 0x40 MLOAD PUSH2 0x24D SWAP3 SWAP2 SWAP1 PUSH2 0xB0F JUMP JUMPDEST SWAP1 DUP2 MSTORE PUSH1 0x20 ADD PUSH1 0x40 MLOAD DUP1 SWAP2 SUB SWAP1 KECCAK256 PUSH0 CALLER PUSH20 0xFFFFFFFFFFFFFFFFFFFFFFFFFFFFFFFFFFFFFFFF AND PUSH20 0xFFFFFFFFFFFFFFFFFFFFFFFFFFFFFFFFFFFFFFFF AND DUP2 MSTORE PUSH1 0x20 ADD SWAP1 DUP2 MSTORE PUSH1 0x20 ADD PUSH0 KECCAK256 PUSH0 SWAP1 SLOAD SWAP1 PUSH2 0x100 EXP SWAP1 DIV PUSH1 0xFF AND ISZERO ISZERO SUB PUSH2 0x2C1 JUMPI PUSH1 0x40 MLOAD DUP1 PUSH1 0x20 ADD PUSH1 0x40 MSTORE DUP1 PUSH0 DUP2 MSTORE POP DUP2 PUSH0 ADD DUP2 SWAP1 MSTORE POP JUMPDEST DUP1 SWAP2 POP POP JUMPDEST SWAP3 SWAP2 POP POP JUMP JUMPDEST PUSH0 PUSH0 DUP5 DUP5 PUSH1 0x40 MLOAD PUSH2 0x2DE SWAP3 SWAP2 SWAP1 PUSH2 0xB0F JUMP JUMPDEST SWAP1 DUP2 MSTORE PUSH1 0x20 ADD PUSH1 0x40 MLOAD DUP1 SWAP2 SUB SWAP1 KECCAK256 PUSH1 0x40 MLOAD DUP1 PUSH1 0x60 ADD PUSH1 0x40 MSTORE SWAP1 DUP2 PUSH0 DUP3 ADD DUP1 SLOAD PUSH2 0x306 SWAP1 PUSH2 0xB54 JUMP JUMPDEST DUP1 PUSH1 0x1F ADD PUSH1 0x20 DUP1 SWAP2 DIV MUL PUSH1 0x20 ADD PUSH1 0x40 MLOAD SWAP1 DUP2 ADD PUSH1 0x40 MSTORE DUP1 SWAP3 SWAP2 SWAP1 DUP2 DUP2 MSTORE PUSH1 0x20 ADD DUP3 DUP1 SLOAD PUSH2 0x332 SWAP1 PUSH2 0xB54 JUMP JUMPDEST DUP1 ISZERO PUSH2 0x37D JUMPI DUP1 PUSH1 0x1F LT PUSH2 0x354 JUMPI PUSH2 0x100 DUP1 DUP4 SLOAD DIV MUL DUP4 MSTORE SWAP2 PUSH1 0x20 ADD SWAP2 PUSH2 0x37D JUMP JUMPDEST DUP3 ADD SWAP2 SWAP1 PUSH0 MSTORE PUSH1 0x20 PUSH0 KECCAK256 SWAP1 JUMPDEST DUP2 SLOAD DUP2 MSTORE SWAP1 PUSH1 0x1 ADD SWAP1 PUSH1 0x20 ADD DUP1 DUP4 GT PUSH2 0x360 JUMPI DUP3 SWAP1 SUB PUSH1 0x1F AND DUP3 ADD SWAP2 JUMPDEST POP POP POP POP POP DUP2 MSTORE PUSH1 0x20 ADD PUSH1 0x1 DUP3 ADD PUSH0 SWAP1 SLOAD SWAP1 PUSH2 0x100 EXP SWAP1 DIV PUSH20 0xFFFFFFFFFFFFFFFFFFFFFFFFFFFFFFFFFFFFFFFF AND PUSH20 0xFFFFFFFFFFFFFFFFFFFFFFFFFFFFFFFFFFFFFFFF AND PUSH20 0xFFFFFFFFFFFFFFFFFFFFFFFFFFFFFFFFFFFFFFFF AND DUP2 MSTORE PUSH1 0x20 ADD PUSH1 0x2 DUP3 ADD SLOAD DUP2 MSTORE POP POP SWAP1 POP PUSH0 PUSH20 0xFFFFFFFFFFFFFFFFFFFFFFFFFFFFFFFFFFFFFFFF AND DUP2 PUSH1 0x20 ADD MLOAD PUSH20 0xFFFFFFFFFFFFFFFFFFFFFFFFFFFFFFFFFFFFFFFF AND EQ DUP1 PUSH2 0x454 JUMPI POP CALLER PUSH20 0xFFFFFFFFFFFFFFFFFFFFFFFFFFFFFFFFFFFFFFFF AND DUP2 PUSH1 0x20 ADD MLOAD PUSH20 0xFFFFFFFFFFFFFFFFFFFFFFFFFFFFFFFFFFFFFFFF AND EQ JUMPDEST PUSH2 0x493 JUMPI PUSH1 0x40 MLOAD PUSH32 0x8C379A000000000000000000000000000000000000000000000000000000000 DUP2 MSTORE PUSH1 0x4 ADD PUSH2 0x48A SWAP1 PUSH2 0xC04 JUMP JUMPDEST PUSH1 0x40 MLOAD DUP1 SWAP2 SUB SWAP1 REVERT JUMPDEST DUP6 DUP6 DUP1 DUP1 PUSH1 0x1F ADD PUSH1 0x20 DUP1 SWAP2 DIV MUL PUSH1 0x20 ADD PUSH1 0x40 MLOAD SWAP1 DUP2 ADD PUSH1 0x40 MSTORE DUP1 SWAP4 SWAP3 SWAP2 SWAP1 DUP2 DUP2 MSTORE PUSH1 0x20 ADD DUP4 DUP4 DUP1 DUP3 DUP5 CALLDATACOPY PUSH0 DUP2 DUP5 ADD MSTORE PUSH1 0x1F NOT PUSH1 0x1F DUP3 ADD AND SWAP1 POP DUP1 DUP4 ADD SWAP3 POP POP POP POP POP POP POP DUP2 PUSH0 ADD DUP2 SWAP1 MSTORE POP CALLER DUP2 PUSH1 0x20 ADD SWAP1 PUSH20 0xFFFFFFFFFFFFFFFFFFFFFFFFFFFFFFFFFFFFFFFF AND SWAP1 DUP2 PUSH20 0xFFFFFFFFFFFFFFFFFFFFFFFFFFFFFFFFFFFFFFFF AND DUP2 MSTORE POP POP DUP2 DUP2 PUSH1 0x40 ADD DUP2 DUP2 MSTORE POP POP DUP1 PUSH0 DUP6 DUP6 PUSH1 0x40 MLOAD PUSH2 0x532 SWAP3 SWAP2 SWAP1 PUSH2 0xB0F JUMP JUMPDEST SWAP1 DUP2 MSTORE PUSH1 0x20 ADD PUSH1 0x40 MLOAD DUP1 SWAP2 SUB SWAP1 KECCAK256 PUSH0 DUP3 ADD MLOAD DUP2 PUSH0 ADD SWAP1 DUP2 PUSH2 0x553 SWAP2 SWAP1 PUSH2 0xDC2 JUMP JUMPDEST POP PUSH1 0x20 DUP3 ADD MLOAD DUP2 PUSH1 0x1 ADD PUSH0 PUSH2 0x100 EXP DUP2 SLOAD DUP2 PUSH20 0xFFFFFFFFFFFFFFFFFFFFFFFFFFFFFFFFFFFFFFFF MUL NOT AND SWAP1 DUP4 PUSH20 0xFFFFFFFFFFFFFFFFFFFFFFFFFFFFFFFFFFFFFFFF AND MUL OR SWAP1 SSTORE POP PUSH1 0x40 DUP3 ADD MLOAD DUP2 PUSH1 0x2 ADD SSTORE SWAP1 POP POP PUSH1 0x1 DUP1 DUP6 DUP6 PUSH1 0x40 MLOAD PUSH2 0x5BA SWAP3 SWAP2 SWAP1 PUSH2 0xB0F JUMP JUMPDEST SWAP1 DUP2 MSTORE PUSH1 0x20 ADD PUSH1 0x40 MLOAD DUP1 SWAP2 SUB SWAP1 KECCAK256 PUSH0 CALLER PUSH20 0xFFFFFFFFFFFFFFFFFFFFFFFFFFFFFFFFFFFFFFFF AND PUSH20 0xFFFFFFFFFFFFFFFFFFFFFFFFFFFFFFFFFFFFFFFF AND DUP2 MSTORE PUSH1 0x20 ADD SWAP1 DUP2 MSTORE PUSH1 0x20 ADD PUSH0 KECCAK256 PUSH0 PUSH2 0x100 EXP DUP2 SLOAD DUP2 PUSH1 0xFF MUL NOT AND SWAP1 DUP4 ISZERO ISZERO MUL OR SWAP1 SSTORE POP POP POP POP POP POP POP JUMP JUMPDEST PUSH1 0x40 MLOAD DUP1 PUSH1 0x60 ADD PUSH1 0x40 MSTORE DUP1 PUSH1 0x60 DUP2 MSTORE PUSH1 0x20 ADD PUSH0 PUSH20 0xFFFFFFFFFFFFFFFFFFFFFFFFFFFFFFFFFFFFFFFF AND DUP2 MSTORE PUSH1 0x20 ADD PUSH0 DUP2 MSTORE POP SWAP1 JUMP JUMPDEST PUSH0 PUSH1 0x40 MLOAD SWAP1 POP SWAP1 JUMP JUMPDEST PUSH0 PUSH0 REVERT JUMPDEST PUSH0 PUSH0 REVERT JUMPDEST PUSH0 PUSH0 REVERT JUMPDEST PUSH0 PUSH0 REVERT JUMPDEST PUSH0 PUSH1 0x1F NOT PUSH1 0x1F DUP4 ADD AND SWAP1 POP SWAP2 SWAP1 POP JUMP JUMPDEST PUSH32 0x4E487B7100000000000000000000000000000000000000000000000000000000 PUSH0 MSTORE PUSH1 0x41 PUSH1 0x4 MSTORE PUSH1 0x24 PUSH0 REVERT JUMPDEST PUSH2 0x6B5 DUP3 PUSH2 0x66F JUMP JUMPDEST DUP2 ADD DUP2 DUP2 LT PUSH8 0xFFFFFFFFFFFFFFFF DUP3 GT OR ISZERO PUSH2 0x6D4 JUMPI PUSH2 0x6D3 PUSH2 0x67F JUMP JUMPDEST JUMPDEST DUP1 PUSH1 0x40 MSTORE POP POP POP JUMP JUMPDEST PUSH0 PUSH2 0x6E6 PUSH2 0x656 JUMP JUMPDEST SWAP1 POP PUSH2 0x6F2 DUP3 DUP3 PUSH2 0x6AC JUMP JUMPDEST SWAP2 SWAP1 POP JUMP JUMPDEST PUSH0 PUSH8 0xFFFFFFFFFFFFFFFF DUP3 GT ISZERO PUSH2 0x711 JUMPI PUSH2 0x710 PUSH2 0x67F JUMP JUMPDEST JUMPDEST PUSH2 0x71A DUP3 PUSH2 0x66F JUMP JUMPDEST SWAP1 POP PUSH1 0x20 DUP2 ADD SWAP1 POP SWAP2 SWAP1 POP JUMP JUMPDEST DUP3 DUP2 DUP4 CALLDATACOPY PUSH0 DUP4 DUP4 ADD MSTORE POP POP POP JUMP JUMPDEST PUSH0 PUSH2 0x747 PUSH2 0x742 DUP5 PUSH2 0x6F7 JUMP JUMPDEST PUSH2 0x6DD JUMP JUMPDEST SWAP1 POP DUP3 DUP2 MSTORE PUSH1 0x20 DUP2 ADD DUP5 DUP5 DUP5 ADD GT ISZERO PUSH2 0x763 JUMPI PUSH2 0x762 PUSH2 0x66B JUMP JUMPDEST JUMPDEST PUSH2 0x76E DUP5 DUP3 DUP6 PUSH2 0x727 JUMP JUMPDEST POP SWAP4 SWAP3 POP POP POP JUMP JUMPDEST PUSH0 DUP3 PUSH1 0x1F DUP4 ADD SLT PUSH2 0x78A JUMPI PUSH2 0x789 PUSH2 0x667 JUMP JUMPDEST JUMPDEST DUP2 CALLDATALOAD PUSH2 0x79A DUP5 DUP3 PUSH1 0x20 DUP7 ADD PUSH2 0x735 JUMP JUMPDEST SWAP2 POP POP SWAP3 SWAP2 POP POP JUMP JUMPDEST PUSH0 PUSH20 0xFFFFFFFFFFFFFFFFFFFFFFFFFFFFFFFFFFFFFFFF DUP3 AND SWAP1 POP SWAP2 SWAP1 POP JUMP JUMPDEST PUSH0 PUSH2 0x7CC DUP3 PUSH2 0x7A3 JUMP JUMPDEST SWAP1 POP SWAP2 SWAP1 POP JUMP JUMPDEST PUSH2 0x7DC DUP2 PUSH2 0x7C2 JUMP JUMPDEST DUP2 EQ PUSH2 0x7E6 JUMPI PUSH0 PUSH0 REVERT JUMPDEST POP JUMP JUMPDEST PUSH0 DUP2 CALLDATALOAD SWAP1 POP PUSH2 0x7F7 DUP2 PUSH2 0x7D3 JUMP JUMPDEST SWAP3 SWAP2 POP POP JUMP JUMPDEST PUSH0 PUSH0 PUSH1 0x40 DUP4 DUP6 SUB SLT ISZERO PUSH2 0x813 JUMPI PUSH2 0x812 PUSH2 0x65F JUMP JUMPDEST JUMPDEST PUSH0 DUP4 ADD CALLDATALOAD PUSH8 0xFFFFFFFFFFFFFFFF DUP2 GT ISZERO PUSH2 0x830 JUMPI PUSH2 0x82F PUSH2 0x663 JUMP JUMPDEST JUMPDEST PUSH2 0x83C DUP6 DUP3 DUP7 ADD PUSH2 0x776 JUMP JUMPDEST SWAP3 POP POP PUSH1 0x20 PUSH2 0x84D DUP6 DUP3 DUP7 ADD PUSH2 0x7E9 JUMP JUMPDEST SWAP2 POP POP SWAP3 POP SWAP3 SWAP1 POP JUMP JUMPDEST PUSH0 DUP2 ISZERO ISZERO SWAP1 POP SWAP2 SWAP1 POP JUMP JUMPDEST PUSH2 0x86B DUP2 PUSH2 0x857 JUMP JUMPDEST DUP3 MSTORE POP POP JUMP JUMPDEST PUSH0 PUSH1 0x20 DUP3 ADD SWAP1 POP PUSH2 0x884 PUSH0 DUP4 ADD DUP5 PUSH2 0x862 JUMP JUMPDEST SWAP3 SWAP2 POP POP JUMP JUMPDEST PUSH0 PUSH0 REVERT JUMPDEST PUSH0 PUSH0 REVERT JUMPDEST PUSH0 PUSH0 DUP4 PUSH1 0x1F DUP5 ADD SLT PUSH2 0x8A7 JUMPI PUSH2 0x8A6 PUSH2 0x667 JUMP JUMPDEST JUMPDEST DUP3 CALLDATALOAD SWAP1 POP PUSH8 0xFFFFFFFFFFFFFFFF DUP2 GT ISZERO PUSH2 0x8C4 JUMPI PUSH2 0x8C3 PUSH2 0x88A JUMP JUMPDEST JUMPDEST PUSH1 0x20 DUP4 ADD SWAP2 POP DUP4 PUSH1 0x1 DUP3 MUL DUP4 ADD GT ISZERO PUSH2 0x8E0 JUMPI PUSH2 0x8DF PUSH2 0x88E JUMP JUMPDEST JUMPDEST SWAP3 POP SWAP3 SWAP1 POP JUMP JUMPDEST PUSH0 PUSH0 PUSH1 0x20 DUP4 DUP6 SUB SLT ISZERO PUSH2 0x8FD JUMPI PUSH2 0x8FC PUSH2 0x65F JUMP JUMPDEST JUMPDEST PUSH0 DUP4 ADD CALLDATALOAD PUSH8 0xFFFFFFFFFFFFFFFF DUP2 GT ISZERO PUSH2 0x91A JUMPI PUSH2 0x919 PUSH2 0x663 JUMP JUMPDEST JUMPDEST PUSH2 0x926 DUP6 DUP3 DUP7 ADD PUSH2 0x892 JUMP JUMPDEST SWAP3 POP SWAP3 POP POP SWAP3 POP SWAP3 SWAP1 POP JUMP JUMPDEST PUSH0 DUP2 MLOAD SWAP1 POP SWAP2 SWAP1 POP JUMP JUMPDEST PUSH0 DUP3 DUP3 MSTORE PUSH1 0x20 DUP3 ADD SWAP1 POP SWAP3 SWAP2 POP POP JUMP JUMPDEST DUP3 DUP2 DUP4 MCOPY PUSH0 DUP4 DUP4 ADD MSTORE POP POP POP JUMP JUMPDEST PUSH0 PUSH2 0x964 DUP3 PUSH2 0x932 JUMP JUMPDEST PUSH2 0x96E DUP2 DUP6 PUSH2 0x93C JUMP JUMPDEST SWAP4 POP PUSH2 0x97E DUP2 DUP6 PUSH1 0x20 DUP7 ADD PUSH2 0x94C JUMP JUMPDEST PUSH2 0x987 DUP2 PUSH2 0x66F JUMP JUMPDEST DUP5 ADD SWAP2 POP POP SWAP3 SWAP2 POP POP JUMP JUMPDEST PUSH2 0x99B DUP2 PUSH2 0x7C2 JUMP JUMPDEST DUP3 MSTORE POP POP JUMP JUMPDEST PUSH0 DUP2 SWAP1 POP SWAP2 SWAP1 POP JUMP JUMPDEST PUSH2 0x9B3 DUP2 PUSH2 0x9A1 JUMP JUMPDEST DUP3 MSTORE POP POP JUMP JUMPDEST PUSH0 PUSH1 0x60 DUP4 ADD PUSH0 DUP4 ADD MLOAD DUP5 DUP3 SUB PUSH0 DUP7 ADD MSTORE PUSH2 0x9D3 DUP3 DUP3 PUSH2 0x95A JUMP JUMPDEST SWAP2 POP POP PUSH1 0x20 DUP4 ADD MLOAD PUSH2 0x9E8 PUSH1 0x20 DUP7 ADD DUP3 PUSH2 0x992 JUMP JUMPDEST POP PUSH1 0x40 DUP4 ADD MLOAD PUSH2 0x9FB PUSH1 0x40 DUP7 ADD DUP3 PUSH2 0x9AA JUMP JUMPDEST POP DUP1 SWAP2 POP POP SWAP3 SWAP2 POP POP JUMP JUMPDEST PUSH0 PUSH1 0x20 DUP3 ADD SWAP1 POP DUP2 DUP2 SUB PUSH0 DUP4 ADD MSTORE PUSH2 0xA1E DUP2 DUP5 PUSH2 0x9B9 JUMP JUMPDEST SWAP1 POP SWAP3 SWAP2 POP POP JUMP JUMPDEST PUSH2 0xA2F DUP2 PUSH2 0x9A1 JUMP JUMPDEST DUP2 EQ PUSH2 0xA39 JUMPI PUSH0 PUSH0 REVERT JUMPDEST POP JUMP JUMPDEST PUSH0 DUP2 CALLDATALOAD SWAP1 POP PUSH2 0xA4A DUP2 PUSH2 0xA26 JUMP JUMPDEST SWAP3 SWAP2 POP POP JUMP JUMPDEST PUSH0 PUSH0 PUSH0 PUSH0 PUSH0 PUSH1 0x60 DUP7 DUP9 SUB SLT ISZERO PUSH2 0xA69 JUMPI PUSH2 0xA68 PUSH2 0x65F JUMP JUMPDEST JUMPDEST PUSH0 DUP7 ADD CALLDATALOAD PUSH8 0xFFFFFFFFFFFFFFFF DUP2 GT ISZERO PUSH2 0xA86 JUMPI PUSH2 0xA85 PUSH2 0x663 JUMP JUMPDEST JUMPDEST PUSH2 0xA92 DUP9 DUP3 DUP10 ADD PUSH2 0x892 JUMP JUMPDEST SWAP6 POP SWAP6 POP POP PUSH1 0x20 DUP7 ADD CALLDATALOAD PUSH8 0xFFFFFFFFFFFFFFFF DUP2 GT ISZERO PUSH2 0xAB5 JUMPI PUSH2 0xAB4 PUSH2 0x663 JUMP JUMPDEST JUMPDEST PUSH2 0xAC1 DUP9 DUP3 DUP10 ADD PUSH2 0x892 JUMP JUMPDEST SWAP4 POP SWAP4 POP POP PUSH1 0x40 PUSH2 0xAD4 DUP9 DUP3 DUP10 ADD PUSH2 0xA3C JUMP JUMPDEST SWAP2 POP POP SWAP3 SWAP6 POP SWAP3 SWAP6 SWAP1 SWAP4 POP JUMP JUMPDEST PUSH0 DUP2 SWAP1 POP SWAP3 SWAP2 POP POP JUMP JUMPDEST PUSH0 PUSH2 0xAF6 DUP4 DUP6 PUSH2 0xAE1 JUMP JUMPDEST SWAP4 POP PUSH2 0xB03 DUP4 DUP6 DUP5 PUSH2 0x727 JUMP JUMPDEST DUP3 DUP5 ADD SWAP1 POP SWAP4 SWAP3 POP POP POP JUMP JUMPDEST PUSH0 PUSH2 0xB1B DUP3 DUP5 DUP7 PUSH2 0xAEB JUMP JUMPDEST SWAP2 POP DUP2 SWAP1 POP SWAP4 SWAP3 POP POP POP JUMP JUMPDEST PUSH32 0x4E487B7100000000000000000000000000000000000000000000000000000000 PUSH0 MSTORE PUSH1 0x22 PUSH1 0x4 MSTORE PUSH1 0x24 PUSH0 REVERT JUMPDEST PUSH0 PUSH1 0x2 DUP3 DIV SWAP1 POP PUSH1 0x1 DUP3 AND DUP1 PUSH2 0xB6B JUMPI PUSH1 0x7F DUP3 AND SWAP2 POP JUMPDEST PUSH1 0x20 DUP3 LT DUP2 SUB PUSH2 0xB7E JUMPI PUSH2 0xB7D PUSH2 0xB27 JUMP JUMPDEST JUMPDEST POP SWAP2 SWAP1 POP JUMP JUMPDEST PUSH0 DUP3 DUP3 MSTORE PUSH1 0x20 DUP3 ADD SWAP1 POP SWAP3 SWAP2 POP POP JUMP JUMPDEST PUSH32 0x54686973206C696E6B496420616C72656164792068617320616E206F776E6572 PUSH0 DUP3 ADD MSTORE PUSH32 0x2121000000000000000000000000000000000000000000000000000000000000 PUSH1 0x20 DUP3 ADD MSTORE POP JUMP JUMPDEST PUSH0 PUSH2 0xBEE PUSH1 0x22 DUP4 PUSH2 0xB84 JUMP JUMPDEST SWAP2 POP PUSH2 0xBF9 DUP3 PUSH2 0xB94 JUMP JUMPDEST PUSH1 0x40 DUP3 ADD SWAP1 POP SWAP2 SWAP1 POP JUMP JUMPDEST PUSH0 PUSH1 0x20 DUP3 ADD SWAP1 POP DUP2 DUP2 SUB PUSH0 DUP4 ADD MSTORE PUSH2 0xC1B DUP2 PUSH2 0xBE2 JUMP JUMPDEST SWAP1 POP SWAP2 SWAP1 POP JUMP JUMPDEST PUSH0 DUP2 SWAP1 POP DUP2 PUSH0 MSTORE PUSH1 0x20 PUSH0 KECCAK256 SWAP1 POP SWAP2 SWAP1 POP JUMP JUMPDEST PUSH0 PUSH1 0x20 PUSH1 0x1F DUP4 ADD DIV SWAP1 POP SWAP2 SWAP1 POP JUMP JUMPDEST PUSH0 DUP3 DUP3 SHL SWAP1 POP SWAP3 SWAP2 POP POP JUMP JUMPDEST PUSH0 PUSH1 0x8 DUP4 MUL PUSH2 0xC7E PUSH32 0xFFFFFFFFFFFFFFFFFFFFFFFFFFFFFFFFFFFFFFFFFFFFFFFFFFFFFFFFFFFFFFFF DUP3 PUSH2 0xC43 JUMP JUMPDEST PUSH2 0xC88 DUP7 DUP4 PUSH2 0xC43 JUMP JUMPDEST SWAP6 POP DUP1 NOT DUP5 AND SWAP4 POP DUP1 DUP7 AND DUP5 OR SWAP3 POP POP POP SWAP4 SWAP3 POP POP POP JUMP JUMPDEST PUSH0 DUP2 SWAP1 POP SWAP2 SWAP1 POP JUMP JUMPDEST PUSH0 PUSH2 0xCC3 PUSH2 0xCBE PUSH2 0xCB9 DUP5 PUSH2 0x9A1 JUMP JUMPDEST PUSH2 0xCA0 JUMP JUMPDEST PUSH2 0x9A1 JUMP JUMPDEST SWAP1 POP SWAP2 SWAP1 POP JUMP JUMPDEST PUSH0 DUP2 SWAP1 POP SWAP2 SWAP1 POP JUMP JUMPDEST PUSH2 0xCDC DUP4 PUSH2 0xCA9 JUMP JUMPDEST PUSH2 0xCF0 PUSH2 0xCE8 DUP3 PUSH2 0xCCA JUMP JUMPDEST DUP5 DUP5 SLOAD PUSH2 0xC4F JUMP JUMPDEST DUP3 SSTORE POP POP POP POP JUMP JUMPDEST PUSH0 PUSH0 SWAP1 POP SWAP1 JUMP JUMPDEST PUSH2 0xD07 PUSH2 0xCF8 JUMP JUMPDEST PUSH2 0xD12 DUP2 DUP5 DUP5 PUSH2 0xCD3 JUMP JUMPDEST POP POP POP JUMP JUMPDEST JUMPDEST DUP2 DUP2 LT ISZERO PUSH2 0xD35 JUMPI PUSH2 0xD2A PUSH0 DUP3 PUSH2 0xCFF JUMP JUMPDEST PUSH1 0x1 DUP2 ADD SWAP1 POP PUSH2 0xD18 JUMP JUMPDEST POP POP JUMP JUMPDEST PUSH1 0x1F DUP3 GT ISZERO PUSH2 0xD7A JUMPI PUSH2 0xD4B DUP2 PUSH2 0xC22 JUMP JUMPDEST PUSH2 0xD54 DUP5 PUSH2 0xC34 JUMP JUMPDEST DUP2 ADD PUSH1 0x20 DUP6 LT ISZERO PUSH2 0xD63 JUMPI DUP2 SWAP1 POP JUMPDEST PUSH2 0xD77 PUSH2 0xD6F DUP6 PUSH2 0xC34 JUMP JUMPDEST DUP4 ADD DUP3 PUSH2 0xD17 JUMP JUMPDEST POP POP JUMPDEST POP POP POP JUMP JUMPDEST PUSH0 DUP3 DUP3 SHR SWAP1 POP SWAP3 SWAP2 POP POP JUMP JUMPDEST PUSH0 PUSH2 0xD9A PUSH0 NOT DUP5 PUSH1 0x8 MUL PUSH2 0xD7F JUMP JUMPDEST NOT DUP1 DUP4 AND SWAP2 POP POP SWAP3 SWAP2 POP POP JUMP JUMPDEST PUSH0 PUSH2 0xDB2 DUP4 DUP4 PUSH2 0xD8B JUMP JUMPDEST SWAP2 POP DUP3 PUSH1 0x2 MUL DUP3 OR SWAP1 POP SWAP3 SWAP2 POP POP JUMP JUMPDEST PUSH2 0xDCB DUP3 PUSH2 0x932 JUMP JUMPDEST PUSH8 0xFFFFFFFFFFFFFFFF DUP2 GT ISZERO PUSH2 0xDE4 JUMPI PUSH2 0xDE3 PUSH2 0x67F JUMP JUMPDEST JUMPDEST PUSH2 0xDEE DUP3 SLOAD PUSH2 0xB54 JUMP JUMPDEST PUSH2 0xDF9 DUP3 DUP3 DUP6 PUSH2 0xD39 JUMP JUMPDEST PUSH0 PUSH1 0x20 SWAP1 POP PUSH1 0x1F DUP4 GT PUSH1 0x1 DUP2 EQ PUSH2 0xE2A JUMPI PUSH0 DUP5 ISZERO PUSH2 0xE18 JUMPI DUP3 DUP8 ADD MLOAD SWAP1 POP JUMPDEST PUSH2 0xE22 DUP6 DUP3 PUSH2 0xDA7 JUMP JUMPDEST DUP7 SSTORE POP PUSH2 0xE89 JUMP JUMPDEST PUSH1 0x1F NOT DUP5 AND PUSH2 0xE38 DUP7 PUSH2 0xC22 JUMP JUMPDEST PUSH0 JUMPDEST DUP3 DUP2 LT ISZERO PUSH2 0xE5F JUMPI DUP5 DUP10 ADD MLOAD DUP3 SSTORE PUSH1 0x1 DUP3 ADD SWAP2 POP PUSH1 0x20 DUP6 ADD SWAP5 POP PUSH1 0x20 DUP2 ADD SWAP1 POP PUSH2 0xE3A JUMP JUMPDEST DUP7 DUP4 LT ISZERO PUSH2 0xE7C JUMPI DUP5 DUP10 ADD MLOAD PUSH2 0xE78 PUSH1 0x1F DUP10 AND DUP3 PUSH2 0xD8B JUMP JUMPDEST DUP4 SSTORE POP JUMPDEST PUSH1 0x1 PUSH1 0x2 DUP9 MUL ADD DUP9 SSTORE POP POP POP JUMPDEST POP POP POP POP POP POP JUMP INVALID LOG2 PUSH5 0x6970667358 0x22 SLT KECCAK256 JUMPDEST DUP8 0xAA DUP4 TIMESTAMP CALLF 0x878 DUP10 0x29 TSTORE 0xFC DUP3 CALLER LOG3 JUMPI 0x4B 0x4C EXTDELEGATECALL 0xBA DUPN 0x2F 0xC8 JUMPDEST 0xDA SWAP12 0xCA JUMP GASLIMIT BASEFEE PUSH20 0xDD64736F6C634300081E00330000000000000000 "
		},
		"gasEstimates": {
			"creation": {
				"codeDepositCost": "756600",
				"executionCost": "790",
				"totalCost": "757390"
			},
			"external": {
				"addLink(string,string,uint256)": "infinite",
				"getLink(string)": "infinite",
				"hasAccess(string,address)": "infinite"
			}
		},
		"methodIdentifiers": {
			"addLink(string,string,uint256)": "fc5f2b78",
			"getLink(string)": "7476452a",
			"hasAccess(string,address)": "13bd20e2"
		}
	},
	"abi": [
		{
			"inputs": [
				{
					"internalType": "string",
					"name": "url",
					"type": "string"
				},
				{
					"internalType": "string",
					"name": "linkId",
					"type": "string"
				},
				{
					"internalType": "uint256",
					"name": "fee",
					"type": "uint256"
				}
			],
			"name": "addLink",
			"outputs": [],
			"stateMutability": "nonpayable",
			"type": "function"
		},
		{
			"inputs": [
				{
					"internalType": "string",
					"name": "linkId",
					"type": "string"
				}
			],
			"name": "getLink",
			"outputs": [
				{
					"components": [
						{
							"internalType": "string",
							"name": "url",
							"type": "string"
						},
						{
							"internalType": "address",
							"name": "owner",
							"type": "address"
						},
						{
							"internalType": "uint256",
							"name": "fee",
							"type": "uint256"
						}
					],
					"internalType": "struct LinkShield.Link",
					"name": "",
					"type": "tuple"
				}
			],
			"stateMutability": "view",
			"type": "function"
		},
		{
			"inputs": [
				{
					"internalType": "string",
					"name": "",
					"type": "string"
				},
				{
					"internalType": "address",
					"name": "",
					"type": "address"
				}
			],
			"name": "hasAccess",
			"outputs": [
				{
					"internalType": "bool",
					"name": "",
					"type": "bool"
				}
			],
			"stateMutability": "view",
			"type": "function"
		}
	]
}